{
  "contracts/sorMultiCall.sol": {
    "sorMultiCall": {
      "abi": [
        {
          "constant": true,
          "inputs": [
            {
              "internalType": "address[][]",
              "name": "pools",
              "type": "address[][]"
            },
            {
              "internalType": "uint256",
              "name": "length",
              "type": "uint256"
            }
          ],
          "name": "getPoolInfo",
          "outputs": [
            {
              "internalType": "uint256[]",
              "name": "",
              "type": "uint256[]"
            }
          ],
          "payable": false,
          "stateMutability": "view",
          "type": "function"
        }
      ],
      "evm": {
        "bytecode": {
          "linkReferences": {},
          "object": "608060405234801561001057600080fd5b506104bd806100206000396000f3fe608060405234801561001057600080fd5b506004361061002b5760003560e01c8063c2eacb2d14610030575b600080fd5b61004361003e366004610333565b610059565b604051610050919061041b565b60405180910390f35b60608082604051908082528060200260200182016040528015610086578160200160208202803883390190505b5090506000805b858110156102655760008787838181106100a357fe5b602002820190508035601e19368490030181126100bf57600080fd5b9091016020810191503567ffffffffffffffff8111156100de57600080fd5b6020810236038213156100f057600080fd5b60008181106100fb57fe5b9050602002016020610110919081019061030d565b905060015b88888481811061012157fe5b602002820190508035601e193684900301811261013d57600080fd5b9091016020810191503567ffffffffffffffff81111561015c57600080fd5b60208102360382131561016e57600080fd5b905081101561025b57600089898581811061018557fe5b602002820190508035601e19368490030181126101a157600080fd5b9091016020810191503567ffffffffffffffff8111156101c057600080fd5b6020810236038213156101d257600080fd5b838181106101dc57fe5b90506020020160206101f1919081019061030d565b90506102378382604051602401610208919061040d565b60408051601f198184030181529190526020810180516001600160e01b031663f8b2cb4f60e01b179052610270565b86868151811061024357fe5b60209081029190910101525060019384019301610115565b505060010161008d565b509095945050505050565b600080905060008083516020850186613e80fa60018114156102a15760203d14156102a15760206000803e60005191505b5092915050565b80356102b38161045a565b92915050565b60008083601f8401126102cb57600080fd5b50813567ffffffffffffffff8111156102e357600080fd5b6020830191508360208202830111156102fb57600080fd5b9250929050565b80356102b381610471565b60006020828403121561031f57600080fd5b600061032b84846102a8565b949350505050565b60008060006040848603121561034857600080fd5b833567ffffffffffffffff81111561035f57600080fd5b61036b868287016102b9565b9350935050602061037e86828701610302565b9150509250925092565b60006103948383610404565b505060200190565b6103a581610446565b82525050565b60006103b682610439565b6103c0818561043d565b93506103cb83610433565b8060005b838110156103f95781516103e38882610388565b97506103ee83610433565b9250506001016103cf565b509495945050505050565b6103a581610457565b602081016102b3828461039c565b6020808252810161042c81846103ab565b9392505050565b60200190565b5190565b90815260200190565b60006001600160a01b0382166102b3565b90565b61046381610446565b811461046e57600080fd5b50565b6104638161045756fea365627a7a723158208c9ef840656a7ed200eaeb23baf783b2270a1fc3ea93ba672f21e1bbece803226c6578706572696d656e74616cf564736f6c634300050c0040",
          "opcodes": "PUSH1 0x80 PUSH1 0x40 MSTORE CALLVALUE DUP1 ISZERO PUSH2 0x10 JUMPI PUSH1 0x0 DUP1 REVERT JUMPDEST POP PUSH2 0x4BD DUP1 PUSH2 0x20 PUSH1 0x0 CODECOPY PUSH1 0x0 RETURN INVALID PUSH1 0x80 PUSH1 0x40 MSTORE CALLVALUE DUP1 ISZERO PUSH2 0x10 JUMPI PUSH1 0x0 DUP1 REVERT JUMPDEST POP PUSH1 0x4 CALLDATASIZE LT PUSH2 0x2B JUMPI PUSH1 0x0 CALLDATALOAD PUSH1 0xE0 SHR DUP1 PUSH4 0xC2EACB2D EQ PUSH2 0x30 JUMPI JUMPDEST PUSH1 0x0 DUP1 REVERT JUMPDEST PUSH2 0x43 PUSH2 0x3E CALLDATASIZE PUSH1 0x4 PUSH2 0x333 JUMP JUMPDEST PUSH2 0x59 JUMP JUMPDEST PUSH1 0x40 MLOAD PUSH2 0x50 SWAP2 SWAP1 PUSH2 0x41B JUMP JUMPDEST PUSH1 0x40 MLOAD DUP1 SWAP2 SUB SWAP1 RETURN JUMPDEST PUSH1 0x60 DUP1 DUP3 PUSH1 0x40 MLOAD SWAP1 DUP1 DUP3 MSTORE DUP1 PUSH1 0x20 MUL PUSH1 0x20 ADD DUP3 ADD PUSH1 0x40 MSTORE DUP1 ISZERO PUSH2 0x86 JUMPI DUP2 PUSH1 0x20 ADD PUSH1 0x20 DUP3 MUL DUP1 CODESIZE DUP4 CODECOPY ADD SWAP1 POP JUMPDEST POP SWAP1 POP PUSH1 0x0 DUP1 JUMPDEST DUP6 DUP2 LT ISZERO PUSH2 0x265 JUMPI PUSH1 0x0 DUP8 DUP8 DUP4 DUP2 DUP2 LT PUSH2 0xA3 JUMPI INVALID JUMPDEST PUSH1 0x20 MUL DUP3 ADD SWAP1 POP DUP1 CALLDATALOAD PUSH1 0x1E NOT CALLDATASIZE DUP5 SWAP1 SUB ADD DUP2 SLT PUSH2 0xBF JUMPI PUSH1 0x0 DUP1 REVERT JUMPDEST SWAP1 SWAP2 ADD PUSH1 0x20 DUP2 ADD SWAP2 POP CALLDATALOAD PUSH8 0xFFFFFFFFFFFFFFFF DUP2 GT ISZERO PUSH2 0xDE JUMPI PUSH1 0x0 DUP1 REVERT JUMPDEST PUSH1 0x20 DUP2 MUL CALLDATASIZE SUB DUP3 SGT ISZERO PUSH2 0xF0 JUMPI PUSH1 0x0 DUP1 REVERT JUMPDEST PUSH1 0x0 DUP2 DUP2 LT PUSH2 0xFB JUMPI INVALID JUMPDEST SWAP1 POP PUSH1 0x20 MUL ADD PUSH1 0x20 PUSH2 0x110 SWAP2 SWAP1 DUP2 ADD SWAP1 PUSH2 0x30D JUMP JUMPDEST SWAP1 POP PUSH1 0x1 JUMPDEST DUP9 DUP9 DUP5 DUP2 DUP2 LT PUSH2 0x121 JUMPI INVALID JUMPDEST PUSH1 0x20 MUL DUP3 ADD SWAP1 POP DUP1 CALLDATALOAD PUSH1 0x1E NOT CALLDATASIZE DUP5 SWAP1 SUB ADD DUP2 SLT PUSH2 0x13D JUMPI PUSH1 0x0 DUP1 REVERT JUMPDEST SWAP1 SWAP2 ADD PUSH1 0x20 DUP2 ADD SWAP2 POP CALLDATALOAD PUSH8 0xFFFFFFFFFFFFFFFF DUP2 GT ISZERO PUSH2 0x15C JUMPI PUSH1 0x0 DUP1 REVERT JUMPDEST PUSH1 0x20 DUP2 MUL CALLDATASIZE SUB DUP3 SGT ISZERO PUSH2 0x16E JUMPI PUSH1 0x0 DUP1 REVERT JUMPDEST SWAP1 POP DUP2 LT ISZERO PUSH2 0x25B JUMPI PUSH1 0x0 DUP10 DUP10 DUP6 DUP2 DUP2 LT PUSH2 0x185 JUMPI INVALID JUMPDEST PUSH1 0x20 MUL DUP3 ADD SWAP1 POP DUP1 CALLDATALOAD PUSH1 0x1E NOT CALLDATASIZE DUP5 SWAP1 SUB ADD DUP2 SLT PUSH2 0x1A1 JUMPI PUSH1 0x0 DUP1 REVERT JUMPDEST SWAP1 SWAP2 ADD PUSH1 0x20 DUP2 ADD SWAP2 POP CALLDATALOAD PUSH8 0xFFFFFFFFFFFFFFFF DUP2 GT ISZERO PUSH2 0x1C0 JUMPI PUSH1 0x0 DUP1 REVERT JUMPDEST PUSH1 0x20 DUP2 MUL CALLDATASIZE SUB DUP3 SGT ISZERO PUSH2 0x1D2 JUMPI PUSH1 0x0 DUP1 REVERT JUMPDEST DUP4 DUP2 DUP2 LT PUSH2 0x1DC JUMPI INVALID JUMPDEST SWAP1 POP PUSH1 0x20 MUL ADD PUSH1 0x20 PUSH2 0x1F1 SWAP2 SWAP1 DUP2 ADD SWAP1 PUSH2 0x30D JUMP JUMPDEST SWAP1 POP PUSH2 0x237 DUP4 DUP3 PUSH1 0x40 MLOAD PUSH1 0x24 ADD PUSH2 0x208 SWAP2 SWAP1 PUSH2 0x40D JUMP JUMPDEST PUSH1 0x40 DUP1 MLOAD PUSH1 0x1F NOT DUP2 DUP5 SUB ADD DUP2 MSTORE SWAP2 SWAP1 MSTORE PUSH1 0x20 DUP2 ADD DUP1 MLOAD PUSH1 0x1 PUSH1 0x1 PUSH1 0xE0 SHL SUB AND PUSH4 0xF8B2CB4F PUSH1 0xE0 SHL OR SWAP1 MSTORE PUSH2 0x270 JUMP JUMPDEST DUP7 DUP7 DUP2 MLOAD DUP2 LT PUSH2 0x243 JUMPI INVALID JUMPDEST PUSH1 0x20 SWAP1 DUP2 MUL SWAP2 SWAP1 SWAP2 ADD ADD MSTORE POP PUSH1 0x1 SWAP4 DUP5 ADD SWAP4 ADD PUSH2 0x115 JUMP JUMPDEST POP POP PUSH1 0x1 ADD PUSH2 0x8D JUMP JUMPDEST POP SWAP1 SWAP6 SWAP5 POP POP POP POP POP JUMP JUMPDEST PUSH1 0x0 DUP1 SWAP1 POP PUSH1 0x0 DUP1 DUP4 MLOAD PUSH1 0x20 DUP6 ADD DUP7 PUSH2 0x3E80 STATICCALL PUSH1 0x1 DUP2 EQ ISZERO PUSH2 0x2A1 JUMPI PUSH1 0x20 RETURNDATASIZE EQ ISZERO PUSH2 0x2A1 JUMPI PUSH1 0x20 PUSH1 0x0 DUP1 RETURNDATACOPY PUSH1 0x0 MLOAD SWAP2 POP JUMPDEST POP SWAP3 SWAP2 POP POP JUMP JUMPDEST DUP1 CALLDATALOAD PUSH2 0x2B3 DUP2 PUSH2 0x45A JUMP JUMPDEST SWAP3 SWAP2 POP POP JUMP JUMPDEST PUSH1 0x0 DUP1 DUP4 PUSH1 0x1F DUP5 ADD SLT PUSH2 0x2CB JUMPI PUSH1 0x0 DUP1 REVERT JUMPDEST POP DUP2 CALLDATALOAD PUSH8 0xFFFFFFFFFFFFFFFF DUP2 GT ISZERO PUSH2 0x2E3 JUMPI PUSH1 0x0 DUP1 REVERT JUMPDEST PUSH1 0x20 DUP4 ADD SWAP2 POP DUP4 PUSH1 0x20 DUP3 MUL DUP4 ADD GT ISZERO PUSH2 0x2FB JUMPI PUSH1 0x0 DUP1 REVERT JUMPDEST SWAP3 POP SWAP3 SWAP1 POP JUMP JUMPDEST DUP1 CALLDATALOAD PUSH2 0x2B3 DUP2 PUSH2 0x471 JUMP JUMPDEST PUSH1 0x0 PUSH1 0x20 DUP3 DUP5 SUB SLT ISZERO PUSH2 0x31F JUMPI PUSH1 0x0 DUP1 REVERT JUMPDEST PUSH1 0x0 PUSH2 0x32B DUP5 DUP5 PUSH2 0x2A8 JUMP JUMPDEST SWAP5 SWAP4 POP POP POP POP JUMP JUMPDEST PUSH1 0x0 DUP1 PUSH1 0x0 PUSH1 0x40 DUP5 DUP7 SUB SLT ISZERO PUSH2 0x348 JUMPI PUSH1 0x0 DUP1 REVERT JUMPDEST DUP4 CALLDATALOAD PUSH8 0xFFFFFFFFFFFFFFFF DUP2 GT ISZERO PUSH2 0x35F JUMPI PUSH1 0x0 DUP1 REVERT JUMPDEST PUSH2 0x36B DUP7 DUP3 DUP8 ADD PUSH2 0x2B9 JUMP JUMPDEST SWAP4 POP SWAP4 POP POP PUSH1 0x20 PUSH2 0x37E DUP7 DUP3 DUP8 ADD PUSH2 0x302 JUMP JUMPDEST SWAP2 POP POP SWAP3 POP SWAP3 POP SWAP3 JUMP JUMPDEST PUSH1 0x0 PUSH2 0x394 DUP4 DUP4 PUSH2 0x404 JUMP JUMPDEST POP POP PUSH1 0x20 ADD SWAP1 JUMP JUMPDEST PUSH2 0x3A5 DUP2 PUSH2 0x446 JUMP JUMPDEST DUP3 MSTORE POP POP JUMP JUMPDEST PUSH1 0x0 PUSH2 0x3B6 DUP3 PUSH2 0x439 JUMP JUMPDEST PUSH2 0x3C0 DUP2 DUP6 PUSH2 0x43D JUMP JUMPDEST SWAP4 POP PUSH2 0x3CB DUP4 PUSH2 0x433 JUMP JUMPDEST DUP1 PUSH1 0x0 JUMPDEST DUP4 DUP2 LT ISZERO PUSH2 0x3F9 JUMPI DUP2 MLOAD PUSH2 0x3E3 DUP9 DUP3 PUSH2 0x388 JUMP JUMPDEST SWAP8 POP PUSH2 0x3EE DUP4 PUSH2 0x433 JUMP JUMPDEST SWAP3 POP POP PUSH1 0x1 ADD PUSH2 0x3CF JUMP JUMPDEST POP SWAP5 SWAP6 SWAP5 POP POP POP POP POP JUMP JUMPDEST PUSH2 0x3A5 DUP2 PUSH2 0x457 JUMP JUMPDEST PUSH1 0x20 DUP2 ADD PUSH2 0x2B3 DUP3 DUP5 PUSH2 0x39C JUMP JUMPDEST PUSH1 0x20 DUP1 DUP3 MSTORE DUP2 ADD PUSH2 0x42C DUP2 DUP5 PUSH2 0x3AB JUMP JUMPDEST SWAP4 SWAP3 POP POP POP JUMP JUMPDEST PUSH1 0x20 ADD SWAP1 JUMP JUMPDEST MLOAD SWAP1 JUMP JUMPDEST SWAP1 DUP2 MSTORE PUSH1 0x20 ADD SWAP1 JUMP JUMPDEST PUSH1 0x0 PUSH1 0x1 PUSH1 0x1 PUSH1 0xA0 SHL SUB DUP3 AND PUSH2 0x2B3 JUMP JUMPDEST SWAP1 JUMP JUMPDEST PUSH2 0x463 DUP2 PUSH2 0x446 JUMP JUMPDEST DUP2 EQ PUSH2 0x46E JUMPI PUSH1 0x0 DUP1 REVERT JUMPDEST POP JUMP JUMPDEST PUSH2 0x463 DUP2 PUSH2 0x457 JUMP INVALID LOG3 PUSH6 0x627A7A723158 KECCAK256 DUP13 SWAP15 0xf8 BLOCKHASH PUSH6 0x6A7ED200EAEB 0x23 0xba 0xf7 DUP4 0xb2 0x27 EXP 0x1f 0xc3 0xea SWAP4 0xba PUSH8 0x2F21E1BBECE80322 PUSH13 0x6578706572696D656E74616CF5 PUSH5 0x736F6C6343 STOP SDIV 0xc STOP BLOCKHASH "
        },
        "methodIdentifiers": {
          "getPoolInfo(address[][],uint256)": "c2eacb2d"
        }
      }
    }
  }
}