{
  "contracts/ExchangeProxy.sol": {
    "ExchangeProxy": {
      "abi": [
        {
          "inputs": [
            {
              "internalType": "address",
              "name": "_weth",
              "type": "address"
            }
          ],
          "payable": false,
          "stateMutability": "nonpayable",
          "type": "constructor"
        },
        {
          "anonymous": false,
          "inputs": [
            {
              "indexed": true,
              "internalType": "address",
              "name": "previousOwner",
              "type": "address"
            },
            {
              "indexed": true,
              "internalType": "address",
              "name": "newOwner",
              "type": "address"
            }
          ],
          "name": "OwnershipTransferred",
          "type": "event"
        },
        {
          "payable": true,
          "stateMutability": "payable",
          "type": "fallback"
        },
        {
          "constant": false,
          "inputs": [
            {
              "components": [
                {
                  "internalType": "address",
                  "name": "pool",
                  "type": "address"
                },
                {
                  "internalType": "address",
                  "name": "tokenIn",
                  "type": "address"
                },
                {
                  "internalType": "address",
                  "name": "tokenOut",
                  "type": "address"
                },
                {
                  "internalType": "uint256",
                  "name": "swapAmount",
                  "type": "uint256"
                },
                {
                  "internalType": "uint256",
                  "name": "limitReturnAmount",
                  "type": "uint256"
                },
                {
                  "internalType": "uint256",
                  "name": "maxPrice",
                  "type": "uint256"
                }
              ],
              "internalType": "struct ExchangeProxy.Swap[]",
              "name": "swaps",
              "type": "tuple[]"
            },
            {
              "internalType": "contract TokenInterface",
              "name": "tokenIn",
              "type": "address"
            },
            {
              "internalType": "contract TokenInterface",
              "name": "tokenOut",
              "type": "address"
            },
            {
              "internalType": "uint256",
              "name": "totalAmountIn",
              "type": "uint256"
            },
            {
              "internalType": "uint256",
              "name": "minTotalAmountOut",
              "type": "uint256"
            }
          ],
          "name": "batchSwapExactIn",
          "outputs": [
            {
              "internalType": "uint256",
              "name": "totalAmountOut",
              "type": "uint256"
            }
          ],
          "payable": true,
          "stateMutability": "payable",
          "type": "function"
        },
        {
          "constant": false,
          "inputs": [
            {
              "components": [
                {
                  "internalType": "address",
                  "name": "pool",
                  "type": "address"
                },
                {
                  "internalType": "address",
                  "name": "tokenIn",
                  "type": "address"
                },
                {
                  "internalType": "address",
                  "name": "tokenOut",
                  "type": "address"
                },
                {
                  "internalType": "uint256",
                  "name": "swapAmount",
                  "type": "uint256"
                },
                {
                  "internalType": "uint256",
                  "name": "limitReturnAmount",
                  "type": "uint256"
                },
                {
                  "internalType": "uint256",
                  "name": "maxPrice",
                  "type": "uint256"
                }
              ],
              "internalType": "struct ExchangeProxy.Swap[]",
              "name": "swaps",
              "type": "tuple[]"
            },
            {
              "internalType": "contract TokenInterface",
              "name": "tokenIn",
              "type": "address"
            },
            {
              "internalType": "contract TokenInterface",
              "name": "tokenOut",
              "type": "address"
            },
            {
              "internalType": "uint256",
              "name": "maxTotalAmountIn",
              "type": "uint256"
            }
          ],
          "name": "batchSwapExactOut",
          "outputs": [
            {
              "internalType": "uint256",
              "name": "totalAmountIn",
              "type": "uint256"
            }
          ],
          "payable": true,
          "stateMutability": "payable",
          "type": "function"
        },
        {
          "constant": true,
          "inputs": [],
          "name": "isOwner",
          "outputs": [
            {
              "internalType": "bool",
              "name": "",
              "type": "bool"
            }
          ],
          "payable": false,
          "stateMutability": "view",
          "type": "function"
        },
        {
          "constant": false,
          "inputs": [
            {
              "components": [
                {
                  "internalType": "address",
                  "name": "pool",
                  "type": "address"
                },
                {
                  "internalType": "address",
                  "name": "tokenIn",
                  "type": "address"
                },
                {
                  "internalType": "address",
                  "name": "tokenOut",
                  "type": "address"
                },
                {
                  "internalType": "uint256",
                  "name": "swapAmount",
                  "type": "uint256"
                },
                {
                  "internalType": "uint256",
                  "name": "limitReturnAmount",
                  "type": "uint256"
                },
                {
                  "internalType": "uint256",
                  "name": "maxPrice",
                  "type": "uint256"
                }
              ],
              "internalType": "struct ExchangeProxy.Swap[][]",
              "name": "swapSequences",
              "type": "tuple[][]"
            },
            {
              "internalType": "contract TokenInterface",
              "name": "tokenIn",
              "type": "address"
            },
            {
              "internalType": "contract TokenInterface",
              "name": "tokenOut",
              "type": "address"
            },
            {
              "internalType": "uint256",
              "name": "totalAmountIn",
              "type": "uint256"
            },
            {
              "internalType": "uint256",
              "name": "minTotalAmountOut",
              "type": "uint256"
            }
          ],
          "name": "multihopBatchSwapExactIn",
          "outputs": [
            {
              "internalType": "uint256",
              "name": "totalAmountOut",
              "type": "uint256"
            }
          ],
          "payable": true,
          "stateMutability": "payable",
          "type": "function"
        },
        {
          "constant": false,
          "inputs": [
            {
              "components": [
                {
                  "internalType": "address",
                  "name": "pool",
                  "type": "address"
                },
                {
                  "internalType": "address",
                  "name": "tokenIn",
                  "type": "address"
                },
                {
                  "internalType": "address",
                  "name": "tokenOut",
                  "type": "address"
                },
                {
                  "internalType": "uint256",
                  "name": "swapAmount",
                  "type": "uint256"
                },
                {
                  "internalType": "uint256",
                  "name": "limitReturnAmount",
                  "type": "uint256"
                },
                {
                  "internalType": "uint256",
                  "name": "maxPrice",
                  "type": "uint256"
                }
              ],
              "internalType": "struct ExchangeProxy.Swap[][]",
              "name": "swapSequences",
              "type": "tuple[][]"
            },
            {
              "internalType": "contract TokenInterface",
              "name": "tokenIn",
              "type": "address"
            },
            {
              "internalType": "contract TokenInterface",
              "name": "tokenOut",
              "type": "address"
            },
            {
              "internalType": "uint256",
              "name": "maxTotalAmountIn",
              "type": "uint256"
            }
          ],
          "name": "multihopBatchSwapExactOut",
          "outputs": [
            {
              "internalType": "uint256",
              "name": "totalAmountIn",
              "type": "uint256"
            }
          ],
          "payable": true,
          "stateMutability": "payable",
          "type": "function"
        },
        {
          "constant": true,
          "inputs": [],
          "name": "owner",
          "outputs": [
            {
              "internalType": "address",
              "name": "",
              "type": "address"
            }
          ],
          "payable": false,
          "stateMutability": "view",
          "type": "function"
        },
        {
          "constant": false,
          "inputs": [],
          "name": "renounceOwnership",
          "outputs": [],
          "payable": false,
          "stateMutability": "nonpayable",
          "type": "function"
        },
        {
          "constant": false,
          "inputs": [
            {
              "internalType": "address",
              "name": "_registry",
              "type": "address"
            }
          ],
          "name": "setRegistry",
          "outputs": [],
          "payable": false,
          "stateMutability": "nonpayable",
          "type": "function"
        },
        {
          "constant": false,
          "inputs": [
            {
              "internalType": "contract TokenInterface",
              "name": "tokenIn",
              "type": "address"
            },
            {
              "internalType": "contract TokenInterface",
              "name": "tokenOut",
              "type": "address"
            },
            {
              "internalType": "uint256",
              "name": "totalAmountIn",
              "type": "uint256"
            },
            {
              "internalType": "uint256",
              "name": "minTotalAmountOut",
              "type": "uint256"
            },
            {
              "internalType": "uint256",
              "name": "nPools",
              "type": "uint256"
            }
          ],
          "name": "smartSwapExactIn",
          "outputs": [
            {
              "internalType": "uint256",
              "name": "totalAmountOut",
              "type": "uint256"
            }
          ],
          "payable": true,
          "stateMutability": "payable",
          "type": "function"
        },
        {
          "constant": false,
          "inputs": [
            {
              "internalType": "contract TokenInterface",
              "name": "tokenIn",
              "type": "address"
            },
            {
              "internalType": "contract TokenInterface",
              "name": "tokenOut",
              "type": "address"
            },
            {
              "internalType": "uint256",
              "name": "totalAmountOut",
              "type": "uint256"
            },
            {
              "internalType": "uint256",
              "name": "maxTotalAmountIn",
              "type": "uint256"
            },
            {
              "internalType": "uint256",
              "name": "nPools",
              "type": "uint256"
            }
          ],
          "name": "smartSwapExactOut",
          "outputs": [
            {
              "internalType": "uint256",
              "name": "totalAmountIn",
              "type": "uint256"
            }
          ],
          "payable": true,
          "stateMutability": "payable",
          "type": "function"
        },
        {
          "constant": false,
          "inputs": [
            {
              "internalType": "address",
              "name": "newOwner",
              "type": "address"
            }
          ],
          "name": "transferOwnership",
          "outputs": [],
          "payable": false,
          "stateMutability": "nonpayable",
          "type": "function"
        },
        {
          "constant": true,
          "inputs": [
            {
              "internalType": "address",
              "name": "tokenIn",
              "type": "address"
            },
            {
              "internalType": "address",
              "name": "tokenOut",
              "type": "address"
            },
            {
              "internalType": "uint256",
              "name": "swapAmount",
              "type": "uint256"
            },
            {
              "internalType": "uint256",
              "name": "nPools",
              "type": "uint256"
            }
          ],
          "name": "viewSplitExactIn",
          "outputs": [
            {
              "components": [
                {
                  "internalType": "address",
                  "name": "pool",
                  "type": "address"
                },
                {
                  "internalType": "address",
                  "name": "tokenIn",
                  "type": "address"
                },
                {
                  "internalType": "address",
                  "name": "tokenOut",
                  "type": "address"
                },
                {
                  "internalType": "uint256",
                  "name": "swapAmount",
                  "type": "uint256"
                },
                {
                  "internalType": "uint256",
                  "name": "limitReturnAmount",
                  "type": "uint256"
                },
                {
                  "internalType": "uint256",
                  "name": "maxPrice",
                  "type": "uint256"
                }
              ],
              "internalType": "struct ExchangeProxy.Swap[]",
              "name": "swaps",
              "type": "tuple[]"
            },
            {
              "internalType": "uint256",
              "name": "totalOutput",
              "type": "uint256"
            }
          ],
          "payable": false,
          "stateMutability": "view",
          "type": "function"
        },
        {
          "constant": true,
          "inputs": [
            {
              "internalType": "address",
              "name": "tokenIn",
              "type": "address"
            },
            {
              "internalType": "address",
              "name": "tokenOut",
              "type": "address"
            },
            {
              "internalType": "uint256",
              "name": "swapAmount",
              "type": "uint256"
            },
            {
              "internalType": "uint256",
              "name": "nPools",
              "type": "uint256"
            }
          ],
          "name": "viewSplitExactOut",
          "outputs": [
            {
              "components": [
                {
                  "internalType": "address",
                  "name": "pool",
                  "type": "address"
                },
                {
                  "internalType": "address",
                  "name": "tokenIn",
                  "type": "address"
                },
                {
                  "internalType": "address",
                  "name": "tokenOut",
                  "type": "address"
                },
                {
                  "internalType": "uint256",
                  "name": "swapAmount",
                  "type": "uint256"
                },
                {
                  "internalType": "uint256",
                  "name": "limitReturnAmount",
                  "type": "uint256"
                },
                {
                  "internalType": "uint256",
                  "name": "maxPrice",
                  "type": "uint256"
                }
              ],
              "internalType": "struct ExchangeProxy.Swap[]",
              "name": "swaps",
              "type": "tuple[]"
            },
            {
              "internalType": "uint256",
              "name": "totalOutput",
              "type": "uint256"
            }
          ],
          "payable": false,
          "stateMutability": "view",
          "type": "function"
        }
      ],
      "evm": {
        "bytecode": {
          "linkReferences": {},
          "object": "60806040523480156200001157600080fd5b506040516200358a3803806200358a8339810160408190526200003491620000d0565b6000620000496001600160e01b03620000b916565b600080546001600160a01b0319166001600160a01b0383169081178255604051929350917f8be0079c531659141344cd1fd0a4f28419497f9722a3daafe3b4186f6b6457e0908290a350600180546001600160a01b0319166001600160a01b039290921691909117905562000125565b3390565b8051620000ca816200010b565b92915050565b600060208284031215620000e357600080fd5b6000620000f18484620000bd565b949350505050565b60006001600160a01b038216620000ca565b6200011681620000f9565b81146200012257600080fd5b50565b61345580620001356000396000f3fe6080604052600436106100c25760003560e01c80638743ad581161007f578063a91ee0dc11610059578063a91ee0dc146101cd578063b40f39ee146101ed578063e2b3974614610200578063f2fde38b14610213576100c2565b80638743ad58146101765780638da5cb5b146101895780638f32d59b146101ab576100c2565b806321b0eb85146100c45780632db58134146100ed578063368bb1fc146101005780634b0f93fb1461012e578063715018a61461014e57806386b2ecc414610163575b005b6100d76100d2366004612d41565b610233565b6040516100e491906132b5565b60405180910390f35b6100d76100fb366004612caf565b6102b4565b34801561010c57600080fd5b5061012061011b366004612b32565b61059a565b6040516100e49291906131f6565b34801561013a57600080fd5b50610120610149366004612b32565b610947565b34801561015a57600080fd5b506100c2610c37565b6100d7610171366004612bc8565b610ca5565b6100d7610184366004612ce8565b611632565b34801561019557600080fd5b5061019e611908565b6040516100e491906130ec565b3480156101b757600080fd5b506101c0611917565b6040516100e49190613216565b3480156101d957600080fd5b506100c26101e8366004612b14565b61193b565b6100d76101fb366004612d41565b611981565b6100d761020e366004612c23565b6119f6565b34801561021f57600080fd5b506100c261022e366004612b14565b611cd2565b6000606061024087611d02565b156102655760015461025d906001600160a01b0316878786610947565b50905061029c565b61026e86611d02565b1561028c5760015461025d9088906001600160a01b03168786610947565b61029887878786610947565b5090505b6102a98188888888611632565b979650505050505050565b60006102c08483611d28565b5060005b8551811015610547576102d56127e4565b8682815181106102e157fe5b602090810291909101810151908101518151604051636eb1769f60e11b815292935090916000906001600160a01b0384169063dd62ed3e906103299030908690600401613108565b60206040518083038186803b15801561034157600080fd5b505afa158015610355573d6000803e3d6000fd5b505050506040513d601f19601f820116820180604052506103799190810190612d87565b111561040357825160405163095ea7b360e01b81526001600160a01b0384169163095ea7b3916103af9190600090600401613181565b602060405180830381600087803b1580156103c957600080fd5b505af11580156103dd573d6000803e3d6000fd5b505050506040513d601f19601f820116820180604052506104019190810190612d23565b505b8251608084015160405163095ea7b360e01b81526001600160a01b0385169263095ea7b3926104349260040161319c565b602060405180830381600087803b15801561044e57600080fd5b505af1158015610462573d6000803e3d6000fd5b505050506040513d601f19601f820116820180604052506104869190810190612d23565b5060208301516080840151604080860151606087015160a08801519251631f17a7a960e21b81526000956001600160a01b03881695637c5e9ea4956104d195929491936004016131aa565b6040805180830381600087803b1580156104ea57600080fd5b505af11580156104fe573d6000803e3d6000fd5b505050506040513d601f19601f820116820180604052506105229190810190612da5565b509050610535818763ffffffff611e4a16565b955050600190930192506102c4915050565b50818111156105715760405162461bcd60e51b815260040161056890613265565b60405180910390fd5b6105838361057e85611e76565b611f39565b506105918461057e86611e76565b50949350505050565b60025460405163bfdbfc4360e01b815260609160009183916001600160a01b03169063bfdbfc43906105d4908a908a908990600401613166565b60006040518083038186803b1580156105ec57600080fd5b505afa158015610600573d6000803e3d6000fd5b505050506040513d6000823e601f3d908101601f191682016040526106289190810190612b93565b90506060815160405190808252806020026020018201604052801561066757816020015b610654612835565b81526020019060019003908161064c5790505b5090506000805b83518110156106e0576106958a8a86848151811061068857fe5b6020026020010151612068565b8382815181106106a157fe5b60200260200101819052506106d68382815181106106bb57fe5b602002602001015160c0015183611e4a90919063ffffffff16565b915060010161066e565b506060825160405190808252806020026020018201604052801561070e578160200160208202803883390190505b5090506000805b84518110156107a0576107588461074c87848151811061073157fe5b602002602001015160c001518d61234890919063ffffffff16565b9063ffffffff61238216565b83828151811061076457fe5b60200260200101818152505061079683828151811061077f57fe5b602002602001015183611e4a90919063ffffffff16565b9150600101610715565b50888110156107fd576107df6107bc8a8363ffffffff6123c416565b836000815181106107c957fe5b6020026020010151611e4a90919063ffffffff16565b826000815181106107ec57fe5b60200260200101818152505061084d565b610833610810828b63ffffffff6123c416565b8360008151811061081d57fe5b60200260200101516123c490919063ffffffff16565b8260008151811061084057fe5b6020026020010181815250505b835160405190808252806020026020018201604052801561088857816020015b6108756127e4565b81526020019060019003908161086d5790505b50965060005b845181101561092c576040518060c001604052808683815181106108ae57fe5b6020026020010151600001516001600160a01b031681526020018d6001600160a01b031681526020018c6001600160a01b031681526020018483815181106108f257fe5b60200260200101518152602001600019815260200160001981525088828151811061091957fe5b602090810291909101015260010161088e565b506109378285612406565b9550505050505094509492505050565b60025460405163bfdbfc4360e01b815260609160009183916001600160a01b03169063bfdbfc4390610981908a908a908990600401613166565b60006040518083038186803b15801561099957600080fd5b505afa1580156109ad573d6000803e3d6000fd5b505050506040513d6000823e601f3d908101601f191682016040526109d59190810190612b93565b905060608151604051908082528060200260200182016040528015610a1457816020015b610a01612835565b8152602001906001900390816109f95790505b5090506000805b8351811015610a6557610a358a8a86848151811061068857fe5b838281518110610a4157fe5b6020026020010181905250610a5b8382815181106106bb57fe5b9150600101610a1b565b5060608251604051908082528060200260200182016040528015610a93578160200160208202803883390190505b5090506000805b8451811015610ae757610ab68461074c87848151811061073157fe5b838281518110610ac257fe5b602002602001018181525050610add83828151811061077f57fe5b9150600101610a9a565b5088811015610b2157610b036107bc8a8363ffffffff6123c416565b82600081518110610b1057fe5b602002602001018181525050610b4e565b610b34610810828b63ffffffff6123c416565b82600081518110610b4157fe5b6020026020010181815250505b8351604051908082528060200260200182016040528015610b8957816020015b610b766127e4565b815260200190600190039081610b6e5790505b50965060005b8451811015610c2c576040518060c00160405280868381518110610baf57fe5b6020026020010151600001516001600160a01b031681526020018d6001600160a01b031681526020018c6001600160a01b03168152602001848381518110610bf357fe5b6020026020010151815260200160008152602001600019815250888281518110610c1957fe5b6020908102919091010152600101610b8f565b50610937828561255c565b610c3f611917565b610c5b5760405162461bcd60e51b815260040161056890613285565b600080546040516001600160a01b03909116907f8be0079c531659141344cd1fd0a4f28419497f9722a3daafe3b4186f6b6457e0908390a3600080546001600160a01b0319169055565b6000610cb18483611d28565b5060005b8551811015610547576000868281518110610ccc57fe5b60200260200101515160011415610f5057610ce56127e4565b878381518110610cf157fe5b6020026020010151600081518110610d0557fe5b602090810291909101810151908101518151604051636eb1769f60e11b815292935090916000906001600160a01b0384169063dd62ed3e90610d4d9030908690600401613108565b60206040518083038186803b158015610d6557600080fd5b505afa158015610d79573d6000803e3d6000fd5b505050506040513d601f19601f82011682018060405250610d9d9190810190612d87565b1115610e2757825160405163095ea7b360e01b81526001600160a01b0384169163095ea7b391610dd39190600090600401613181565b602060405180830381600087803b158015610ded57600080fd5b505af1158015610e01573d6000803e3d6000fd5b505050506040513d601f19601f82011682018060405250610e259190810190612d23565b505b8251608084015160405163095ea7b360e01b81526001600160a01b0385169263095ea7b392610e589260040161319c565b602060405180830381600087803b158015610e7257600080fd5b505af1158015610e86573d6000803e3d6000fd5b505050506040513d601f19601f82011682018060405250610eaa9190810190612d23565b50806001600160a01b0316637c5e9ea484602001518560800151866040015187606001518860a001516040518663ffffffff1660e01b8152600401610ef39594939291906131aa565b6040805180830381600087803b158015610f0c57600080fd5b505af1158015610f20573d6000803e3d6000fd5b505050506040513d601f19601f82011682018060405250610f449190810190612da5565b50935061161792505050565b6000610f5a6127e4565b888481518110610f6657fe5b6020026020010151600181518110610f7a57fe5b60209081029190910181015180519181015160405163f8b2cb4f60e01b81529193506001600160a01b0383169163f8d6aed491839163f8b2cb4f91610fc1916004016130ec565b60206040518083038186803b158015610fd957600080fd5b505afa158015610fed573d6000803e3d6000fd5b505050506040513d601f19601f820116820180604052506110119190810190612d87565b6020850151604051634a46c67360e11b81526001600160a01b0386169163948d8ce69161104191906004016130ec565b60206040518083038186803b15801561105957600080fd5b505afa15801561106d573d6000803e3d6000fd5b505050506040513d601f19601f820116820180604052506110919190810190612d87565b604080870151905163f8b2cb4f60e01b81526001600160a01b0387169163f8b2cb4f916110c191906004016130ec565b60206040518083038186803b1580156110d957600080fd5b505afa1580156110ed573d6000803e3d6000fd5b505050506040513d601f19601f820116820180604052506111119190810190612d87565b6040808801519051634a46c67360e11b81526001600160a01b0388169163948d8ce69161114191906004016130ec565b60206040518083038186803b15801561115957600080fd5b505afa15801561116d573d6000803e3d6000fd5b505050506040513d601f19601f820116820180604052506111919190810190612d87565b8760600151876001600160a01b031663d4cadf686040518163ffffffff1660e01b815260040160206040518083038186803b1580156111cf57600080fd5b505afa1580156111e3573d6000803e3d6000fd5b505050506040513d601f19601f820116820180604052506112079190810190612d87565b6040518763ffffffff1660e01b8152600401611228969594939291906132c3565b60206040518083038186803b15801561124057600080fd5b505afa158015611254573d6000803e3d6000fd5b505050506040513d601f19601f820116820180604052506112789190810190612d87565b92506112826127e4565b8a868151811061128e57fe5b60200260200101516000815181106112a257fe5b602090810291909101810151908101518151604051636eb1769f60e11b81529293509091600019906001600160a01b0384169063dd62ed3e906112eb9030908690600401613108565b60206040518083038186803b15801561130357600080fd5b505afa158015611317573d6000803e3d6000fd5b505050506040513d601f19601f8201168201806040525061133b9190810190612d87565b10156113c657825160405163095ea7b360e01b81526001600160a01b0384169163095ea7b39161137291906000199060040161319c565b602060405180830381600087803b15801561138c57600080fd5b505af11580156113a0573d6000803e3d6000fd5b505050506040513d601f19601f820116820180604052506113c49190810190612d23565b505b806001600160a01b0316637c5e9ea48460200151856080015186604001518a8860a001516040518663ffffffff1660e01b815260040161140a9594939291906131aa565b6040805180830381600087803b15801561142357600080fd5b505af1158015611437573d6000803e3d6000fd5b505050506040513d601f19601f8201168201806040525061145b9190810190612da5565b5060208601518651604051636eb1769f60e11b81529299509091600019916001600160a01b0384169163dd62ed3e9161149991309190600401613108565b60206040518083038186803b1580156114b157600080fd5b505afa1580156114c5573d6000803e3d6000fd5b505050506040513d601f19601f820116820180604052506114e99190810190612d87565b101561157457855160405163095ea7b360e01b81526001600160a01b0383169163095ea7b39161152091906000199060040161319c565b602060405180830381600087803b15801561153a57600080fd5b505af115801561154e573d6000803e3d6000fd5b505050506040513d601f19601f820116820180604052506115729190810190612d23565b505b846001600160a01b0316637c5e9ea48760200151886080015189604001518a606001518b60a001516040518663ffffffff1660e01b81526004016115bc9594939291906131aa565b6040805180830381600087803b1580156115d557600080fd5b505af11580156115e9573d6000803e3d6000fd5b505050506040513d601f19601f8201168201806040525061160d9190810190612da5565b5050505050505050505b611627818463ffffffff611e4a16565b925050600101610cb5565b600061163e8584611d28565b5060005b86518110156118c5576116536127e4565b87828151811061165f57fe5b602090810291909101810151908101518151604051636eb1769f60e11b815292935090916000906001600160a01b0384169063dd62ed3e906116a79030908690600401613108565b60206040518083038186803b1580156116bf57600080fd5b505afa1580156116d3573d6000803e3d6000fd5b505050506040513d601f19601f820116820180604052506116f79190810190612d87565b111561178157825160405163095ea7b360e01b81526001600160a01b0384169163095ea7b39161172d9190600090600401613181565b602060405180830381600087803b15801561174757600080fd5b505af115801561175b573d6000803e3d6000fd5b505050506040513d601f19601f8201168201806040525061177f9190810190612d23565b505b8251606084015160405163095ea7b360e01b81526001600160a01b0385169263095ea7b3926117b29260040161319c565b602060405180830381600087803b1580156117cc57600080fd5b505af11580156117e0573d6000803e3d6000fd5b505050506040513d601f19601f820116820180604052506118049190810190612d23565b5060208301516060840151604080860151608087015160a08801519251638201aa3f60e01b81526000956001600160a01b03881695638201aa3f9561184f95929491936004016131aa565b6040805180830381600087803b15801561186857600080fd5b505af115801561187c573d6000803e3d6000fd5b505050506040513d601f19601f820116820180604052506118a09190810190612da5565b5090506118b3818763ffffffff611e4a16565b95505060019093019250611642915050565b50818110156118e65760405162461bcd60e51b815260040161056890613255565b6118f08482611f39565b506118fe8561057e87611e76565b5095945050505050565b6000546001600160a01b031690565b600080546001600160a01b031661192c6126ab565b6001600160a01b031614905090565b611943611917565b61195f5760405162461bcd60e51b815260040161056890613285565b600280546001600160a01b0319166001600160a01b0392909216919091179055565b6000606061198e87611d02565b156119b3576001546119ab906001600160a01b031687878661059a565b5090506119ea565b6119bc86611d02565b156119da576001546119ab9088906001600160a01b0316878661059a565b6119e68787878661059a565b5090505b6102a9818888876102b4565b6000611a028584611d28565b5060005b86518110156118c5576000805b888381518110611a1f57fe5b602002602001015151811015611cb657611a376127e4565b898481518110611a4357fe5b60200260200101518281518110611a5657fe5b602002602001015190506000816020015190508260011415611a7a57606082018490525b8151604051636eb1769f60e11b81526000906001600160a01b0384169063dd62ed3e90611aad9030908690600401613108565b60206040518083038186803b158015611ac557600080fd5b505afa158015611ad9573d6000803e3d6000fd5b505050506040513d601f19601f82011682018060405250611afd9190810190612d87565b1115611b8757825160405163095ea7b360e01b81526001600160a01b0384169163095ea7b391611b339190600090600401613181565b602060405180830381600087803b158015611b4d57600080fd5b505af1158015611b61573d6000803e3d6000fd5b505050506040513d601f19601f82011682018060405250611b859190810190612d23565b505b8251606084015160405163095ea7b360e01b81526001600160a01b0385169263095ea7b392611bb89260040161319c565b602060405180830381600087803b158015611bd257600080fd5b505af1158015611be6573d6000803e3d6000fd5b505050506040513d601f19601f82011682018060405250611c0a9190810190612d23565b50806001600160a01b0316638201aa3f84602001518560600151866040015187608001518860a001516040518663ffffffff1660e01b8152600401611c539594939291906131aa565b6040805180830381600087803b158015611c6c57600080fd5b505af1158015611c80573d6000803e3d6000fd5b505050506040513d601f19601f82011682018060405250611ca49190810190612da5565b5094505060019092019150611a139050565b50611cc7818463ffffffff611e4a16565b925050600101611a06565b611cda611917565b611cf65760405162461bcd60e51b815260040161056890613285565b611cff816126af565b50565b6001600160a01b03811673eeeeeeeeeeeeeeeeeeeeeeeeeeeeeeeeeeeeeeee145b919050565b6000611d3383611d02565b15611da657600160009054906101000a90046001600160a01b03166001600160a01b031663d0e30db0346040518263ffffffff1660e01b81526004016000604051808303818588803b158015611d8857600080fd5b505af1158015611d9c573d6000803e3d6000fd5b5050505050611e44565b6040516323b872dd60e01b81526001600160a01b038416906323b872dd90611dd690339030908790600401613123565b602060405180830381600087803b158015611df057600080fd5b505af1158015611e04573d6000803e3d6000fd5b505050506040513d601f19601f82011682018060405250611e289190810190612d23565b611e445760405162461bcd60e51b8152600401610568906132a5565b92915050565b600082820183811015611e6f5760405162461bcd60e51b815260040161056890613245565b9392505050565b6000611e8182611d02565b15611f0d576001546040516370a0823160e01b81526001600160a01b03909116906370a0823190611eb69030906004016130fa565b60206040518083038186803b158015611ece57600080fd5b505afa158015611ee2573d6000803e3d6000fd5b505050506040513d601f19601f82011682018060405250611f069190810190612d87565b9050611d23565b6040516370a0823160e01b81526001600160a01b038316906370a0823190611eb69030906004016130fa565b600081611f4857506001611e44565b611f5183611d02565b1561203a57600154604051632e1a7d4d60e01b81526001600160a01b0390911690632e1a7d4d90611f869085906004016132b5565b600060405180830381600087803b158015611fa057600080fd5b505af1158015611fb4573d6000803e3d6000fd5b505050506000336001600160a01b031683604051611fd1906130e1565b60006040518083038185875af1925050503d806000811461200e576040519150601f19603f3d011682016040523d82523d6000602084013e612013565b606091505b50509050806120345760405162461bcd60e51b815260040161056890613295565b50611e44565b60405163a9059cbb60e01b81526001600160a01b0384169063a9059cbb90611dd6903390869060040161314b565b612070612835565b60405163f8b2cb4f60e01b815282906000906001600160a01b0383169063f8b2cb4f906120a19089906004016130ec565b60206040518083038186803b1580156120b957600080fd5b505afa1580156120cd573d6000803e3d6000fd5b505050506040513d601f19601f820116820180604052506120f19190810190612d87565b90506000826001600160a01b031663f8b2cb4f876040518263ffffffff1660e01b815260040161212191906130ec565b60206040518083038186803b15801561213957600080fd5b505afa15801561214d573d6000803e3d6000fd5b505050506040513d601f19601f820116820180604052506121719190810190612d87565b90506000836001600160a01b031663948d8ce6896040518263ffffffff1660e01b81526004016121a191906130ec565b60206040518083038186803b1580156121b957600080fd5b505afa1580156121cd573d6000803e3d6000fd5b505050506040513d601f19601f820116820180604052506121f19190810190612d87565b90506000846001600160a01b031663948d8ce6896040518263ffffffff1660e01b815260040161222191906130ec565b60206040518083038186803b15801561223957600080fd5b505afa15801561224d573d6000803e3d6000fd5b505050506040513d601f19601f820116820180604052506122719190810190612d87565b90506000856001600160a01b031663d4cadf686040518163ffffffff1660e01b815260040160206040518083038186803b1580156122ae57600080fd5b505afa1580156122c2573d6000803e3d6000fd5b505050506040513d601f19601f820116820180604052506122e69190810190612d87565b905060006122f5848685612730565b90506122ff612835565b506040805160e0810182526001600160a01b038b16815260208101979097528601939093526060850193909352608084015260a083019190915260c08201529150509392505050565b60008261235757506000611e44565b8282028284828161236457fe5b0414611e6f5760405162461bcd60e51b815260040161056890613275565b6000611e6f83836040518060400160405280601a81526020017f536166654d6174683a206469766973696f6e206279207a65726f000000000000815250612781565b6000611e6f83836040518060400160405280601e81526020017f536166654d6174683a207375627472616374696f6e206f766572666c6f7700008152506127b8565b6000805b835181101561255557600083828151811061242157fe5b6020026020010151600001516001600160a01b031663f8d6aed485848151811061244757fe5b60200260200101516020015186858151811061245f57fe5b60200260200101516040015187868151811061247757fe5b60200260200101516060015188878151811061248f57fe5b6020026020010151608001518a88815181106124a757fe5b60200260200101518a89815181106124bb57fe5b602002602001015160a001516040518763ffffffff1660e01b81526004016124e8969594939291906132c3565b60206040518083038186803b15801561250057600080fd5b505afa158015612514573d6000803e3d6000fd5b505050506040513d601f19601f820116820180604052506125389190810190612d87565b905061254a838263ffffffff611e4a16565b92505060010161240a565b5092915050565b6000805b835181101561255557600083828151811061257757fe5b6020026020010151600001516001600160a01b031663ba9530a685848151811061259d57fe5b6020026020010151602001518685815181106125b557fe5b6020026020010151604001518786815181106125cd57fe5b6020026020010151606001518887815181106125e557fe5b6020026020010151608001518a88815181106125fd57fe5b60200260200101518a898151811061261157fe5b602002602001015160a001516040518763ffffffff1660e01b815260040161263e969594939291906132c3565b60206040518083038186803b15801561265657600080fd5b505afa15801561266a573d6000803e3d6000fd5b505050506040513d601f19601f8201168201806040525061268e9190810190612d87565b90506126a0838263ffffffff611e4a16565b925050600101612560565b3390565b6001600160a01b0381166126d55760405162461bcd60e51b815260040161056890613235565b600080546040516001600160a01b03808516939216917f8be0079c531659141344cd1fd0a4f28419497f9722a3daafe3b4186f6b6457e091a3600080546001600160a01b0319166001600160a01b0392909216919091179055565b6000612779670de0b6b3a764000061074c8561276d612755878a63ffffffff611e4a16565b61074c8a670de0b6b3a764000063ffffffff61234816565b9063ffffffff61234816565b949350505050565b600081836127a25760405162461bcd60e51b81526004016105689190613224565b5060008385816127ae57fe5b0495945050505050565b600081848411156127dc5760405162461bcd60e51b81526004016105689190613224565b505050900390565b6040518060c0016040528060006001600160a01b0316815260200160006001600160a01b0316815260200160006001600160a01b031681526020016000815260200160008152602001600081525090565b6040518060e0016040528060006001600160a01b031681526020016000815260200160008152602001600081526020016000815260200160008152602001600081525090565b8035611e44816133e3565b8051611e44816133e3565b600082601f8301126128a257600080fd5b81516128b56128b082613339565b613312565b915081818352602084019350602081019050838560208402820111156128da57600080fd5b60005b8381101561290657816128f08882612886565b84525060209283019291909101906001016128dd565b5050505092915050565b600082601f83011261292157600080fd5b813561292f6128b082613339565b81815260209384019390925082018360005b838110156129065781358601612957888261296d565b8452506020928301929190910190600101612941565b600082601f83011261297e57600080fd5b813561298c6128b082613339565b915081818352602084019350602081019050838560c08402820111156129b157600080fd5b60005b8381101561290657816129c78882612a67565b84525060209092019160c091909101906001016129b4565b600082601f8301126129f057600080fd5b81356129fe6128b082613339565b915081818352602084019350602081019050838560c0840282011115612a2357600080fd5b60005b838110156129065781612a398882612a67565b84525060209092019160c09190910190600101612a26565b8051611e44816133f7565b8035611e4481613400565b600060c08284031215612a7957600080fd5b612a8360c0613312565b90506000612a91848461287b565b8252506020612aa28484830161287b565b6020830152506040612ab68482850161287b565b6040830152506060612aca84828501612afe565b6060830152506080612ade84828501612afe565b60808301525060a0612af284828501612afe565b60a08301525092915050565b8035611e4481613409565b8051611e4481613409565b600060208284031215612b2657600080fd5b6000612779848461287b565b60008060008060808587031215612b4857600080fd5b6000612b54878761287b565b9450506020612b658782880161287b565b9350506040612b7687828801612afe565b9250506060612b8787828801612afe565b91505092959194509250565b600060208284031215612ba557600080fd5b815167ffffffffffffffff811115612bbc57600080fd5b61277984828501612891565b60008060008060808587031215612bde57600080fd5b843567ffffffffffffffff811115612bf557600080fd5b612c0187828801612910565b9450506020612c1287828801612a5c565b9350506040612b7687828801612a5c565b600080600080600060a08688031215612c3b57600080fd5b853567ffffffffffffffff811115612c5257600080fd5b612c5e88828901612910565b9550506020612c6f88828901612a5c565b9450506040612c8088828901612a5c565b9350506060612c9188828901612afe565b9250506080612ca288828901612afe565b9150509295509295909350565b60008060008060808587031215612cc557600080fd5b843567ffffffffffffffff811115612cdc57600080fd5b612c01878288016129df565b600080600080600060a08688031215612d0057600080fd5b853567ffffffffffffffff811115612d1757600080fd5b612c5e888289016129df565b600060208284031215612d3557600080fd5b60006127798484612a51565b600080600080600060a08688031215612d5957600080fd5b6000612d658888612a5c565b9550506020612d7688828901612a5c565b9450506040612c8088828901612afe565b600060208284031215612d9957600080fd5b60006127798484612b09565b60008060408385031215612db857600080fd5b6000612dc48585612b09565b9250506020612dd585828601612b09565b9150509250929050565b6000612deb8383613062565b505060c00190565b612dfc81613397565b82525050565b612dfc8161336d565b6000612e1682613360565b612e208185613364565b9350612e2b8361335a565b8060005b83811015612e59578151612e438882612ddf565b9750612e4e8361335a565b925050600101612e2f565b509495945050505050565b612dfc81613378565b612dfc816133a2565b6000612e8182613360565b612e8b8185613364565b9350612e9b8185602086016133ad565b612ea4816133d9565b9093019392505050565b6000612ebb602683613364565b7f4f776e61626c653a206e6577206f776e657220697320746865207a65726f206181526564647265737360d01b602082015260400192915050565b6000612f03601b83613364565b7f536166654d6174683a206164646974696f6e206f766572666c6f770000000000815260200192915050565b6000612f3c600d83613364565b6c11549497d31253525517d3d555609a1b815260200192915050565b6000612f65600c83613364565b6b22a9292fa624a6a4aa2fa4a760a11b815260200192915050565b6000612f8d602183613364565b7f536166654d6174683a206d756c7469706c69636174696f6e206f766572666c6f8152607760f81b602082015260400192915050565b6000612fd0602083613364565b7f4f776e61626c653a2063616c6c6572206973206e6f7420746865206f776e6572815260200192915050565b6000613009600e83613364565b6d11549497d1551217d1905253115160921b815260200192915050565b6000611e44600083611d23565b6000613040601383613364565b7211549497d514905394d1915497d19052531151606a1b815260200192915050565b805160c08301906130738482612e02565b5060208201516130866020850182612e02565b5060408201516130996040850182612e02565b5060608201516130ac60608501826130d8565b5060808201516130bf60808501826130d8565b5060a08201516130d260a08501826130d8565b50505050565b612dfc81613394565b6000611e4482613026565b60208101611e448284612e02565b60208101611e448284612df3565b604081016131168285612df3565b611e6f6020830184612e02565b606081016131318286612df3565b61313e6020830185612df3565b61277960408301846130d8565b604081016131598285612df3565b611e6f60208301846130d8565b606081016131748286612e02565b61313e6020830185612e02565b6040810161318f8285612e02565b611e6f6020830184612e6d565b604081016131598285612e02565b60a081016131b88288612e02565b6131c560208301876130d8565b6131d26040830186612e02565b6131df60608301856130d8565b6131ec60808301846130d8565b9695505050505050565b604080825281016132078185612e0b565b9050611e6f60208301846130d8565b60208101611e448284612e64565b60208082528101611e6f8184612e76565b60208082528101611e4481612eae565b60208082528101611e4481612ef6565b60208082528101611e4481612f2f565b60208082528101611e4481612f58565b60208082528101611e4481612f80565b60208082528101611e4481612fc3565b60208082528101611e4481612ffc565b60208082528101611e4481613033565b60208101611e4482846130d8565b60c081016132d182896130d8565b6132de60208301886130d8565b6132eb60408301876130d8565b6132f860608301866130d8565b61330560808301856130d8565b6102a960a08301846130d8565b60405181810167ffffffffffffffff8111828210171561333157600080fd5b604052919050565b600067ffffffffffffffff82111561335057600080fd5b5060209081020190565b60200190565b5190565b90815260200190565b6000611e4482613388565b151590565b6000611e448261336d565b6001600160a01b031690565b90565b6000611e448261337d565b6000611e4482613394565b60005b838110156133c85781810151838201526020016133b0565b838111156130d25750506000910152565b601f01601f191690565b6133ec8161336d565b8114611cff57600080fd5b6133ec81613378565b6133ec8161337d565b6133ec8161339456fea365627a7a72315820edd6376de8178b682f1af7d89339d612c0c0fe5d920f78c1da770b7692f435fa6c6578706572696d656e74616cf564736f6c634300050c0040",
          "opcodes": "PUSH1 0x80 PUSH1 0x40 MSTORE CALLVALUE DUP1 ISZERO PUSH3 0x11 JUMPI PUSH1 0x0 DUP1 REVERT JUMPDEST POP PUSH1 0x40 MLOAD PUSH3 0x358A CODESIZE SUB DUP1 PUSH3 0x358A DUP4 CODECOPY DUP2 ADD PUSH1 0x40 DUP2 SWAP1 MSTORE PUSH3 0x34 SWAP2 PUSH3 0xD0 JUMP JUMPDEST PUSH1 0x0 PUSH3 0x49 PUSH1 0x1 PUSH1 0x1 PUSH1 0xE0 SHL SUB PUSH3 0xB9 AND JUMP JUMPDEST PUSH1 0x0 DUP1 SLOAD PUSH1 0x1 PUSH1 0x1 PUSH1 0xA0 SHL SUB NOT AND PUSH1 0x1 PUSH1 0x1 PUSH1 0xA0 SHL SUB DUP4 AND SWAP1 DUP2 OR DUP3 SSTORE PUSH1 0x40 MLOAD SWAP3 SWAP4 POP SWAP2 PUSH32 0x8BE0079C531659141344CD1FD0A4F28419497F9722A3DAAFE3B4186F6B6457E0 SWAP1 DUP3 SWAP1 LOG3 POP PUSH1 0x1 DUP1 SLOAD PUSH1 0x1 PUSH1 0x1 PUSH1 0xA0 SHL SUB NOT AND PUSH1 0x1 PUSH1 0x1 PUSH1 0xA0 SHL SUB SWAP3 SWAP1 SWAP3 AND SWAP2 SWAP1 SWAP2 OR SWAP1 SSTORE PUSH3 0x125 JUMP JUMPDEST CALLER SWAP1 JUMP JUMPDEST DUP1 MLOAD PUSH3 0xCA DUP2 PUSH3 0x10B JUMP JUMPDEST SWAP3 SWAP2 POP POP JUMP JUMPDEST PUSH1 0x0 PUSH1 0x20 DUP3 DUP5 SUB SLT ISZERO PUSH3 0xE3 JUMPI PUSH1 0x0 DUP1 REVERT JUMPDEST PUSH1 0x0 PUSH3 0xF1 DUP5 DUP5 PUSH3 0xBD JUMP JUMPDEST SWAP5 SWAP4 POP POP POP POP JUMP JUMPDEST PUSH1 0x0 PUSH1 0x1 PUSH1 0x1 PUSH1 0xA0 SHL SUB DUP3 AND PUSH3 0xCA JUMP JUMPDEST PUSH3 0x116 DUP2 PUSH3 0xF9 JUMP JUMPDEST DUP2 EQ PUSH3 0x122 JUMPI PUSH1 0x0 DUP1 REVERT JUMPDEST POP JUMP JUMPDEST PUSH2 0x3455 DUP1 PUSH3 0x135 PUSH1 0x0 CODECOPY PUSH1 0x0 RETURN INVALID PUSH1 0x80 PUSH1 0x40 MSTORE PUSH1 0x4 CALLDATASIZE LT PUSH2 0xC2 JUMPI PUSH1 0x0 CALLDATALOAD PUSH1 0xE0 SHR DUP1 PUSH4 0x8743AD58 GT PUSH2 0x7F JUMPI DUP1 PUSH4 0xA91EE0DC GT PUSH2 0x59 JUMPI DUP1 PUSH4 0xA91EE0DC EQ PUSH2 0x1CD JUMPI DUP1 PUSH4 0xB40F39EE EQ PUSH2 0x1ED JUMPI DUP1 PUSH4 0xE2B39746 EQ PUSH2 0x200 JUMPI DUP1 PUSH4 0xF2FDE38B EQ PUSH2 0x213 JUMPI PUSH2 0xC2 JUMP JUMPDEST DUP1 PUSH4 0x8743AD58 EQ PUSH2 0x176 JUMPI DUP1 PUSH4 0x8DA5CB5B EQ PUSH2 0x189 JUMPI DUP1 PUSH4 0x8F32D59B EQ PUSH2 0x1AB JUMPI PUSH2 0xC2 JUMP JUMPDEST DUP1 PUSH4 0x21B0EB85 EQ PUSH2 0xC4 JUMPI DUP1 PUSH4 0x2DB58134 EQ PUSH2 0xED JUMPI DUP1 PUSH4 0x368BB1FC EQ PUSH2 0x100 JUMPI DUP1 PUSH4 0x4B0F93FB EQ PUSH2 0x12E JUMPI DUP1 PUSH4 0x715018A6 EQ PUSH2 0x14E JUMPI DUP1 PUSH4 0x86B2ECC4 EQ PUSH2 0x163 JUMPI JUMPDEST STOP JUMPDEST PUSH2 0xD7 PUSH2 0xD2 CALLDATASIZE PUSH1 0x4 PUSH2 0x2D41 JUMP JUMPDEST PUSH2 0x233 JUMP JUMPDEST PUSH1 0x40 MLOAD PUSH2 0xE4 SWAP2 SWAP1 PUSH2 0x32B5 JUMP JUMPDEST PUSH1 0x40 MLOAD DUP1 SWAP2 SUB SWAP1 RETURN JUMPDEST PUSH2 0xD7 PUSH2 0xFB CALLDATASIZE PUSH1 0x4 PUSH2 0x2CAF JUMP JUMPDEST PUSH2 0x2B4 JUMP JUMPDEST CALLVALUE DUP1 ISZERO PUSH2 0x10C JUMPI PUSH1 0x0 DUP1 REVERT JUMPDEST POP PUSH2 0x120 PUSH2 0x11B CALLDATASIZE PUSH1 0x4 PUSH2 0x2B32 JUMP JUMPDEST PUSH2 0x59A JUMP JUMPDEST PUSH1 0x40 MLOAD PUSH2 0xE4 SWAP3 SWAP2 SWAP1 PUSH2 0x31F6 JUMP JUMPDEST CALLVALUE DUP1 ISZERO PUSH2 0x13A JUMPI PUSH1 0x0 DUP1 REVERT JUMPDEST POP PUSH2 0x120 PUSH2 0x149 CALLDATASIZE PUSH1 0x4 PUSH2 0x2B32 JUMP JUMPDEST PUSH2 0x947 JUMP JUMPDEST CALLVALUE DUP1 ISZERO PUSH2 0x15A JUMPI PUSH1 0x0 DUP1 REVERT JUMPDEST POP PUSH2 0xC2 PUSH2 0xC37 JUMP JUMPDEST PUSH2 0xD7 PUSH2 0x171 CALLDATASIZE PUSH1 0x4 PUSH2 0x2BC8 JUMP JUMPDEST PUSH2 0xCA5 JUMP JUMPDEST PUSH2 0xD7 PUSH2 0x184 CALLDATASIZE PUSH1 0x4 PUSH2 0x2CE8 JUMP JUMPDEST PUSH2 0x1632 JUMP JUMPDEST CALLVALUE DUP1 ISZERO PUSH2 0x195 JUMPI PUSH1 0x0 DUP1 REVERT JUMPDEST POP PUSH2 0x19E PUSH2 0x1908 JUMP JUMPDEST PUSH1 0x40 MLOAD PUSH2 0xE4 SWAP2 SWAP1 PUSH2 0x30EC JUMP JUMPDEST CALLVALUE DUP1 ISZERO PUSH2 0x1B7 JUMPI PUSH1 0x0 DUP1 REVERT JUMPDEST POP PUSH2 0x1C0 PUSH2 0x1917 JUMP JUMPDEST PUSH1 0x40 MLOAD PUSH2 0xE4 SWAP2 SWAP1 PUSH2 0x3216 JUMP JUMPDEST CALLVALUE DUP1 ISZERO PUSH2 0x1D9 JUMPI PUSH1 0x0 DUP1 REVERT JUMPDEST POP PUSH2 0xC2 PUSH2 0x1E8 CALLDATASIZE PUSH1 0x4 PUSH2 0x2B14 JUMP JUMPDEST PUSH2 0x193B JUMP JUMPDEST PUSH2 0xD7 PUSH2 0x1FB CALLDATASIZE PUSH1 0x4 PUSH2 0x2D41 JUMP JUMPDEST PUSH2 0x1981 JUMP JUMPDEST PUSH2 0xD7 PUSH2 0x20E CALLDATASIZE PUSH1 0x4 PUSH2 0x2C23 JUMP JUMPDEST PUSH2 0x19F6 JUMP JUMPDEST CALLVALUE DUP1 ISZERO PUSH2 0x21F JUMPI PUSH1 0x0 DUP1 REVERT JUMPDEST POP PUSH2 0xC2 PUSH2 0x22E CALLDATASIZE PUSH1 0x4 PUSH2 0x2B14 JUMP JUMPDEST PUSH2 0x1CD2 JUMP JUMPDEST PUSH1 0x0 PUSH1 0x60 PUSH2 0x240 DUP8 PUSH2 0x1D02 JUMP JUMPDEST ISZERO PUSH2 0x265 JUMPI PUSH1 0x1 SLOAD PUSH2 0x25D SWAP1 PUSH1 0x1 PUSH1 0x1 PUSH1 0xA0 SHL SUB AND DUP8 DUP8 DUP7 PUSH2 0x947 JUMP JUMPDEST POP SWAP1 POP PUSH2 0x29C JUMP JUMPDEST PUSH2 0x26E DUP7 PUSH2 0x1D02 JUMP JUMPDEST ISZERO PUSH2 0x28C JUMPI PUSH1 0x1 SLOAD PUSH2 0x25D SWAP1 DUP9 SWAP1 PUSH1 0x1 PUSH1 0x1 PUSH1 0xA0 SHL SUB AND DUP8 DUP7 PUSH2 0x947 JUMP JUMPDEST PUSH2 0x298 DUP8 DUP8 DUP8 DUP7 PUSH2 0x947 JUMP JUMPDEST POP SWAP1 POP JUMPDEST PUSH2 0x2A9 DUP2 DUP9 DUP9 DUP9 DUP9 PUSH2 0x1632 JUMP JUMPDEST SWAP8 SWAP7 POP POP POP POP POP POP POP JUMP JUMPDEST PUSH1 0x0 PUSH2 0x2C0 DUP5 DUP4 PUSH2 0x1D28 JUMP JUMPDEST POP PUSH1 0x0 JUMPDEST DUP6 MLOAD DUP2 LT ISZERO PUSH2 0x547 JUMPI PUSH2 0x2D5 PUSH2 0x27E4 JUMP JUMPDEST DUP7 DUP3 DUP2 MLOAD DUP2 LT PUSH2 0x2E1 JUMPI INVALID JUMPDEST PUSH1 0x20 SWAP1 DUP2 MUL SWAP2 SWAP1 SWAP2 ADD DUP2 ADD MLOAD SWAP1 DUP2 ADD MLOAD DUP2 MLOAD PUSH1 0x40 MLOAD PUSH4 0x6EB1769F PUSH1 0xE1 SHL DUP2 MSTORE SWAP3 SWAP4 POP SWAP1 SWAP2 PUSH1 0x0 SWAP1 PUSH1 0x1 PUSH1 0x1 PUSH1 0xA0 SHL SUB DUP5 AND SWAP1 PUSH4 0xDD62ED3E SWAP1 PUSH2 0x329 SWAP1 ADDRESS SWAP1 DUP7 SWAP1 PUSH1 0x4 ADD PUSH2 0x3108 JUMP JUMPDEST PUSH1 0x20 PUSH1 0x40 MLOAD DUP1 DUP4 SUB DUP2 DUP7 DUP1 EXTCODESIZE ISZERO DUP1 ISZERO PUSH2 0x341 JUMPI PUSH1 0x0 DUP1 REVERT JUMPDEST POP GAS STATICCALL ISZERO DUP1 ISZERO PUSH2 0x355 JUMPI RETURNDATASIZE PUSH1 0x0 DUP1 RETURNDATACOPY RETURNDATASIZE PUSH1 0x0 REVERT JUMPDEST POP POP POP POP PUSH1 0x40 MLOAD RETURNDATASIZE PUSH1 0x1F NOT PUSH1 0x1F DUP3 ADD AND DUP3 ADD DUP1 PUSH1 0x40 MSTORE POP PUSH2 0x379 SWAP2 SWAP1 DUP2 ADD SWAP1 PUSH2 0x2D87 JUMP JUMPDEST GT ISZERO PUSH2 0x403 JUMPI DUP3 MLOAD PUSH1 0x40 MLOAD PUSH4 0x95EA7B3 PUSH1 0xE0 SHL DUP2 MSTORE PUSH1 0x1 PUSH1 0x1 PUSH1 0xA0 SHL SUB DUP5 AND SWAP2 PUSH4 0x95EA7B3 SWAP2 PUSH2 0x3AF SWAP2 SWAP1 PUSH1 0x0 SWAP1 PUSH1 0x4 ADD PUSH2 0x3181 JUMP JUMPDEST PUSH1 0x20 PUSH1 0x40 MLOAD DUP1 DUP4 SUB DUP2 PUSH1 0x0 DUP8 DUP1 EXTCODESIZE ISZERO DUP1 ISZERO PUSH2 0x3C9 JUMPI PUSH1 0x0 DUP1 REVERT JUMPDEST POP GAS CALL ISZERO DUP1 ISZERO PUSH2 0x3DD JUMPI RETURNDATASIZE PUSH1 0x0 DUP1 RETURNDATACOPY RETURNDATASIZE PUSH1 0x0 REVERT JUMPDEST POP POP POP POP PUSH1 0x40 MLOAD RETURNDATASIZE PUSH1 0x1F NOT PUSH1 0x1F DUP3 ADD AND DUP3 ADD DUP1 PUSH1 0x40 MSTORE POP PUSH2 0x401 SWAP2 SWAP1 DUP2 ADD SWAP1 PUSH2 0x2D23 JUMP JUMPDEST POP JUMPDEST DUP3 MLOAD PUSH1 0x80 DUP5 ADD MLOAD PUSH1 0x40 MLOAD PUSH4 0x95EA7B3 PUSH1 0xE0 SHL DUP2 MSTORE PUSH1 0x1 PUSH1 0x1 PUSH1 0xA0 SHL SUB DUP6 AND SWAP3 PUSH4 0x95EA7B3 SWAP3 PUSH2 0x434 SWAP3 PUSH1 0x4 ADD PUSH2 0x319C JUMP JUMPDEST PUSH1 0x20 PUSH1 0x40 MLOAD DUP1 DUP4 SUB DUP2 PUSH1 0x0 DUP8 DUP1 EXTCODESIZE ISZERO DUP1 ISZERO PUSH2 0x44E JUMPI PUSH1 0x0 DUP1 REVERT JUMPDEST POP GAS CALL ISZERO DUP1 ISZERO PUSH2 0x462 JUMPI RETURNDATASIZE PUSH1 0x0 DUP1 RETURNDATACOPY RETURNDATASIZE PUSH1 0x0 REVERT JUMPDEST POP POP POP POP PUSH1 0x40 MLOAD RETURNDATASIZE PUSH1 0x1F NOT PUSH1 0x1F DUP3 ADD AND DUP3 ADD DUP1 PUSH1 0x40 MSTORE POP PUSH2 0x486 SWAP2 SWAP1 DUP2 ADD SWAP1 PUSH2 0x2D23 JUMP JUMPDEST POP PUSH1 0x20 DUP4 ADD MLOAD PUSH1 0x80 DUP5 ADD MLOAD PUSH1 0x40 DUP1 DUP7 ADD MLOAD PUSH1 0x60 DUP8 ADD MLOAD PUSH1 0xA0 DUP9 ADD MLOAD SWAP3 MLOAD PUSH4 0x1F17A7A9 PUSH1 0xE2 SHL DUP2 MSTORE PUSH1 0x0 SWAP6 PUSH1 0x1 PUSH1 0x1 PUSH1 0xA0 SHL SUB DUP9 AND SWAP6 PUSH4 0x7C5E9EA4 SWAP6 PUSH2 0x4D1 SWAP6 SWAP3 SWAP5 SWAP2 SWAP4 PUSH1 0x4 ADD PUSH2 0x31AA JUMP JUMPDEST PUSH1 0x40 DUP1 MLOAD DUP1 DUP4 SUB DUP2 PUSH1 0x0 DUP8 DUP1 EXTCODESIZE ISZERO DUP1 ISZERO PUSH2 0x4EA JUMPI PUSH1 0x0 DUP1 REVERT JUMPDEST POP GAS CALL ISZERO DUP1 ISZERO PUSH2 0x4FE JUMPI RETURNDATASIZE PUSH1 0x0 DUP1 RETURNDATACOPY RETURNDATASIZE PUSH1 0x0 REVERT JUMPDEST POP POP POP POP PUSH1 0x40 MLOAD RETURNDATASIZE PUSH1 0x1F NOT PUSH1 0x1F DUP3 ADD AND DUP3 ADD DUP1 PUSH1 0x40 MSTORE POP PUSH2 0x522 SWAP2 SWAP1 DUP2 ADD SWAP1 PUSH2 0x2DA5 JUMP JUMPDEST POP SWAP1 POP PUSH2 0x535 DUP2 DUP8 PUSH4 0xFFFFFFFF PUSH2 0x1E4A AND JUMP JUMPDEST SWAP6 POP POP PUSH1 0x1 SWAP1 SWAP4 ADD SWAP3 POP PUSH2 0x2C4 SWAP2 POP POP JUMP JUMPDEST POP DUP2 DUP2 GT ISZERO PUSH2 0x571 JUMPI PUSH1 0x40 MLOAD PUSH3 0x461BCD PUSH1 0xE5 SHL DUP2 MSTORE PUSH1 0x4 ADD PUSH2 0x568 SWAP1 PUSH2 0x3265 JUMP JUMPDEST PUSH1 0x40 MLOAD DUP1 SWAP2 SUB SWAP1 REVERT JUMPDEST PUSH2 0x583 DUP4 PUSH2 0x57E DUP6 PUSH2 0x1E76 JUMP JUMPDEST PUSH2 0x1F39 JUMP JUMPDEST POP PUSH2 0x591 DUP5 PUSH2 0x57E DUP7 PUSH2 0x1E76 JUMP JUMPDEST POP SWAP5 SWAP4 POP POP POP POP JUMP JUMPDEST PUSH1 0x2 SLOAD PUSH1 0x40 MLOAD PUSH4 0xBFDBFC43 PUSH1 0xE0 SHL DUP2 MSTORE PUSH1 0x60 SWAP2 PUSH1 0x0 SWAP2 DUP4 SWAP2 PUSH1 0x1 PUSH1 0x1 PUSH1 0xA0 SHL SUB AND SWAP1 PUSH4 0xBFDBFC43 SWAP1 PUSH2 0x5D4 SWAP1 DUP11 SWAP1 DUP11 SWAP1 DUP10 SWAP1 PUSH1 0x4 ADD PUSH2 0x3166 JUMP JUMPDEST PUSH1 0x0 PUSH1 0x40 MLOAD DUP1 DUP4 SUB DUP2 DUP7 DUP1 EXTCODESIZE ISZERO DUP1 ISZERO PUSH2 0x5EC JUMPI PUSH1 0x0 DUP1 REVERT JUMPDEST POP GAS STATICCALL ISZERO DUP1 ISZERO PUSH2 0x600 JUMPI RETURNDATASIZE PUSH1 0x0 DUP1 RETURNDATACOPY RETURNDATASIZE PUSH1 0x0 REVERT JUMPDEST POP POP POP POP PUSH1 0x40 MLOAD RETURNDATASIZE PUSH1 0x0 DUP3 RETURNDATACOPY PUSH1 0x1F RETURNDATASIZE SWAP1 DUP2 ADD PUSH1 0x1F NOT AND DUP3 ADD PUSH1 0x40 MSTORE PUSH2 0x628 SWAP2 SWAP1 DUP2 ADD SWAP1 PUSH2 0x2B93 JUMP JUMPDEST SWAP1 POP PUSH1 0x60 DUP2 MLOAD PUSH1 0x40 MLOAD SWAP1 DUP1 DUP3 MSTORE DUP1 PUSH1 0x20 MUL PUSH1 0x20 ADD DUP3 ADD PUSH1 0x40 MSTORE DUP1 ISZERO PUSH2 0x667 JUMPI DUP2 PUSH1 0x20 ADD JUMPDEST PUSH2 0x654 PUSH2 0x2835 JUMP JUMPDEST DUP2 MSTORE PUSH1 0x20 ADD SWAP1 PUSH1 0x1 SWAP1 SUB SWAP1 DUP2 PUSH2 0x64C JUMPI SWAP1 POP JUMPDEST POP SWAP1 POP PUSH1 0x0 DUP1 JUMPDEST DUP4 MLOAD DUP2 LT ISZERO PUSH2 0x6E0 JUMPI PUSH2 0x695 DUP11 DUP11 DUP7 DUP5 DUP2 MLOAD DUP2 LT PUSH2 0x688 JUMPI INVALID JUMPDEST PUSH1 0x20 MUL PUSH1 0x20 ADD ADD MLOAD PUSH2 0x2068 JUMP JUMPDEST DUP4 DUP3 DUP2 MLOAD DUP2 LT PUSH2 0x6A1 JUMPI INVALID JUMPDEST PUSH1 0x20 MUL PUSH1 0x20 ADD ADD DUP2 SWAP1 MSTORE POP PUSH2 0x6D6 DUP4 DUP3 DUP2 MLOAD DUP2 LT PUSH2 0x6BB JUMPI INVALID JUMPDEST PUSH1 0x20 MUL PUSH1 0x20 ADD ADD MLOAD PUSH1 0xC0 ADD MLOAD DUP4 PUSH2 0x1E4A SWAP1 SWAP2 SWAP1 PUSH4 0xFFFFFFFF AND JUMP JUMPDEST SWAP2 POP PUSH1 0x1 ADD PUSH2 0x66E JUMP JUMPDEST POP PUSH1 0x60 DUP3 MLOAD PUSH1 0x40 MLOAD SWAP1 DUP1 DUP3 MSTORE DUP1 PUSH1 0x20 MUL PUSH1 0x20 ADD DUP3 ADD PUSH1 0x40 MSTORE DUP1 ISZERO PUSH2 0x70E JUMPI DUP2 PUSH1 0x20 ADD PUSH1 0x20 DUP3 MUL DUP1 CODESIZE DUP4 CODECOPY ADD SWAP1 POP JUMPDEST POP SWAP1 POP PUSH1 0x0 DUP1 JUMPDEST DUP5 MLOAD DUP2 LT ISZERO PUSH2 0x7A0 JUMPI PUSH2 0x758 DUP5 PUSH2 0x74C DUP8 DUP5 DUP2 MLOAD DUP2 LT PUSH2 0x731 JUMPI INVALID JUMPDEST PUSH1 0x20 MUL PUSH1 0x20 ADD ADD MLOAD PUSH1 0xC0 ADD MLOAD DUP14 PUSH2 0x2348 SWAP1 SWAP2 SWAP1 PUSH4 0xFFFFFFFF AND JUMP JUMPDEST SWAP1 PUSH4 0xFFFFFFFF PUSH2 0x2382 AND JUMP JUMPDEST DUP4 DUP3 DUP2 MLOAD DUP2 LT PUSH2 0x764 JUMPI INVALID JUMPDEST PUSH1 0x20 MUL PUSH1 0x20 ADD ADD DUP2 DUP2 MSTORE POP POP PUSH2 0x796 DUP4 DUP3 DUP2 MLOAD DUP2 LT PUSH2 0x77F JUMPI INVALID JUMPDEST PUSH1 0x20 MUL PUSH1 0x20 ADD ADD MLOAD DUP4 PUSH2 0x1E4A SWAP1 SWAP2 SWAP1 PUSH4 0xFFFFFFFF AND JUMP JUMPDEST SWAP2 POP PUSH1 0x1 ADD PUSH2 0x715 JUMP JUMPDEST POP DUP9 DUP2 LT ISZERO PUSH2 0x7FD JUMPI PUSH2 0x7DF PUSH2 0x7BC DUP11 DUP4 PUSH4 0xFFFFFFFF PUSH2 0x23C4 AND JUMP JUMPDEST DUP4 PUSH1 0x0 DUP2 MLOAD DUP2 LT PUSH2 0x7C9 JUMPI INVALID JUMPDEST PUSH1 0x20 MUL PUSH1 0x20 ADD ADD MLOAD PUSH2 0x1E4A SWAP1 SWAP2 SWAP1 PUSH4 0xFFFFFFFF AND JUMP JUMPDEST DUP3 PUSH1 0x0 DUP2 MLOAD DUP2 LT PUSH2 0x7EC JUMPI INVALID JUMPDEST PUSH1 0x20 MUL PUSH1 0x20 ADD ADD DUP2 DUP2 MSTORE POP POP PUSH2 0x84D JUMP JUMPDEST PUSH2 0x833 PUSH2 0x810 DUP3 DUP12 PUSH4 0xFFFFFFFF PUSH2 0x23C4 AND JUMP JUMPDEST DUP4 PUSH1 0x0 DUP2 MLOAD DUP2 LT PUSH2 0x81D JUMPI INVALID JUMPDEST PUSH1 0x20 MUL PUSH1 0x20 ADD ADD MLOAD PUSH2 0x23C4 SWAP1 SWAP2 SWAP1 PUSH4 0xFFFFFFFF AND JUMP JUMPDEST DUP3 PUSH1 0x0 DUP2 MLOAD DUP2 LT PUSH2 0x840 JUMPI INVALID JUMPDEST PUSH1 0x20 MUL PUSH1 0x20 ADD ADD DUP2 DUP2 MSTORE POP POP JUMPDEST DUP4 MLOAD PUSH1 0x40 MLOAD SWAP1 DUP1 DUP3 MSTORE DUP1 PUSH1 0x20 MUL PUSH1 0x20 ADD DUP3 ADD PUSH1 0x40 MSTORE DUP1 ISZERO PUSH2 0x888 JUMPI DUP2 PUSH1 0x20 ADD JUMPDEST PUSH2 0x875 PUSH2 0x27E4 JUMP JUMPDEST DUP2 MSTORE PUSH1 0x20 ADD SWAP1 PUSH1 0x1 SWAP1 SUB SWAP1 DUP2 PUSH2 0x86D JUMPI SWAP1 POP JUMPDEST POP SWAP7 POP PUSH1 0x0 JUMPDEST DUP5 MLOAD DUP2 LT ISZERO PUSH2 0x92C JUMPI PUSH1 0x40 MLOAD DUP1 PUSH1 0xC0 ADD PUSH1 0x40 MSTORE DUP1 DUP7 DUP4 DUP2 MLOAD DUP2 LT PUSH2 0x8AE JUMPI INVALID JUMPDEST PUSH1 0x20 MUL PUSH1 0x20 ADD ADD MLOAD PUSH1 0x0 ADD MLOAD PUSH1 0x1 PUSH1 0x1 PUSH1 0xA0 SHL SUB AND DUP2 MSTORE PUSH1 0x20 ADD DUP14 PUSH1 0x1 PUSH1 0x1 PUSH1 0xA0 SHL SUB AND DUP2 MSTORE PUSH1 0x20 ADD DUP13 PUSH1 0x1 PUSH1 0x1 PUSH1 0xA0 SHL SUB AND DUP2 MSTORE PUSH1 0x20 ADD DUP5 DUP4 DUP2 MLOAD DUP2 LT PUSH2 0x8F2 JUMPI INVALID JUMPDEST PUSH1 0x20 MUL PUSH1 0x20 ADD ADD MLOAD DUP2 MSTORE PUSH1 0x20 ADD PUSH1 0x0 NOT DUP2 MSTORE PUSH1 0x20 ADD PUSH1 0x0 NOT DUP2 MSTORE POP DUP9 DUP3 DUP2 MLOAD DUP2 LT PUSH2 0x919 JUMPI INVALID JUMPDEST PUSH1 0x20 SWAP1 DUP2 MUL SWAP2 SWAP1 SWAP2 ADD ADD MSTORE PUSH1 0x1 ADD PUSH2 0x88E JUMP JUMPDEST POP PUSH2 0x937 DUP3 DUP6 PUSH2 0x2406 JUMP JUMPDEST SWAP6 POP POP POP POP POP POP SWAP5 POP SWAP5 SWAP3 POP POP POP JUMP JUMPDEST PUSH1 0x2 SLOAD PUSH1 0x40 MLOAD PUSH4 0xBFDBFC43 PUSH1 0xE0 SHL DUP2 MSTORE PUSH1 0x60 SWAP2 PUSH1 0x0 SWAP2 DUP4 SWAP2 PUSH1 0x1 PUSH1 0x1 PUSH1 0xA0 SHL SUB AND SWAP1 PUSH4 0xBFDBFC43 SWAP1 PUSH2 0x981 SWAP1 DUP11 SWAP1 DUP11 SWAP1 DUP10 SWAP1 PUSH1 0x4 ADD PUSH2 0x3166 JUMP JUMPDEST PUSH1 0x0 PUSH1 0x40 MLOAD DUP1 DUP4 SUB DUP2 DUP7 DUP1 EXTCODESIZE ISZERO DUP1 ISZERO PUSH2 0x999 JUMPI PUSH1 0x0 DUP1 REVERT JUMPDEST POP GAS STATICCALL ISZERO DUP1 ISZERO PUSH2 0x9AD JUMPI RETURNDATASIZE PUSH1 0x0 DUP1 RETURNDATACOPY RETURNDATASIZE PUSH1 0x0 REVERT JUMPDEST POP POP POP POP PUSH1 0x40 MLOAD RETURNDATASIZE PUSH1 0x0 DUP3 RETURNDATACOPY PUSH1 0x1F RETURNDATASIZE SWAP1 DUP2 ADD PUSH1 0x1F NOT AND DUP3 ADD PUSH1 0x40 MSTORE PUSH2 0x9D5 SWAP2 SWAP1 DUP2 ADD SWAP1 PUSH2 0x2B93 JUMP JUMPDEST SWAP1 POP PUSH1 0x60 DUP2 MLOAD PUSH1 0x40 MLOAD SWAP1 DUP1 DUP3 MSTORE DUP1 PUSH1 0x20 MUL PUSH1 0x20 ADD DUP3 ADD PUSH1 0x40 MSTORE DUP1 ISZERO PUSH2 0xA14 JUMPI DUP2 PUSH1 0x20 ADD JUMPDEST PUSH2 0xA01 PUSH2 0x2835 JUMP JUMPDEST DUP2 MSTORE PUSH1 0x20 ADD SWAP1 PUSH1 0x1 SWAP1 SUB SWAP1 DUP2 PUSH2 0x9F9 JUMPI SWAP1 POP JUMPDEST POP SWAP1 POP PUSH1 0x0 DUP1 JUMPDEST DUP4 MLOAD DUP2 LT ISZERO PUSH2 0xA65 JUMPI PUSH2 0xA35 DUP11 DUP11 DUP7 DUP5 DUP2 MLOAD DUP2 LT PUSH2 0x688 JUMPI INVALID JUMPDEST DUP4 DUP3 DUP2 MLOAD DUP2 LT PUSH2 0xA41 JUMPI INVALID JUMPDEST PUSH1 0x20 MUL PUSH1 0x20 ADD ADD DUP2 SWAP1 MSTORE POP PUSH2 0xA5B DUP4 DUP3 DUP2 MLOAD DUP2 LT PUSH2 0x6BB JUMPI INVALID JUMPDEST SWAP2 POP PUSH1 0x1 ADD PUSH2 0xA1B JUMP JUMPDEST POP PUSH1 0x60 DUP3 MLOAD PUSH1 0x40 MLOAD SWAP1 DUP1 DUP3 MSTORE DUP1 PUSH1 0x20 MUL PUSH1 0x20 ADD DUP3 ADD PUSH1 0x40 MSTORE DUP1 ISZERO PUSH2 0xA93 JUMPI DUP2 PUSH1 0x20 ADD PUSH1 0x20 DUP3 MUL DUP1 CODESIZE DUP4 CODECOPY ADD SWAP1 POP JUMPDEST POP SWAP1 POP PUSH1 0x0 DUP1 JUMPDEST DUP5 MLOAD DUP2 LT ISZERO PUSH2 0xAE7 JUMPI PUSH2 0xAB6 DUP5 PUSH2 0x74C DUP8 DUP5 DUP2 MLOAD DUP2 LT PUSH2 0x731 JUMPI INVALID JUMPDEST DUP4 DUP3 DUP2 MLOAD DUP2 LT PUSH2 0xAC2 JUMPI INVALID JUMPDEST PUSH1 0x20 MUL PUSH1 0x20 ADD ADD DUP2 DUP2 MSTORE POP POP PUSH2 0xADD DUP4 DUP3 DUP2 MLOAD DUP2 LT PUSH2 0x77F JUMPI INVALID JUMPDEST SWAP2 POP PUSH1 0x1 ADD PUSH2 0xA9A JUMP JUMPDEST POP DUP9 DUP2 LT ISZERO PUSH2 0xB21 JUMPI PUSH2 0xB03 PUSH2 0x7BC DUP11 DUP4 PUSH4 0xFFFFFFFF PUSH2 0x23C4 AND JUMP JUMPDEST DUP3 PUSH1 0x0 DUP2 MLOAD DUP2 LT PUSH2 0xB10 JUMPI INVALID JUMPDEST PUSH1 0x20 MUL PUSH1 0x20 ADD ADD DUP2 DUP2 MSTORE POP POP PUSH2 0xB4E JUMP JUMPDEST PUSH2 0xB34 PUSH2 0x810 DUP3 DUP12 PUSH4 0xFFFFFFFF PUSH2 0x23C4 AND JUMP JUMPDEST DUP3 PUSH1 0x0 DUP2 MLOAD DUP2 LT PUSH2 0xB41 JUMPI INVALID JUMPDEST PUSH1 0x20 MUL PUSH1 0x20 ADD ADD DUP2 DUP2 MSTORE POP POP JUMPDEST DUP4 MLOAD PUSH1 0x40 MLOAD SWAP1 DUP1 DUP3 MSTORE DUP1 PUSH1 0x20 MUL PUSH1 0x20 ADD DUP3 ADD PUSH1 0x40 MSTORE DUP1 ISZERO PUSH2 0xB89 JUMPI DUP2 PUSH1 0x20 ADD JUMPDEST PUSH2 0xB76 PUSH2 0x27E4 JUMP JUMPDEST DUP2 MSTORE PUSH1 0x20 ADD SWAP1 PUSH1 0x1 SWAP1 SUB SWAP1 DUP2 PUSH2 0xB6E JUMPI SWAP1 POP JUMPDEST POP SWAP7 POP PUSH1 0x0 JUMPDEST DUP5 MLOAD DUP2 LT ISZERO PUSH2 0xC2C JUMPI PUSH1 0x40 MLOAD DUP1 PUSH1 0xC0 ADD PUSH1 0x40 MSTORE DUP1 DUP7 DUP4 DUP2 MLOAD DUP2 LT PUSH2 0xBAF JUMPI INVALID JUMPDEST PUSH1 0x20 MUL PUSH1 0x20 ADD ADD MLOAD PUSH1 0x0 ADD MLOAD PUSH1 0x1 PUSH1 0x1 PUSH1 0xA0 SHL SUB AND DUP2 MSTORE PUSH1 0x20 ADD DUP14 PUSH1 0x1 PUSH1 0x1 PUSH1 0xA0 SHL SUB AND DUP2 MSTORE PUSH1 0x20 ADD DUP13 PUSH1 0x1 PUSH1 0x1 PUSH1 0xA0 SHL SUB AND DUP2 MSTORE PUSH1 0x20 ADD DUP5 DUP4 DUP2 MLOAD DUP2 LT PUSH2 0xBF3 JUMPI INVALID JUMPDEST PUSH1 0x20 MUL PUSH1 0x20 ADD ADD MLOAD DUP2 MSTORE PUSH1 0x20 ADD PUSH1 0x0 DUP2 MSTORE PUSH1 0x20 ADD PUSH1 0x0 NOT DUP2 MSTORE POP DUP9 DUP3 DUP2 MLOAD DUP2 LT PUSH2 0xC19 JUMPI INVALID JUMPDEST PUSH1 0x20 SWAP1 DUP2 MUL SWAP2 SWAP1 SWAP2 ADD ADD MSTORE PUSH1 0x1 ADD PUSH2 0xB8F JUMP JUMPDEST POP PUSH2 0x937 DUP3 DUP6 PUSH2 0x255C JUMP JUMPDEST PUSH2 0xC3F PUSH2 0x1917 JUMP JUMPDEST PUSH2 0xC5B JUMPI PUSH1 0x40 MLOAD PUSH3 0x461BCD PUSH1 0xE5 SHL DUP2 MSTORE PUSH1 0x4 ADD PUSH2 0x568 SWAP1 PUSH2 0x3285 JUMP JUMPDEST PUSH1 0x0 DUP1 SLOAD PUSH1 0x40 MLOAD PUSH1 0x1 PUSH1 0x1 PUSH1 0xA0 SHL SUB SWAP1 SWAP2 AND SWAP1 PUSH32 0x8BE0079C531659141344CD1FD0A4F28419497F9722A3DAAFE3B4186F6B6457E0 SWAP1 DUP4 SWAP1 LOG3 PUSH1 0x0 DUP1 SLOAD PUSH1 0x1 PUSH1 0x1 PUSH1 0xA0 SHL SUB NOT AND SWAP1 SSTORE JUMP JUMPDEST PUSH1 0x0 PUSH2 0xCB1 DUP5 DUP4 PUSH2 0x1D28 JUMP JUMPDEST POP PUSH1 0x0 JUMPDEST DUP6 MLOAD DUP2 LT ISZERO PUSH2 0x547 JUMPI PUSH1 0x0 DUP7 DUP3 DUP2 MLOAD DUP2 LT PUSH2 0xCCC JUMPI INVALID JUMPDEST PUSH1 0x20 MUL PUSH1 0x20 ADD ADD MLOAD MLOAD PUSH1 0x1 EQ ISZERO PUSH2 0xF50 JUMPI PUSH2 0xCE5 PUSH2 0x27E4 JUMP JUMPDEST DUP8 DUP4 DUP2 MLOAD DUP2 LT PUSH2 0xCF1 JUMPI INVALID JUMPDEST PUSH1 0x20 MUL PUSH1 0x20 ADD ADD MLOAD PUSH1 0x0 DUP2 MLOAD DUP2 LT PUSH2 0xD05 JUMPI INVALID JUMPDEST PUSH1 0x20 SWAP1 DUP2 MUL SWAP2 SWAP1 SWAP2 ADD DUP2 ADD MLOAD SWAP1 DUP2 ADD MLOAD DUP2 MLOAD PUSH1 0x40 MLOAD PUSH4 0x6EB1769F PUSH1 0xE1 SHL DUP2 MSTORE SWAP3 SWAP4 POP SWAP1 SWAP2 PUSH1 0x0 SWAP1 PUSH1 0x1 PUSH1 0x1 PUSH1 0xA0 SHL SUB DUP5 AND SWAP1 PUSH4 0xDD62ED3E SWAP1 PUSH2 0xD4D SWAP1 ADDRESS SWAP1 DUP7 SWAP1 PUSH1 0x4 ADD PUSH2 0x3108 JUMP JUMPDEST PUSH1 0x20 PUSH1 0x40 MLOAD DUP1 DUP4 SUB DUP2 DUP7 DUP1 EXTCODESIZE ISZERO DUP1 ISZERO PUSH2 0xD65 JUMPI PUSH1 0x0 DUP1 REVERT JUMPDEST POP GAS STATICCALL ISZERO DUP1 ISZERO PUSH2 0xD79 JUMPI RETURNDATASIZE PUSH1 0x0 DUP1 RETURNDATACOPY RETURNDATASIZE PUSH1 0x0 REVERT JUMPDEST POP POP POP POP PUSH1 0x40 MLOAD RETURNDATASIZE PUSH1 0x1F NOT PUSH1 0x1F DUP3 ADD AND DUP3 ADD DUP1 PUSH1 0x40 MSTORE POP PUSH2 0xD9D SWAP2 SWAP1 DUP2 ADD SWAP1 PUSH2 0x2D87 JUMP JUMPDEST GT ISZERO PUSH2 0xE27 JUMPI DUP3 MLOAD PUSH1 0x40 MLOAD PUSH4 0x95EA7B3 PUSH1 0xE0 SHL DUP2 MSTORE PUSH1 0x1 PUSH1 0x1 PUSH1 0xA0 SHL SUB DUP5 AND SWAP2 PUSH4 0x95EA7B3 SWAP2 PUSH2 0xDD3 SWAP2 SWAP1 PUSH1 0x0 SWAP1 PUSH1 0x4 ADD PUSH2 0x3181 JUMP JUMPDEST PUSH1 0x20 PUSH1 0x40 MLOAD DUP1 DUP4 SUB DUP2 PUSH1 0x0 DUP8 DUP1 EXTCODESIZE ISZERO DUP1 ISZERO PUSH2 0xDED JUMPI PUSH1 0x0 DUP1 REVERT JUMPDEST POP GAS CALL ISZERO DUP1 ISZERO PUSH2 0xE01 JUMPI RETURNDATASIZE PUSH1 0x0 DUP1 RETURNDATACOPY RETURNDATASIZE PUSH1 0x0 REVERT JUMPDEST POP POP POP POP PUSH1 0x40 MLOAD RETURNDATASIZE PUSH1 0x1F NOT PUSH1 0x1F DUP3 ADD AND DUP3 ADD DUP1 PUSH1 0x40 MSTORE POP PUSH2 0xE25 SWAP2 SWAP1 DUP2 ADD SWAP1 PUSH2 0x2D23 JUMP JUMPDEST POP JUMPDEST DUP3 MLOAD PUSH1 0x80 DUP5 ADD MLOAD PUSH1 0x40 MLOAD PUSH4 0x95EA7B3 PUSH1 0xE0 SHL DUP2 MSTORE PUSH1 0x1 PUSH1 0x1 PUSH1 0xA0 SHL SUB DUP6 AND SWAP3 PUSH4 0x95EA7B3 SWAP3 PUSH2 0xE58 SWAP3 PUSH1 0x4 ADD PUSH2 0x319C JUMP JUMPDEST PUSH1 0x20 PUSH1 0x40 MLOAD DUP1 DUP4 SUB DUP2 PUSH1 0x0 DUP8 DUP1 EXTCODESIZE ISZERO DUP1 ISZERO PUSH2 0xE72 JUMPI PUSH1 0x0 DUP1 REVERT JUMPDEST POP GAS CALL ISZERO DUP1 ISZERO PUSH2 0xE86 JUMPI RETURNDATASIZE PUSH1 0x0 DUP1 RETURNDATACOPY RETURNDATASIZE PUSH1 0x0 REVERT JUMPDEST POP POP POP POP PUSH1 0x40 MLOAD RETURNDATASIZE PUSH1 0x1F NOT PUSH1 0x1F DUP3 ADD AND DUP3 ADD DUP1 PUSH1 0x40 MSTORE POP PUSH2 0xEAA SWAP2 SWAP1 DUP2 ADD SWAP1 PUSH2 0x2D23 JUMP JUMPDEST POP DUP1 PUSH1 0x1 PUSH1 0x1 PUSH1 0xA0 SHL SUB AND PUSH4 0x7C5E9EA4 DUP5 PUSH1 0x20 ADD MLOAD DUP6 PUSH1 0x80 ADD MLOAD DUP7 PUSH1 0x40 ADD MLOAD DUP8 PUSH1 0x60 ADD MLOAD DUP9 PUSH1 0xA0 ADD MLOAD PUSH1 0x40 MLOAD DUP7 PUSH4 0xFFFFFFFF AND PUSH1 0xE0 SHL DUP2 MSTORE PUSH1 0x4 ADD PUSH2 0xEF3 SWAP6 SWAP5 SWAP4 SWAP3 SWAP2 SWAP1 PUSH2 0x31AA JUMP JUMPDEST PUSH1 0x40 DUP1 MLOAD DUP1 DUP4 SUB DUP2 PUSH1 0x0 DUP8 DUP1 EXTCODESIZE ISZERO DUP1 ISZERO PUSH2 0xF0C JUMPI PUSH1 0x0 DUP1 REVERT JUMPDEST POP GAS CALL ISZERO DUP1 ISZERO PUSH2 0xF20 JUMPI RETURNDATASIZE PUSH1 0x0 DUP1 RETURNDATACOPY RETURNDATASIZE PUSH1 0x0 REVERT JUMPDEST POP POP POP POP PUSH1 0x40 MLOAD RETURNDATASIZE PUSH1 0x1F NOT PUSH1 0x1F DUP3 ADD AND DUP3 ADD DUP1 PUSH1 0x40 MSTORE POP PUSH2 0xF44 SWAP2 SWAP1 DUP2 ADD SWAP1 PUSH2 0x2DA5 JUMP JUMPDEST POP SWAP4 POP PUSH2 0x1617 SWAP3 POP POP POP JUMP JUMPDEST PUSH1 0x0 PUSH2 0xF5A PUSH2 0x27E4 JUMP JUMPDEST DUP9 DUP5 DUP2 MLOAD DUP2 LT PUSH2 0xF66 JUMPI INVALID JUMPDEST PUSH1 0x20 MUL PUSH1 0x20 ADD ADD MLOAD PUSH1 0x1 DUP2 MLOAD DUP2 LT PUSH2 0xF7A JUMPI INVALID JUMPDEST PUSH1 0x20 SWAP1 DUP2 MUL SWAP2 SWAP1 SWAP2 ADD DUP2 ADD MLOAD DUP1 MLOAD SWAP2 DUP2 ADD MLOAD PUSH1 0x40 MLOAD PUSH4 0xF8B2CB4F PUSH1 0xE0 SHL DUP2 MSTORE SWAP2 SWAP4 POP PUSH1 0x1 PUSH1 0x1 PUSH1 0xA0 SHL SUB DUP4 AND SWAP2 PUSH4 0xF8D6AED4 SWAP2 DUP4 SWAP2 PUSH4 0xF8B2CB4F SWAP2 PUSH2 0xFC1 SWAP2 PUSH1 0x4 ADD PUSH2 0x30EC JUMP JUMPDEST PUSH1 0x20 PUSH1 0x40 MLOAD DUP1 DUP4 SUB DUP2 DUP7 DUP1 EXTCODESIZE ISZERO DUP1 ISZERO PUSH2 0xFD9 JUMPI PUSH1 0x0 DUP1 REVERT JUMPDEST POP GAS STATICCALL ISZERO DUP1 ISZERO PUSH2 0xFED JUMPI RETURNDATASIZE PUSH1 0x0 DUP1 RETURNDATACOPY RETURNDATASIZE PUSH1 0x0 REVERT JUMPDEST POP POP POP POP PUSH1 0x40 MLOAD RETURNDATASIZE PUSH1 0x1F NOT PUSH1 0x1F DUP3 ADD AND DUP3 ADD DUP1 PUSH1 0x40 MSTORE POP PUSH2 0x1011 SWAP2 SWAP1 DUP2 ADD SWAP1 PUSH2 0x2D87 JUMP JUMPDEST PUSH1 0x20 DUP6 ADD MLOAD PUSH1 0x40 MLOAD PUSH4 0x4A46C673 PUSH1 0xE1 SHL DUP2 MSTORE PUSH1 0x1 PUSH1 0x1 PUSH1 0xA0 SHL SUB DUP7 AND SWAP2 PUSH4 0x948D8CE6 SWAP2 PUSH2 0x1041 SWAP2 SWAP1 PUSH1 0x4 ADD PUSH2 0x30EC JUMP JUMPDEST PUSH1 0x20 PUSH1 0x40 MLOAD DUP1 DUP4 SUB DUP2 DUP7 DUP1 EXTCODESIZE ISZERO DUP1 ISZERO PUSH2 0x1059 JUMPI PUSH1 0x0 DUP1 REVERT JUMPDEST POP GAS STATICCALL ISZERO DUP1 ISZERO PUSH2 0x106D JUMPI RETURNDATASIZE PUSH1 0x0 DUP1 RETURNDATACOPY RETURNDATASIZE PUSH1 0x0 REVERT JUMPDEST POP POP POP POP PUSH1 0x40 MLOAD RETURNDATASIZE PUSH1 0x1F NOT PUSH1 0x1F DUP3 ADD AND DUP3 ADD DUP1 PUSH1 0x40 MSTORE POP PUSH2 0x1091 SWAP2 SWAP1 DUP2 ADD SWAP1 PUSH2 0x2D87 JUMP JUMPDEST PUSH1 0x40 DUP1 DUP8 ADD MLOAD SWAP1 MLOAD PUSH4 0xF8B2CB4F PUSH1 0xE0 SHL DUP2 MSTORE PUSH1 0x1 PUSH1 0x1 PUSH1 0xA0 SHL SUB DUP8 AND SWAP2 PUSH4 0xF8B2CB4F SWAP2 PUSH2 0x10C1 SWAP2 SWAP1 PUSH1 0x4 ADD PUSH2 0x30EC JUMP JUMPDEST PUSH1 0x20 PUSH1 0x40 MLOAD DUP1 DUP4 SUB DUP2 DUP7 DUP1 EXTCODESIZE ISZERO DUP1 ISZERO PUSH2 0x10D9 JUMPI PUSH1 0x0 DUP1 REVERT JUMPDEST POP GAS STATICCALL ISZERO DUP1 ISZERO PUSH2 0x10ED JUMPI RETURNDATASIZE PUSH1 0x0 DUP1 RETURNDATACOPY RETURNDATASIZE PUSH1 0x0 REVERT JUMPDEST POP POP POP POP PUSH1 0x40 MLOAD RETURNDATASIZE PUSH1 0x1F NOT PUSH1 0x1F DUP3 ADD AND DUP3 ADD DUP1 PUSH1 0x40 MSTORE POP PUSH2 0x1111 SWAP2 SWAP1 DUP2 ADD SWAP1 PUSH2 0x2D87 JUMP JUMPDEST PUSH1 0x40 DUP1 DUP9 ADD MLOAD SWAP1 MLOAD PUSH4 0x4A46C673 PUSH1 0xE1 SHL DUP2 MSTORE PUSH1 0x1 PUSH1 0x1 PUSH1 0xA0 SHL SUB DUP9 AND SWAP2 PUSH4 0x948D8CE6 SWAP2 PUSH2 0x1141 SWAP2 SWAP1 PUSH1 0x4 ADD PUSH2 0x30EC JUMP JUMPDEST PUSH1 0x20 PUSH1 0x40 MLOAD DUP1 DUP4 SUB DUP2 DUP7 DUP1 EXTCODESIZE ISZERO DUP1 ISZERO PUSH2 0x1159 JUMPI PUSH1 0x0 DUP1 REVERT JUMPDEST POP GAS STATICCALL ISZERO DUP1 ISZERO PUSH2 0x116D JUMPI RETURNDATASIZE PUSH1 0x0 DUP1 RETURNDATACOPY RETURNDATASIZE PUSH1 0x0 REVERT JUMPDEST POP POP POP POP PUSH1 0x40 MLOAD RETURNDATASIZE PUSH1 0x1F NOT PUSH1 0x1F DUP3 ADD AND DUP3 ADD DUP1 PUSH1 0x40 MSTORE POP PUSH2 0x1191 SWAP2 SWAP1 DUP2 ADD SWAP1 PUSH2 0x2D87 JUMP JUMPDEST DUP8 PUSH1 0x60 ADD MLOAD DUP8 PUSH1 0x1 PUSH1 0x1 PUSH1 0xA0 SHL SUB AND PUSH4 0xD4CADF68 PUSH1 0x40 MLOAD DUP2 PUSH4 0xFFFFFFFF AND PUSH1 0xE0 SHL DUP2 MSTORE PUSH1 0x4 ADD PUSH1 0x20 PUSH1 0x40 MLOAD DUP1 DUP4 SUB DUP2 DUP7 DUP1 EXTCODESIZE ISZERO DUP1 ISZERO PUSH2 0x11CF JUMPI PUSH1 0x0 DUP1 REVERT JUMPDEST POP GAS STATICCALL ISZERO DUP1 ISZERO PUSH2 0x11E3 JUMPI RETURNDATASIZE PUSH1 0x0 DUP1 RETURNDATACOPY RETURNDATASIZE PUSH1 0x0 REVERT JUMPDEST POP POP POP POP PUSH1 0x40 MLOAD RETURNDATASIZE PUSH1 0x1F NOT PUSH1 0x1F DUP3 ADD AND DUP3 ADD DUP1 PUSH1 0x40 MSTORE POP PUSH2 0x1207 SWAP2 SWAP1 DUP2 ADD SWAP1 PUSH2 0x2D87 JUMP JUMPDEST PUSH1 0x40 MLOAD DUP8 PUSH4 0xFFFFFFFF AND PUSH1 0xE0 SHL DUP2 MSTORE PUSH1 0x4 ADD PUSH2 0x1228 SWAP7 SWAP6 SWAP5 SWAP4 SWAP3 SWAP2 SWAP1 PUSH2 0x32C3 JUMP JUMPDEST PUSH1 0x20 PUSH1 0x40 MLOAD DUP1 DUP4 SUB DUP2 DUP7 DUP1 EXTCODESIZE ISZERO DUP1 ISZERO PUSH2 0x1240 JUMPI PUSH1 0x0 DUP1 REVERT JUMPDEST POP GAS STATICCALL ISZERO DUP1 ISZERO PUSH2 0x1254 JUMPI RETURNDATASIZE PUSH1 0x0 DUP1 RETURNDATACOPY RETURNDATASIZE PUSH1 0x0 REVERT JUMPDEST POP POP POP POP PUSH1 0x40 MLOAD RETURNDATASIZE PUSH1 0x1F NOT PUSH1 0x1F DUP3 ADD AND DUP3 ADD DUP1 PUSH1 0x40 MSTORE POP PUSH2 0x1278 SWAP2 SWAP1 DUP2 ADD SWAP1 PUSH2 0x2D87 JUMP JUMPDEST SWAP3 POP PUSH2 0x1282 PUSH2 0x27E4 JUMP JUMPDEST DUP11 DUP7 DUP2 MLOAD DUP2 LT PUSH2 0x128E JUMPI INVALID JUMPDEST PUSH1 0x20 MUL PUSH1 0x20 ADD ADD MLOAD PUSH1 0x0 DUP2 MLOAD DUP2 LT PUSH2 0x12A2 JUMPI INVALID JUMPDEST PUSH1 0x20 SWAP1 DUP2 MUL SWAP2 SWAP1 SWAP2 ADD DUP2 ADD MLOAD SWAP1 DUP2 ADD MLOAD DUP2 MLOAD PUSH1 0x40 MLOAD PUSH4 0x6EB1769F PUSH1 0xE1 SHL DUP2 MSTORE SWAP3 SWAP4 POP SWAP1 SWAP2 PUSH1 0x0 NOT SWAP1 PUSH1 0x1 PUSH1 0x1 PUSH1 0xA0 SHL SUB DUP5 AND SWAP1 PUSH4 0xDD62ED3E SWAP1 PUSH2 0x12EB SWAP1 ADDRESS SWAP1 DUP7 SWAP1 PUSH1 0x4 ADD PUSH2 0x3108 JUMP JUMPDEST PUSH1 0x20 PUSH1 0x40 MLOAD DUP1 DUP4 SUB DUP2 DUP7 DUP1 EXTCODESIZE ISZERO DUP1 ISZERO PUSH2 0x1303 JUMPI PUSH1 0x0 DUP1 REVERT JUMPDEST POP GAS STATICCALL ISZERO DUP1 ISZERO PUSH2 0x1317 JUMPI RETURNDATASIZE PUSH1 0x0 DUP1 RETURNDATACOPY RETURNDATASIZE PUSH1 0x0 REVERT JUMPDEST POP POP POP POP PUSH1 0x40 MLOAD RETURNDATASIZE PUSH1 0x1F NOT PUSH1 0x1F DUP3 ADD AND DUP3 ADD DUP1 PUSH1 0x40 MSTORE POP PUSH2 0x133B SWAP2 SWAP1 DUP2 ADD SWAP1 PUSH2 0x2D87 JUMP JUMPDEST LT ISZERO PUSH2 0x13C6 JUMPI DUP3 MLOAD PUSH1 0x40 MLOAD PUSH4 0x95EA7B3 PUSH1 0xE0 SHL DUP2 MSTORE PUSH1 0x1 PUSH1 0x1 PUSH1 0xA0 SHL SUB DUP5 AND SWAP2 PUSH4 0x95EA7B3 SWAP2 PUSH2 0x1372 SWAP2 SWAP1 PUSH1 0x0 NOT SWAP1 PUSH1 0x4 ADD PUSH2 0x319C JUMP JUMPDEST PUSH1 0x20 PUSH1 0x40 MLOAD DUP1 DUP4 SUB DUP2 PUSH1 0x0 DUP8 DUP1 EXTCODESIZE ISZERO DUP1 ISZERO PUSH2 0x138C JUMPI PUSH1 0x0 DUP1 REVERT JUMPDEST POP GAS CALL ISZERO DUP1 ISZERO PUSH2 0x13A0 JUMPI RETURNDATASIZE PUSH1 0x0 DUP1 RETURNDATACOPY RETURNDATASIZE PUSH1 0x0 REVERT JUMPDEST POP POP POP POP PUSH1 0x40 MLOAD RETURNDATASIZE PUSH1 0x1F NOT PUSH1 0x1F DUP3 ADD AND DUP3 ADD DUP1 PUSH1 0x40 MSTORE POP PUSH2 0x13C4 SWAP2 SWAP1 DUP2 ADD SWAP1 PUSH2 0x2D23 JUMP JUMPDEST POP JUMPDEST DUP1 PUSH1 0x1 PUSH1 0x1 PUSH1 0xA0 SHL SUB AND PUSH4 0x7C5E9EA4 DUP5 PUSH1 0x20 ADD MLOAD DUP6 PUSH1 0x80 ADD MLOAD DUP7 PUSH1 0x40 ADD MLOAD DUP11 DUP9 PUSH1 0xA0 ADD MLOAD PUSH1 0x40 MLOAD DUP7 PUSH4 0xFFFFFFFF AND PUSH1 0xE0 SHL DUP2 MSTORE PUSH1 0x4 ADD PUSH2 0x140A SWAP6 SWAP5 SWAP4 SWAP3 SWAP2 SWAP1 PUSH2 0x31AA JUMP JUMPDEST PUSH1 0x40 DUP1 MLOAD DUP1 DUP4 SUB DUP2 PUSH1 0x0 DUP8 DUP1 EXTCODESIZE ISZERO DUP1 ISZERO PUSH2 0x1423 JUMPI PUSH1 0x0 DUP1 REVERT JUMPDEST POP GAS CALL ISZERO DUP1 ISZERO PUSH2 0x1437 JUMPI RETURNDATASIZE PUSH1 0x0 DUP1 RETURNDATACOPY RETURNDATASIZE PUSH1 0x0 REVERT JUMPDEST POP POP POP POP PUSH1 0x40 MLOAD RETURNDATASIZE PUSH1 0x1F NOT PUSH1 0x1F DUP3 ADD AND DUP3 ADD DUP1 PUSH1 0x40 MSTORE POP PUSH2 0x145B SWAP2 SWAP1 DUP2 ADD SWAP1 PUSH2 0x2DA5 JUMP JUMPDEST POP PUSH1 0x20 DUP7 ADD MLOAD DUP7 MLOAD PUSH1 0x40 MLOAD PUSH4 0x6EB1769F PUSH1 0xE1 SHL DUP2 MSTORE SWAP3 SWAP10 POP SWAP1 SWAP2 PUSH1 0x0 NOT SWAP2 PUSH1 0x1 PUSH1 0x1 PUSH1 0xA0 SHL SUB DUP5 AND SWAP2 PUSH4 0xDD62ED3E SWAP2 PUSH2 0x1499 SWAP2 ADDRESS SWAP2 SWAP1 PUSH1 0x4 ADD PUSH2 0x3108 JUMP JUMPDEST PUSH1 0x20 PUSH1 0x40 MLOAD DUP1 DUP4 SUB DUP2 DUP7 DUP1 EXTCODESIZE ISZERO DUP1 ISZERO PUSH2 0x14B1 JUMPI PUSH1 0x0 DUP1 REVERT JUMPDEST POP GAS STATICCALL ISZERO DUP1 ISZERO PUSH2 0x14C5 JUMPI RETURNDATASIZE PUSH1 0x0 DUP1 RETURNDATACOPY RETURNDATASIZE PUSH1 0x0 REVERT JUMPDEST POP POP POP POP PUSH1 0x40 MLOAD RETURNDATASIZE PUSH1 0x1F NOT PUSH1 0x1F DUP3 ADD AND DUP3 ADD DUP1 PUSH1 0x40 MSTORE POP PUSH2 0x14E9 SWAP2 SWAP1 DUP2 ADD SWAP1 PUSH2 0x2D87 JUMP JUMPDEST LT ISZERO PUSH2 0x1574 JUMPI DUP6 MLOAD PUSH1 0x40 MLOAD PUSH4 0x95EA7B3 PUSH1 0xE0 SHL DUP2 MSTORE PUSH1 0x1 PUSH1 0x1 PUSH1 0xA0 SHL SUB DUP4 AND SWAP2 PUSH4 0x95EA7B3 SWAP2 PUSH2 0x1520 SWAP2 SWAP1 PUSH1 0x0 NOT SWAP1 PUSH1 0x4 ADD PUSH2 0x319C JUMP JUMPDEST PUSH1 0x20 PUSH1 0x40 MLOAD DUP1 DUP4 SUB DUP2 PUSH1 0x0 DUP8 DUP1 EXTCODESIZE ISZERO DUP1 ISZERO PUSH2 0x153A JUMPI PUSH1 0x0 DUP1 REVERT JUMPDEST POP GAS CALL ISZERO DUP1 ISZERO PUSH2 0x154E JUMPI RETURNDATASIZE PUSH1 0x0 DUP1 RETURNDATACOPY RETURNDATASIZE PUSH1 0x0 REVERT JUMPDEST POP POP POP POP PUSH1 0x40 MLOAD RETURNDATASIZE PUSH1 0x1F NOT PUSH1 0x1F DUP3 ADD AND DUP3 ADD DUP1 PUSH1 0x40 MSTORE POP PUSH2 0x1572 SWAP2 SWAP1 DUP2 ADD SWAP1 PUSH2 0x2D23 JUMP JUMPDEST POP JUMPDEST DUP5 PUSH1 0x1 PUSH1 0x1 PUSH1 0xA0 SHL SUB AND PUSH4 0x7C5E9EA4 DUP8 PUSH1 0x20 ADD MLOAD DUP9 PUSH1 0x80 ADD MLOAD DUP10 PUSH1 0x40 ADD MLOAD DUP11 PUSH1 0x60 ADD MLOAD DUP12 PUSH1 0xA0 ADD MLOAD PUSH1 0x40 MLOAD DUP7 PUSH4 0xFFFFFFFF AND PUSH1 0xE0 SHL DUP2 MSTORE PUSH1 0x4 ADD PUSH2 0x15BC SWAP6 SWAP5 SWAP4 SWAP3 SWAP2 SWAP1 PUSH2 0x31AA JUMP JUMPDEST PUSH1 0x40 DUP1 MLOAD DUP1 DUP4 SUB DUP2 PUSH1 0x0 DUP8 DUP1 EXTCODESIZE ISZERO DUP1 ISZERO PUSH2 0x15D5 JUMPI PUSH1 0x0 DUP1 REVERT JUMPDEST POP GAS CALL ISZERO DUP1 ISZERO PUSH2 0x15E9 JUMPI RETURNDATASIZE PUSH1 0x0 DUP1 RETURNDATACOPY RETURNDATASIZE PUSH1 0x0 REVERT JUMPDEST POP POP POP POP PUSH1 0x40 MLOAD RETURNDATASIZE PUSH1 0x1F NOT PUSH1 0x1F DUP3 ADD AND DUP3 ADD DUP1 PUSH1 0x40 MSTORE POP PUSH2 0x160D SWAP2 SWAP1 DUP2 ADD SWAP1 PUSH2 0x2DA5 JUMP JUMPDEST POP POP POP POP POP POP POP POP POP JUMPDEST PUSH2 0x1627 DUP2 DUP5 PUSH4 0xFFFFFFFF PUSH2 0x1E4A AND JUMP JUMPDEST SWAP3 POP POP PUSH1 0x1 ADD PUSH2 0xCB5 JUMP JUMPDEST PUSH1 0x0 PUSH2 0x163E DUP6 DUP5 PUSH2 0x1D28 JUMP JUMPDEST POP PUSH1 0x0 JUMPDEST DUP7 MLOAD DUP2 LT ISZERO PUSH2 0x18C5 JUMPI PUSH2 0x1653 PUSH2 0x27E4 JUMP JUMPDEST DUP8 DUP3 DUP2 MLOAD DUP2 LT PUSH2 0x165F JUMPI INVALID JUMPDEST PUSH1 0x20 SWAP1 DUP2 MUL SWAP2 SWAP1 SWAP2 ADD DUP2 ADD MLOAD SWAP1 DUP2 ADD MLOAD DUP2 MLOAD PUSH1 0x40 MLOAD PUSH4 0x6EB1769F PUSH1 0xE1 SHL DUP2 MSTORE SWAP3 SWAP4 POP SWAP1 SWAP2 PUSH1 0x0 SWAP1 PUSH1 0x1 PUSH1 0x1 PUSH1 0xA0 SHL SUB DUP5 AND SWAP1 PUSH4 0xDD62ED3E SWAP1 PUSH2 0x16A7 SWAP1 ADDRESS SWAP1 DUP7 SWAP1 PUSH1 0x4 ADD PUSH2 0x3108 JUMP JUMPDEST PUSH1 0x20 PUSH1 0x40 MLOAD DUP1 DUP4 SUB DUP2 DUP7 DUP1 EXTCODESIZE ISZERO DUP1 ISZERO PUSH2 0x16BF JUMPI PUSH1 0x0 DUP1 REVERT JUMPDEST POP GAS STATICCALL ISZERO DUP1 ISZERO PUSH2 0x16D3 JUMPI RETURNDATASIZE PUSH1 0x0 DUP1 RETURNDATACOPY RETURNDATASIZE PUSH1 0x0 REVERT JUMPDEST POP POP POP POP PUSH1 0x40 MLOAD RETURNDATASIZE PUSH1 0x1F NOT PUSH1 0x1F DUP3 ADD AND DUP3 ADD DUP1 PUSH1 0x40 MSTORE POP PUSH2 0x16F7 SWAP2 SWAP1 DUP2 ADD SWAP1 PUSH2 0x2D87 JUMP JUMPDEST GT ISZERO PUSH2 0x1781 JUMPI DUP3 MLOAD PUSH1 0x40 MLOAD PUSH4 0x95EA7B3 PUSH1 0xE0 SHL DUP2 MSTORE PUSH1 0x1 PUSH1 0x1 PUSH1 0xA0 SHL SUB DUP5 AND SWAP2 PUSH4 0x95EA7B3 SWAP2 PUSH2 0x172D SWAP2 SWAP1 PUSH1 0x0 SWAP1 PUSH1 0x4 ADD PUSH2 0x3181 JUMP JUMPDEST PUSH1 0x20 PUSH1 0x40 MLOAD DUP1 DUP4 SUB DUP2 PUSH1 0x0 DUP8 DUP1 EXTCODESIZE ISZERO DUP1 ISZERO PUSH2 0x1747 JUMPI PUSH1 0x0 DUP1 REVERT JUMPDEST POP GAS CALL ISZERO DUP1 ISZERO PUSH2 0x175B JUMPI RETURNDATASIZE PUSH1 0x0 DUP1 RETURNDATACOPY RETURNDATASIZE PUSH1 0x0 REVERT JUMPDEST POP POP POP POP PUSH1 0x40 MLOAD RETURNDATASIZE PUSH1 0x1F NOT PUSH1 0x1F DUP3 ADD AND DUP3 ADD DUP1 PUSH1 0x40 MSTORE POP PUSH2 0x177F SWAP2 SWAP1 DUP2 ADD SWAP1 PUSH2 0x2D23 JUMP JUMPDEST POP JUMPDEST DUP3 MLOAD PUSH1 0x60 DUP5 ADD MLOAD PUSH1 0x40 MLOAD PUSH4 0x95EA7B3 PUSH1 0xE0 SHL DUP2 MSTORE PUSH1 0x1 PUSH1 0x1 PUSH1 0xA0 SHL SUB DUP6 AND SWAP3 PUSH4 0x95EA7B3 SWAP3 PUSH2 0x17B2 SWAP3 PUSH1 0x4 ADD PUSH2 0x319C JUMP JUMPDEST PUSH1 0x20 PUSH1 0x40 MLOAD DUP1 DUP4 SUB DUP2 PUSH1 0x0 DUP8 DUP1 EXTCODESIZE ISZERO DUP1 ISZERO PUSH2 0x17CC JUMPI PUSH1 0x0 DUP1 REVERT JUMPDEST POP GAS CALL ISZERO DUP1 ISZERO PUSH2 0x17E0 JUMPI RETURNDATASIZE PUSH1 0x0 DUP1 RETURNDATACOPY RETURNDATASIZE PUSH1 0x0 REVERT JUMPDEST POP POP POP POP PUSH1 0x40 MLOAD RETURNDATASIZE PUSH1 0x1F NOT PUSH1 0x1F DUP3 ADD AND DUP3 ADD DUP1 PUSH1 0x40 MSTORE POP PUSH2 0x1804 SWAP2 SWAP1 DUP2 ADD SWAP1 PUSH2 0x2D23 JUMP JUMPDEST POP PUSH1 0x20 DUP4 ADD MLOAD PUSH1 0x60 DUP5 ADD MLOAD PUSH1 0x40 DUP1 DUP7 ADD MLOAD PUSH1 0x80 DUP8 ADD MLOAD PUSH1 0xA0 DUP9 ADD MLOAD SWAP3 MLOAD PUSH4 0x8201AA3F PUSH1 0xE0 SHL DUP2 MSTORE PUSH1 0x0 SWAP6 PUSH1 0x1 PUSH1 0x1 PUSH1 0xA0 SHL SUB DUP9 AND SWAP6 PUSH4 0x8201AA3F SWAP6 PUSH2 0x184F SWAP6 SWAP3 SWAP5 SWAP2 SWAP4 PUSH1 0x4 ADD PUSH2 0x31AA JUMP JUMPDEST PUSH1 0x40 DUP1 MLOAD DUP1 DUP4 SUB DUP2 PUSH1 0x0 DUP8 DUP1 EXTCODESIZE ISZERO DUP1 ISZERO PUSH2 0x1868 JUMPI PUSH1 0x0 DUP1 REVERT JUMPDEST POP GAS CALL ISZERO DUP1 ISZERO PUSH2 0x187C JUMPI RETURNDATASIZE PUSH1 0x0 DUP1 RETURNDATACOPY RETURNDATASIZE PUSH1 0x0 REVERT JUMPDEST POP POP POP POP PUSH1 0x40 MLOAD RETURNDATASIZE PUSH1 0x1F NOT PUSH1 0x1F DUP3 ADD AND DUP3 ADD DUP1 PUSH1 0x40 MSTORE POP PUSH2 0x18A0 SWAP2 SWAP1 DUP2 ADD SWAP1 PUSH2 0x2DA5 JUMP JUMPDEST POP SWAP1 POP PUSH2 0x18B3 DUP2 DUP8 PUSH4 0xFFFFFFFF PUSH2 0x1E4A AND JUMP JUMPDEST SWAP6 POP POP PUSH1 0x1 SWAP1 SWAP4 ADD SWAP3 POP PUSH2 0x1642 SWAP2 POP POP JUMP JUMPDEST POP DUP2 DUP2 LT ISZERO PUSH2 0x18E6 JUMPI PUSH1 0x40 MLOAD PUSH3 0x461BCD PUSH1 0xE5 SHL DUP2 MSTORE PUSH1 0x4 ADD PUSH2 0x568 SWAP1 PUSH2 0x3255 JUMP JUMPDEST PUSH2 0x18F0 DUP5 DUP3 PUSH2 0x1F39 JUMP JUMPDEST POP PUSH2 0x18FE DUP6 PUSH2 0x57E DUP8 PUSH2 0x1E76 JUMP JUMPDEST POP SWAP6 SWAP5 POP POP POP POP POP JUMP JUMPDEST PUSH1 0x0 SLOAD PUSH1 0x1 PUSH1 0x1 PUSH1 0xA0 SHL SUB AND SWAP1 JUMP JUMPDEST PUSH1 0x0 DUP1 SLOAD PUSH1 0x1 PUSH1 0x1 PUSH1 0xA0 SHL SUB AND PUSH2 0x192C PUSH2 0x26AB JUMP JUMPDEST PUSH1 0x1 PUSH1 0x1 PUSH1 0xA0 SHL SUB AND EQ SWAP1 POP SWAP1 JUMP JUMPDEST PUSH2 0x1943 PUSH2 0x1917 JUMP JUMPDEST PUSH2 0x195F JUMPI PUSH1 0x40 MLOAD PUSH3 0x461BCD PUSH1 0xE5 SHL DUP2 MSTORE PUSH1 0x4 ADD PUSH2 0x568 SWAP1 PUSH2 0x3285 JUMP JUMPDEST PUSH1 0x2 DUP1 SLOAD PUSH1 0x1 PUSH1 0x1 PUSH1 0xA0 SHL SUB NOT AND PUSH1 0x1 PUSH1 0x1 PUSH1 0xA0 SHL SUB SWAP3 SWAP1 SWAP3 AND SWAP2 SWAP1 SWAP2 OR SWAP1 SSTORE JUMP JUMPDEST PUSH1 0x0 PUSH1 0x60 PUSH2 0x198E DUP8 PUSH2 0x1D02 JUMP JUMPDEST ISZERO PUSH2 0x19B3 JUMPI PUSH1 0x1 SLOAD PUSH2 0x19AB SWAP1 PUSH1 0x1 PUSH1 0x1 PUSH1 0xA0 SHL SUB AND DUP8 DUP8 DUP7 PUSH2 0x59A JUMP JUMPDEST POP SWAP1 POP PUSH2 0x19EA JUMP JUMPDEST PUSH2 0x19BC DUP7 PUSH2 0x1D02 JUMP JUMPDEST ISZERO PUSH2 0x19DA JUMPI PUSH1 0x1 SLOAD PUSH2 0x19AB SWAP1 DUP9 SWAP1 PUSH1 0x1 PUSH1 0x1 PUSH1 0xA0 SHL SUB AND DUP8 DUP7 PUSH2 0x59A JUMP JUMPDEST PUSH2 0x19E6 DUP8 DUP8 DUP8 DUP7 PUSH2 0x59A JUMP JUMPDEST POP SWAP1 POP JUMPDEST PUSH2 0x2A9 DUP2 DUP9 DUP9 DUP8 PUSH2 0x2B4 JUMP JUMPDEST PUSH1 0x0 PUSH2 0x1A02 DUP6 DUP5 PUSH2 0x1D28 JUMP JUMPDEST POP PUSH1 0x0 JUMPDEST DUP7 MLOAD DUP2 LT ISZERO PUSH2 0x18C5 JUMPI PUSH1 0x0 DUP1 JUMPDEST DUP9 DUP4 DUP2 MLOAD DUP2 LT PUSH2 0x1A1F JUMPI INVALID JUMPDEST PUSH1 0x20 MUL PUSH1 0x20 ADD ADD MLOAD MLOAD DUP2 LT ISZERO PUSH2 0x1CB6 JUMPI PUSH2 0x1A37 PUSH2 0x27E4 JUMP JUMPDEST DUP10 DUP5 DUP2 MLOAD DUP2 LT PUSH2 0x1A43 JUMPI INVALID JUMPDEST PUSH1 0x20 MUL PUSH1 0x20 ADD ADD MLOAD DUP3 DUP2 MLOAD DUP2 LT PUSH2 0x1A56 JUMPI INVALID JUMPDEST PUSH1 0x20 MUL PUSH1 0x20 ADD ADD MLOAD SWAP1 POP PUSH1 0x0 DUP2 PUSH1 0x20 ADD MLOAD SWAP1 POP DUP3 PUSH1 0x1 EQ ISZERO PUSH2 0x1A7A JUMPI PUSH1 0x60 DUP3 ADD DUP5 SWAP1 MSTORE JUMPDEST DUP2 MLOAD PUSH1 0x40 MLOAD PUSH4 0x6EB1769F PUSH1 0xE1 SHL DUP2 MSTORE PUSH1 0x0 SWAP1 PUSH1 0x1 PUSH1 0x1 PUSH1 0xA0 SHL SUB DUP5 AND SWAP1 PUSH4 0xDD62ED3E SWAP1 PUSH2 0x1AAD SWAP1 ADDRESS SWAP1 DUP7 SWAP1 PUSH1 0x4 ADD PUSH2 0x3108 JUMP JUMPDEST PUSH1 0x20 PUSH1 0x40 MLOAD DUP1 DUP4 SUB DUP2 DUP7 DUP1 EXTCODESIZE ISZERO DUP1 ISZERO PUSH2 0x1AC5 JUMPI PUSH1 0x0 DUP1 REVERT JUMPDEST POP GAS STATICCALL ISZERO DUP1 ISZERO PUSH2 0x1AD9 JUMPI RETURNDATASIZE PUSH1 0x0 DUP1 RETURNDATACOPY RETURNDATASIZE PUSH1 0x0 REVERT JUMPDEST POP POP POP POP PUSH1 0x40 MLOAD RETURNDATASIZE PUSH1 0x1F NOT PUSH1 0x1F DUP3 ADD AND DUP3 ADD DUP1 PUSH1 0x40 MSTORE POP PUSH2 0x1AFD SWAP2 SWAP1 DUP2 ADD SWAP1 PUSH2 0x2D87 JUMP JUMPDEST GT ISZERO PUSH2 0x1B87 JUMPI DUP3 MLOAD PUSH1 0x40 MLOAD PUSH4 0x95EA7B3 PUSH1 0xE0 SHL DUP2 MSTORE PUSH1 0x1 PUSH1 0x1 PUSH1 0xA0 SHL SUB DUP5 AND SWAP2 PUSH4 0x95EA7B3 SWAP2 PUSH2 0x1B33 SWAP2 SWAP1 PUSH1 0x0 SWAP1 PUSH1 0x4 ADD PUSH2 0x3181 JUMP JUMPDEST PUSH1 0x20 PUSH1 0x40 MLOAD DUP1 DUP4 SUB DUP2 PUSH1 0x0 DUP8 DUP1 EXTCODESIZE ISZERO DUP1 ISZERO PUSH2 0x1B4D JUMPI PUSH1 0x0 DUP1 REVERT JUMPDEST POP GAS CALL ISZERO DUP1 ISZERO PUSH2 0x1B61 JUMPI RETURNDATASIZE PUSH1 0x0 DUP1 RETURNDATACOPY RETURNDATASIZE PUSH1 0x0 REVERT JUMPDEST POP POP POP POP PUSH1 0x40 MLOAD RETURNDATASIZE PUSH1 0x1F NOT PUSH1 0x1F DUP3 ADD AND DUP3 ADD DUP1 PUSH1 0x40 MSTORE POP PUSH2 0x1B85 SWAP2 SWAP1 DUP2 ADD SWAP1 PUSH2 0x2D23 JUMP JUMPDEST POP JUMPDEST DUP3 MLOAD PUSH1 0x60 DUP5 ADD MLOAD PUSH1 0x40 MLOAD PUSH4 0x95EA7B3 PUSH1 0xE0 SHL DUP2 MSTORE PUSH1 0x1 PUSH1 0x1 PUSH1 0xA0 SHL SUB DUP6 AND SWAP3 PUSH4 0x95EA7B3 SWAP3 PUSH2 0x1BB8 SWAP3 PUSH1 0x4 ADD PUSH2 0x319C JUMP JUMPDEST PUSH1 0x20 PUSH1 0x40 MLOAD DUP1 DUP4 SUB DUP2 PUSH1 0x0 DUP8 DUP1 EXTCODESIZE ISZERO DUP1 ISZERO PUSH2 0x1BD2 JUMPI PUSH1 0x0 DUP1 REVERT JUMPDEST POP GAS CALL ISZERO DUP1 ISZERO PUSH2 0x1BE6 JUMPI RETURNDATASIZE PUSH1 0x0 DUP1 RETURNDATACOPY RETURNDATASIZE PUSH1 0x0 REVERT JUMPDEST POP POP POP POP PUSH1 0x40 MLOAD RETURNDATASIZE PUSH1 0x1F NOT PUSH1 0x1F DUP3 ADD AND DUP3 ADD DUP1 PUSH1 0x40 MSTORE POP PUSH2 0x1C0A SWAP2 SWAP1 DUP2 ADD SWAP1 PUSH2 0x2D23 JUMP JUMPDEST POP DUP1 PUSH1 0x1 PUSH1 0x1 PUSH1 0xA0 SHL SUB AND PUSH4 0x8201AA3F DUP5 PUSH1 0x20 ADD MLOAD DUP6 PUSH1 0x60 ADD MLOAD DUP7 PUSH1 0x40 ADD MLOAD DUP8 PUSH1 0x80 ADD MLOAD DUP9 PUSH1 0xA0 ADD MLOAD PUSH1 0x40 MLOAD DUP7 PUSH4 0xFFFFFFFF AND PUSH1 0xE0 SHL DUP2 MSTORE PUSH1 0x4 ADD PUSH2 0x1C53 SWAP6 SWAP5 SWAP4 SWAP3 SWAP2 SWAP1 PUSH2 0x31AA JUMP JUMPDEST PUSH1 0x40 DUP1 MLOAD DUP1 DUP4 SUB DUP2 PUSH1 0x0 DUP8 DUP1 EXTCODESIZE ISZERO DUP1 ISZERO PUSH2 0x1C6C JUMPI PUSH1 0x0 DUP1 REVERT JUMPDEST POP GAS CALL ISZERO DUP1 ISZERO PUSH2 0x1C80 JUMPI RETURNDATASIZE PUSH1 0x0 DUP1 RETURNDATACOPY RETURNDATASIZE PUSH1 0x0 REVERT JUMPDEST POP POP POP POP PUSH1 0x40 MLOAD RETURNDATASIZE PUSH1 0x1F NOT PUSH1 0x1F DUP3 ADD AND DUP3 ADD DUP1 PUSH1 0x40 MSTORE POP PUSH2 0x1CA4 SWAP2 SWAP1 DUP2 ADD SWAP1 PUSH2 0x2DA5 JUMP JUMPDEST POP SWAP5 POP POP PUSH1 0x1 SWAP1 SWAP3 ADD SWAP2 POP PUSH2 0x1A13 SWAP1 POP JUMP JUMPDEST POP PUSH2 0x1CC7 DUP2 DUP5 PUSH4 0xFFFFFFFF PUSH2 0x1E4A AND JUMP JUMPDEST SWAP3 POP POP PUSH1 0x1 ADD PUSH2 0x1A06 JUMP JUMPDEST PUSH2 0x1CDA PUSH2 0x1917 JUMP JUMPDEST PUSH2 0x1CF6 JUMPI PUSH1 0x40 MLOAD PUSH3 0x461BCD PUSH1 0xE5 SHL DUP2 MSTORE PUSH1 0x4 ADD PUSH2 0x568 SWAP1 PUSH2 0x3285 JUMP JUMPDEST PUSH2 0x1CFF DUP2 PUSH2 0x26AF JUMP JUMPDEST POP JUMP JUMPDEST PUSH1 0x1 PUSH1 0x1 PUSH1 0xA0 SHL SUB DUP2 AND PUSH20 0xEEEEEEEEEEEEEEEEEEEEEEEEEEEEEEEEEEEEEEEE EQ JUMPDEST SWAP2 SWAP1 POP JUMP JUMPDEST PUSH1 0x0 PUSH2 0x1D33 DUP4 PUSH2 0x1D02 JUMP JUMPDEST ISZERO PUSH2 0x1DA6 JUMPI PUSH1 0x1 PUSH1 0x0 SWAP1 SLOAD SWAP1 PUSH2 0x100 EXP SWAP1 DIV PUSH1 0x1 PUSH1 0x1 PUSH1 0xA0 SHL SUB AND PUSH1 0x1 PUSH1 0x1 PUSH1 0xA0 SHL SUB AND PUSH4 0xD0E30DB0 CALLVALUE PUSH1 0x40 MLOAD DUP3 PUSH4 0xFFFFFFFF AND PUSH1 0xE0 SHL DUP2 MSTORE PUSH1 0x4 ADD PUSH1 0x0 PUSH1 0x40 MLOAD DUP1 DUP4 SUB DUP2 DUP6 DUP9 DUP1 EXTCODESIZE ISZERO DUP1 ISZERO PUSH2 0x1D88 JUMPI PUSH1 0x0 DUP1 REVERT JUMPDEST POP GAS CALL ISZERO DUP1 ISZERO PUSH2 0x1D9C JUMPI RETURNDATASIZE PUSH1 0x0 DUP1 RETURNDATACOPY RETURNDATASIZE PUSH1 0x0 REVERT JUMPDEST POP POP POP POP POP PUSH2 0x1E44 JUMP JUMPDEST PUSH1 0x40 MLOAD PUSH4 0x23B872DD PUSH1 0xE0 SHL DUP2 MSTORE PUSH1 0x1 PUSH1 0x1 PUSH1 0xA0 SHL SUB DUP5 AND SWAP1 PUSH4 0x23B872DD SWAP1 PUSH2 0x1DD6 SWAP1 CALLER SWAP1 ADDRESS SWAP1 DUP8 SWAP1 PUSH1 0x4 ADD PUSH2 0x3123 JUMP JUMPDEST PUSH1 0x20 PUSH1 0x40 MLOAD DUP1 DUP4 SUB DUP2 PUSH1 0x0 DUP8 DUP1 EXTCODESIZE ISZERO DUP1 ISZERO PUSH2 0x1DF0 JUMPI PUSH1 0x0 DUP1 REVERT JUMPDEST POP GAS CALL ISZERO DUP1 ISZERO PUSH2 0x1E04 JUMPI RETURNDATASIZE PUSH1 0x0 DUP1 RETURNDATACOPY RETURNDATASIZE PUSH1 0x0 REVERT JUMPDEST POP POP POP POP PUSH1 0x40 MLOAD RETURNDATASIZE PUSH1 0x1F NOT PUSH1 0x1F DUP3 ADD AND DUP3 ADD DUP1 PUSH1 0x40 MSTORE POP PUSH2 0x1E28 SWAP2 SWAP1 DUP2 ADD SWAP1 PUSH2 0x2D23 JUMP JUMPDEST PUSH2 0x1E44 JUMPI PUSH1 0x40 MLOAD PUSH3 0x461BCD PUSH1 0xE5 SHL DUP2 MSTORE PUSH1 0x4 ADD PUSH2 0x568 SWAP1 PUSH2 0x32A5 JUMP JUMPDEST SWAP3 SWAP2 POP POP JUMP JUMPDEST PUSH1 0x0 DUP3 DUP3 ADD DUP4 DUP2 LT ISZERO PUSH2 0x1E6F JUMPI PUSH1 0x40 MLOAD PUSH3 0x461BCD PUSH1 0xE5 SHL DUP2 MSTORE PUSH1 0x4 ADD PUSH2 0x568 SWAP1 PUSH2 0x3245 JUMP JUMPDEST SWAP4 SWAP3 POP POP POP JUMP JUMPDEST PUSH1 0x0 PUSH2 0x1E81 DUP3 PUSH2 0x1D02 JUMP JUMPDEST ISZERO PUSH2 0x1F0D JUMPI PUSH1 0x1 SLOAD PUSH1 0x40 MLOAD PUSH4 0x70A08231 PUSH1 0xE0 SHL DUP2 MSTORE PUSH1 0x1 PUSH1 0x1 PUSH1 0xA0 SHL SUB SWAP1 SWAP2 AND SWAP1 PUSH4 0x70A08231 SWAP1 PUSH2 0x1EB6 SWAP1 ADDRESS SWAP1 PUSH1 0x4 ADD PUSH2 0x30FA JUMP JUMPDEST PUSH1 0x20 PUSH1 0x40 MLOAD DUP1 DUP4 SUB DUP2 DUP7 DUP1 EXTCODESIZE ISZERO DUP1 ISZERO PUSH2 0x1ECE JUMPI PUSH1 0x0 DUP1 REVERT JUMPDEST POP GAS STATICCALL ISZERO DUP1 ISZERO PUSH2 0x1EE2 JUMPI RETURNDATASIZE PUSH1 0x0 DUP1 RETURNDATACOPY RETURNDATASIZE PUSH1 0x0 REVERT JUMPDEST POP POP POP POP PUSH1 0x40 MLOAD RETURNDATASIZE PUSH1 0x1F NOT PUSH1 0x1F DUP3 ADD AND DUP3 ADD DUP1 PUSH1 0x40 MSTORE POP PUSH2 0x1F06 SWAP2 SWAP1 DUP2 ADD SWAP1 PUSH2 0x2D87 JUMP JUMPDEST SWAP1 POP PUSH2 0x1D23 JUMP JUMPDEST PUSH1 0x40 MLOAD PUSH4 0x70A08231 PUSH1 0xE0 SHL DUP2 MSTORE PUSH1 0x1 PUSH1 0x1 PUSH1 0xA0 SHL SUB DUP4 AND SWAP1 PUSH4 0x70A08231 SWAP1 PUSH2 0x1EB6 SWAP1 ADDRESS SWAP1 PUSH1 0x4 ADD PUSH2 0x30FA JUMP JUMPDEST PUSH1 0x0 DUP2 PUSH2 0x1F48 JUMPI POP PUSH1 0x1 PUSH2 0x1E44 JUMP JUMPDEST PUSH2 0x1F51 DUP4 PUSH2 0x1D02 JUMP JUMPDEST ISZERO PUSH2 0x203A JUMPI PUSH1 0x1 SLOAD PUSH1 0x40 MLOAD PUSH4 0x2E1A7D4D PUSH1 0xE0 SHL DUP2 MSTORE PUSH1 0x1 PUSH1 0x1 PUSH1 0xA0 SHL SUB SWAP1 SWAP2 AND SWAP1 PUSH4 0x2E1A7D4D SWAP1 PUSH2 0x1F86 SWAP1 DUP6 SWAP1 PUSH1 0x4 ADD PUSH2 0x32B5 JUMP JUMPDEST PUSH1 0x0 PUSH1 0x40 MLOAD DUP1 DUP4 SUB DUP2 PUSH1 0x0 DUP8 DUP1 EXTCODESIZE ISZERO DUP1 ISZERO PUSH2 0x1FA0 JUMPI PUSH1 0x0 DUP1 REVERT JUMPDEST POP GAS CALL ISZERO DUP1 ISZERO PUSH2 0x1FB4 JUMPI RETURNDATASIZE PUSH1 0x0 DUP1 RETURNDATACOPY RETURNDATASIZE PUSH1 0x0 REVERT JUMPDEST POP POP POP POP PUSH1 0x0 CALLER PUSH1 0x1 PUSH1 0x1 PUSH1 0xA0 SHL SUB AND DUP4 PUSH1 0x40 MLOAD PUSH2 0x1FD1 SWAP1 PUSH2 0x30E1 JUMP JUMPDEST PUSH1 0x0 PUSH1 0x40 MLOAD DUP1 DUP4 SUB DUP2 DUP6 DUP8 GAS CALL SWAP3 POP POP POP RETURNDATASIZE DUP1 PUSH1 0x0 DUP2 EQ PUSH2 0x200E JUMPI PUSH1 0x40 MLOAD SWAP2 POP PUSH1 0x1F NOT PUSH1 0x3F RETURNDATASIZE ADD AND DUP3 ADD PUSH1 0x40 MSTORE RETURNDATASIZE DUP3 MSTORE RETURNDATASIZE PUSH1 0x0 PUSH1 0x20 DUP5 ADD RETURNDATACOPY PUSH2 0x2013 JUMP JUMPDEST PUSH1 0x60 SWAP2 POP JUMPDEST POP POP SWAP1 POP DUP1 PUSH2 0x2034 JUMPI PUSH1 0x40 MLOAD PUSH3 0x461BCD PUSH1 0xE5 SHL DUP2 MSTORE PUSH1 0x4 ADD PUSH2 0x568 SWAP1 PUSH2 0x3295 JUMP JUMPDEST POP PUSH2 0x1E44 JUMP JUMPDEST PUSH1 0x40 MLOAD PUSH4 0xA9059CBB PUSH1 0xE0 SHL DUP2 MSTORE PUSH1 0x1 PUSH1 0x1 PUSH1 0xA0 SHL SUB DUP5 AND SWAP1 PUSH4 0xA9059CBB SWAP1 PUSH2 0x1DD6 SWAP1 CALLER SWAP1 DUP7 SWAP1 PUSH1 0x4 ADD PUSH2 0x314B JUMP JUMPDEST PUSH2 0x2070 PUSH2 0x2835 JUMP JUMPDEST PUSH1 0x40 MLOAD PUSH4 0xF8B2CB4F PUSH1 0xE0 SHL DUP2 MSTORE DUP3 SWAP1 PUSH1 0x0 SWAP1 PUSH1 0x1 PUSH1 0x1 PUSH1 0xA0 SHL SUB DUP4 AND SWAP1 PUSH4 0xF8B2CB4F SWAP1 PUSH2 0x20A1 SWAP1 DUP10 SWAP1 PUSH1 0x4 ADD PUSH2 0x30EC JUMP JUMPDEST PUSH1 0x20 PUSH1 0x40 MLOAD DUP1 DUP4 SUB DUP2 DUP7 DUP1 EXTCODESIZE ISZERO DUP1 ISZERO PUSH2 0x20B9 JUMPI PUSH1 0x0 DUP1 REVERT JUMPDEST POP GAS STATICCALL ISZERO DUP1 ISZERO PUSH2 0x20CD JUMPI RETURNDATASIZE PUSH1 0x0 DUP1 RETURNDATACOPY RETURNDATASIZE PUSH1 0x0 REVERT JUMPDEST POP POP POP POP PUSH1 0x40 MLOAD RETURNDATASIZE PUSH1 0x1F NOT PUSH1 0x1F DUP3 ADD AND DUP3 ADD DUP1 PUSH1 0x40 MSTORE POP PUSH2 0x20F1 SWAP2 SWAP1 DUP2 ADD SWAP1 PUSH2 0x2D87 JUMP JUMPDEST SWAP1 POP PUSH1 0x0 DUP3 PUSH1 0x1 PUSH1 0x1 PUSH1 0xA0 SHL SUB AND PUSH4 0xF8B2CB4F DUP8 PUSH1 0x40 MLOAD DUP3 PUSH4 0xFFFFFFFF AND PUSH1 0xE0 SHL DUP2 MSTORE PUSH1 0x4 ADD PUSH2 0x2121 SWAP2 SWAP1 PUSH2 0x30EC JUMP JUMPDEST PUSH1 0x20 PUSH1 0x40 MLOAD DUP1 DUP4 SUB DUP2 DUP7 DUP1 EXTCODESIZE ISZERO DUP1 ISZERO PUSH2 0x2139 JUMPI PUSH1 0x0 DUP1 REVERT JUMPDEST POP GAS STATICCALL ISZERO DUP1 ISZERO PUSH2 0x214D JUMPI RETURNDATASIZE PUSH1 0x0 DUP1 RETURNDATACOPY RETURNDATASIZE PUSH1 0x0 REVERT JUMPDEST POP POP POP POP PUSH1 0x40 MLOAD RETURNDATASIZE PUSH1 0x1F NOT PUSH1 0x1F DUP3 ADD AND DUP3 ADD DUP1 PUSH1 0x40 MSTORE POP PUSH2 0x2171 SWAP2 SWAP1 DUP2 ADD SWAP1 PUSH2 0x2D87 JUMP JUMPDEST SWAP1 POP PUSH1 0x0 DUP4 PUSH1 0x1 PUSH1 0x1 PUSH1 0xA0 SHL SUB AND PUSH4 0x948D8CE6 DUP10 PUSH1 0x40 MLOAD DUP3 PUSH4 0xFFFFFFFF AND PUSH1 0xE0 SHL DUP2 MSTORE PUSH1 0x4 ADD PUSH2 0x21A1 SWAP2 SWAP1 PUSH2 0x30EC JUMP JUMPDEST PUSH1 0x20 PUSH1 0x40 MLOAD DUP1 DUP4 SUB DUP2 DUP7 DUP1 EXTCODESIZE ISZERO DUP1 ISZERO PUSH2 0x21B9 JUMPI PUSH1 0x0 DUP1 REVERT JUMPDEST POP GAS STATICCALL ISZERO DUP1 ISZERO PUSH2 0x21CD JUMPI RETURNDATASIZE PUSH1 0x0 DUP1 RETURNDATACOPY RETURNDATASIZE PUSH1 0x0 REVERT JUMPDEST POP POP POP POP PUSH1 0x40 MLOAD RETURNDATASIZE PUSH1 0x1F NOT PUSH1 0x1F DUP3 ADD AND DUP3 ADD DUP1 PUSH1 0x40 MSTORE POP PUSH2 0x21F1 SWAP2 SWAP1 DUP2 ADD SWAP1 PUSH2 0x2D87 JUMP JUMPDEST SWAP1 POP PUSH1 0x0 DUP5 PUSH1 0x1 PUSH1 0x1 PUSH1 0xA0 SHL SUB AND PUSH4 0x948D8CE6 DUP10 PUSH1 0x40 MLOAD DUP3 PUSH4 0xFFFFFFFF AND PUSH1 0xE0 SHL DUP2 MSTORE PUSH1 0x4 ADD PUSH2 0x2221 SWAP2 SWAP1 PUSH2 0x30EC JUMP JUMPDEST PUSH1 0x20 PUSH1 0x40 MLOAD DUP1 DUP4 SUB DUP2 DUP7 DUP1 EXTCODESIZE ISZERO DUP1 ISZERO PUSH2 0x2239 JUMPI PUSH1 0x0 DUP1 REVERT JUMPDEST POP GAS STATICCALL ISZERO DUP1 ISZERO PUSH2 0x224D JUMPI RETURNDATASIZE PUSH1 0x0 DUP1 RETURNDATACOPY RETURNDATASIZE PUSH1 0x0 REVERT JUMPDEST POP POP POP POP PUSH1 0x40 MLOAD RETURNDATASIZE PUSH1 0x1F NOT PUSH1 0x1F DUP3 ADD AND DUP3 ADD DUP1 PUSH1 0x40 MSTORE POP PUSH2 0x2271 SWAP2 SWAP1 DUP2 ADD SWAP1 PUSH2 0x2D87 JUMP JUMPDEST SWAP1 POP PUSH1 0x0 DUP6 PUSH1 0x1 PUSH1 0x1 PUSH1 0xA0 SHL SUB AND PUSH4 0xD4CADF68 PUSH1 0x40 MLOAD DUP2 PUSH4 0xFFFFFFFF AND PUSH1 0xE0 SHL DUP2 MSTORE PUSH1 0x4 ADD PUSH1 0x20 PUSH1 0x40 MLOAD DUP1 DUP4 SUB DUP2 DUP7 DUP1 EXTCODESIZE ISZERO DUP1 ISZERO PUSH2 0x22AE JUMPI PUSH1 0x0 DUP1 REVERT JUMPDEST POP GAS STATICCALL ISZERO DUP1 ISZERO PUSH2 0x22C2 JUMPI RETURNDATASIZE PUSH1 0x0 DUP1 RETURNDATACOPY RETURNDATASIZE PUSH1 0x0 REVERT JUMPDEST POP POP POP POP PUSH1 0x40 MLOAD RETURNDATASIZE PUSH1 0x1F NOT PUSH1 0x1F DUP3 ADD AND DUP3 ADD DUP1 PUSH1 0x40 MSTORE POP PUSH2 0x22E6 SWAP2 SWAP1 DUP2 ADD SWAP1 PUSH2 0x2D87 JUMP JUMPDEST SWAP1 POP PUSH1 0x0 PUSH2 0x22F5 DUP5 DUP7 DUP6 PUSH2 0x2730 JUMP JUMPDEST SWAP1 POP PUSH2 0x22FF PUSH2 0x2835 JUMP JUMPDEST POP PUSH1 0x40 DUP1 MLOAD PUSH1 0xE0 DUP2 ADD DUP3 MSTORE PUSH1 0x1 PUSH1 0x1 PUSH1 0xA0 SHL SUB DUP12 AND DUP2 MSTORE PUSH1 0x20 DUP2 ADD SWAP8 SWAP1 SWAP8 MSTORE DUP7 ADD SWAP4 SWAP1 SWAP4 MSTORE PUSH1 0x60 DUP6 ADD SWAP4 SWAP1 SWAP4 MSTORE PUSH1 0x80 DUP5 ADD MSTORE PUSH1 0xA0 DUP4 ADD SWAP2 SWAP1 SWAP2 MSTORE PUSH1 0xC0 DUP3 ADD MSTORE SWAP2 POP POP SWAP4 SWAP3 POP POP POP JUMP JUMPDEST PUSH1 0x0 DUP3 PUSH2 0x2357 JUMPI POP PUSH1 0x0 PUSH2 0x1E44 JUMP JUMPDEST DUP3 DUP3 MUL DUP3 DUP5 DUP3 DUP2 PUSH2 0x2364 JUMPI INVALID JUMPDEST DIV EQ PUSH2 0x1E6F JUMPI PUSH1 0x40 MLOAD PUSH3 0x461BCD PUSH1 0xE5 SHL DUP2 MSTORE PUSH1 0x4 ADD PUSH2 0x568 SWAP1 PUSH2 0x3275 JUMP JUMPDEST PUSH1 0x0 PUSH2 0x1E6F DUP4 DUP4 PUSH1 0x40 MLOAD DUP1 PUSH1 0x40 ADD PUSH1 0x40 MSTORE DUP1 PUSH1 0x1A DUP2 MSTORE PUSH1 0x20 ADD PUSH32 0x536166654D6174683A206469766973696F6E206279207A65726F000000000000 DUP2 MSTORE POP PUSH2 0x2781 JUMP JUMPDEST PUSH1 0x0 PUSH2 0x1E6F DUP4 DUP4 PUSH1 0x40 MLOAD DUP1 PUSH1 0x40 ADD PUSH1 0x40 MSTORE DUP1 PUSH1 0x1E DUP2 MSTORE PUSH1 0x20 ADD PUSH32 0x536166654D6174683A207375627472616374696F6E206F766572666C6F770000 DUP2 MSTORE POP PUSH2 0x27B8 JUMP JUMPDEST PUSH1 0x0 DUP1 JUMPDEST DUP4 MLOAD DUP2 LT ISZERO PUSH2 0x2555 JUMPI PUSH1 0x0 DUP4 DUP3 DUP2 MLOAD DUP2 LT PUSH2 0x2421 JUMPI INVALID JUMPDEST PUSH1 0x20 MUL PUSH1 0x20 ADD ADD MLOAD PUSH1 0x0 ADD MLOAD PUSH1 0x1 PUSH1 0x1 PUSH1 0xA0 SHL SUB AND PUSH4 0xF8D6AED4 DUP6 DUP5 DUP2 MLOAD DUP2 LT PUSH2 0x2447 JUMPI INVALID JUMPDEST PUSH1 0x20 MUL PUSH1 0x20 ADD ADD MLOAD PUSH1 0x20 ADD MLOAD DUP7 DUP6 DUP2 MLOAD DUP2 LT PUSH2 0x245F JUMPI INVALID JUMPDEST PUSH1 0x20 MUL PUSH1 0x20 ADD ADD MLOAD PUSH1 0x40 ADD MLOAD DUP8 DUP7 DUP2 MLOAD DUP2 LT PUSH2 0x2477 JUMPI INVALID JUMPDEST PUSH1 0x20 MUL PUSH1 0x20 ADD ADD MLOAD PUSH1 0x60 ADD MLOAD DUP9 DUP8 DUP2 MLOAD DUP2 LT PUSH2 0x248F JUMPI INVALID JUMPDEST PUSH1 0x20 MUL PUSH1 0x20 ADD ADD MLOAD PUSH1 0x80 ADD MLOAD DUP11 DUP9 DUP2 MLOAD DUP2 LT PUSH2 0x24A7 JUMPI INVALID JUMPDEST PUSH1 0x20 MUL PUSH1 0x20 ADD ADD MLOAD DUP11 DUP10 DUP2 MLOAD DUP2 LT PUSH2 0x24BB JUMPI INVALID JUMPDEST PUSH1 0x20 MUL PUSH1 0x20 ADD ADD MLOAD PUSH1 0xA0 ADD MLOAD PUSH1 0x40 MLOAD DUP8 PUSH4 0xFFFFFFFF AND PUSH1 0xE0 SHL DUP2 MSTORE PUSH1 0x4 ADD PUSH2 0x24E8 SWAP7 SWAP6 SWAP5 SWAP4 SWAP3 SWAP2 SWAP1 PUSH2 0x32C3 JUMP JUMPDEST PUSH1 0x20 PUSH1 0x40 MLOAD DUP1 DUP4 SUB DUP2 DUP7 DUP1 EXTCODESIZE ISZERO DUP1 ISZERO PUSH2 0x2500 JUMPI PUSH1 0x0 DUP1 REVERT JUMPDEST POP GAS STATICCALL ISZERO DUP1 ISZERO PUSH2 0x2514 JUMPI RETURNDATASIZE PUSH1 0x0 DUP1 RETURNDATACOPY RETURNDATASIZE PUSH1 0x0 REVERT JUMPDEST POP POP POP POP PUSH1 0x40 MLOAD RETURNDATASIZE PUSH1 0x1F NOT PUSH1 0x1F DUP3 ADD AND DUP3 ADD DUP1 PUSH1 0x40 MSTORE POP PUSH2 0x2538 SWAP2 SWAP1 DUP2 ADD SWAP1 PUSH2 0x2D87 JUMP JUMPDEST SWAP1 POP PUSH2 0x254A DUP4 DUP3 PUSH4 0xFFFFFFFF PUSH2 0x1E4A AND JUMP JUMPDEST SWAP3 POP POP PUSH1 0x1 ADD PUSH2 0x240A JUMP JUMPDEST POP SWAP3 SWAP2 POP POP JUMP JUMPDEST PUSH1 0x0 DUP1 JUMPDEST DUP4 MLOAD DUP2 LT ISZERO PUSH2 0x2555 JUMPI PUSH1 0x0 DUP4 DUP3 DUP2 MLOAD DUP2 LT PUSH2 0x2577 JUMPI INVALID JUMPDEST PUSH1 0x20 MUL PUSH1 0x20 ADD ADD MLOAD PUSH1 0x0 ADD MLOAD PUSH1 0x1 PUSH1 0x1 PUSH1 0xA0 SHL SUB AND PUSH4 0xBA9530A6 DUP6 DUP5 DUP2 MLOAD DUP2 LT PUSH2 0x259D JUMPI INVALID JUMPDEST PUSH1 0x20 MUL PUSH1 0x20 ADD ADD MLOAD PUSH1 0x20 ADD MLOAD DUP7 DUP6 DUP2 MLOAD DUP2 LT PUSH2 0x25B5 JUMPI INVALID JUMPDEST PUSH1 0x20 MUL PUSH1 0x20 ADD ADD MLOAD PUSH1 0x40 ADD MLOAD DUP8 DUP7 DUP2 MLOAD DUP2 LT PUSH2 0x25CD JUMPI INVALID JUMPDEST PUSH1 0x20 MUL PUSH1 0x20 ADD ADD MLOAD PUSH1 0x60 ADD MLOAD DUP9 DUP8 DUP2 MLOAD DUP2 LT PUSH2 0x25E5 JUMPI INVALID JUMPDEST PUSH1 0x20 MUL PUSH1 0x20 ADD ADD MLOAD PUSH1 0x80 ADD MLOAD DUP11 DUP9 DUP2 MLOAD DUP2 LT PUSH2 0x25FD JUMPI INVALID JUMPDEST PUSH1 0x20 MUL PUSH1 0x20 ADD ADD MLOAD DUP11 DUP10 DUP2 MLOAD DUP2 LT PUSH2 0x2611 JUMPI INVALID JUMPDEST PUSH1 0x20 MUL PUSH1 0x20 ADD ADD MLOAD PUSH1 0xA0 ADD MLOAD PUSH1 0x40 MLOAD DUP8 PUSH4 0xFFFFFFFF AND PUSH1 0xE0 SHL DUP2 MSTORE PUSH1 0x4 ADD PUSH2 0x263E SWAP7 SWAP6 SWAP5 SWAP4 SWAP3 SWAP2 SWAP1 PUSH2 0x32C3 JUMP JUMPDEST PUSH1 0x20 PUSH1 0x40 MLOAD DUP1 DUP4 SUB DUP2 DUP7 DUP1 EXTCODESIZE ISZERO DUP1 ISZERO PUSH2 0x2656 JUMPI PUSH1 0x0 DUP1 REVERT JUMPDEST POP GAS STATICCALL ISZERO DUP1 ISZERO PUSH2 0x266A JUMPI RETURNDATASIZE PUSH1 0x0 DUP1 RETURNDATACOPY RETURNDATASIZE PUSH1 0x0 REVERT JUMPDEST POP POP POP POP PUSH1 0x40 MLOAD RETURNDATASIZE PUSH1 0x1F NOT PUSH1 0x1F DUP3 ADD AND DUP3 ADD DUP1 PUSH1 0x40 MSTORE POP PUSH2 0x268E SWAP2 SWAP1 DUP2 ADD SWAP1 PUSH2 0x2D87 JUMP JUMPDEST SWAP1 POP PUSH2 0x26A0 DUP4 DUP3 PUSH4 0xFFFFFFFF PUSH2 0x1E4A AND JUMP JUMPDEST SWAP3 POP POP PUSH1 0x1 ADD PUSH2 0x2560 JUMP JUMPDEST CALLER SWAP1 JUMP JUMPDEST PUSH1 0x1 PUSH1 0x1 PUSH1 0xA0 SHL SUB DUP2 AND PUSH2 0x26D5 JUMPI PUSH1 0x40 MLOAD PUSH3 0x461BCD PUSH1 0xE5 SHL DUP2 MSTORE PUSH1 0x4 ADD PUSH2 0x568 SWAP1 PUSH2 0x3235 JUMP JUMPDEST PUSH1 0x0 DUP1 SLOAD PUSH1 0x40 MLOAD PUSH1 0x1 PUSH1 0x1 PUSH1 0xA0 SHL SUB DUP1 DUP6 AND SWAP4 SWAP3 AND SWAP2 PUSH32 0x8BE0079C531659141344CD1FD0A4F28419497F9722A3DAAFE3B4186F6B6457E0 SWAP2 LOG3 PUSH1 0x0 DUP1 SLOAD PUSH1 0x1 PUSH1 0x1 PUSH1 0xA0 SHL SUB NOT AND PUSH1 0x1 PUSH1 0x1 PUSH1 0xA0 SHL SUB SWAP3 SWAP1 SWAP3 AND SWAP2 SWAP1 SWAP2 OR SWAP1 SSTORE JUMP JUMPDEST PUSH1 0x0 PUSH2 0x2779 PUSH8 0xDE0B6B3A7640000 PUSH2 0x74C DUP6 PUSH2 0x276D PUSH2 0x2755 DUP8 DUP11 PUSH4 0xFFFFFFFF PUSH2 0x1E4A AND JUMP JUMPDEST PUSH2 0x74C DUP11 PUSH8 0xDE0B6B3A7640000 PUSH4 0xFFFFFFFF PUSH2 0x2348 AND JUMP JUMPDEST SWAP1 PUSH4 0xFFFFFFFF PUSH2 0x2348 AND JUMP JUMPDEST SWAP5 SWAP4 POP POP POP POP JUMP JUMPDEST PUSH1 0x0 DUP2 DUP4 PUSH2 0x27A2 JUMPI PUSH1 0x40 MLOAD PUSH3 0x461BCD PUSH1 0xE5 SHL DUP2 MSTORE PUSH1 0x4 ADD PUSH2 0x568 SWAP2 SWAP1 PUSH2 0x3224 JUMP JUMPDEST POP PUSH1 0x0 DUP4 DUP6 DUP2 PUSH2 0x27AE JUMPI INVALID JUMPDEST DIV SWAP6 SWAP5 POP POP POP POP POP JUMP JUMPDEST PUSH1 0x0 DUP2 DUP5 DUP5 GT ISZERO PUSH2 0x27DC JUMPI PUSH1 0x40 MLOAD PUSH3 0x461BCD PUSH1 0xE5 SHL DUP2 MSTORE PUSH1 0x4 ADD PUSH2 0x568 SWAP2 SWAP1 PUSH2 0x3224 JUMP JUMPDEST POP POP POP SWAP1 SUB SWAP1 JUMP JUMPDEST PUSH1 0x40 MLOAD DUP1 PUSH1 0xC0 ADD PUSH1 0x40 MSTORE DUP1 PUSH1 0x0 PUSH1 0x1 PUSH1 0x1 PUSH1 0xA0 SHL SUB AND DUP2 MSTORE PUSH1 0x20 ADD PUSH1 0x0 PUSH1 0x1 PUSH1 0x1 PUSH1 0xA0 SHL SUB AND DUP2 MSTORE PUSH1 0x20 ADD PUSH1 0x0 PUSH1 0x1 PUSH1 0x1 PUSH1 0xA0 SHL SUB AND DUP2 MSTORE PUSH1 0x20 ADD PUSH1 0x0 DUP2 MSTORE PUSH1 0x20 ADD PUSH1 0x0 DUP2 MSTORE PUSH1 0x20 ADD PUSH1 0x0 DUP2 MSTORE POP SWAP1 JUMP JUMPDEST PUSH1 0x40 MLOAD DUP1 PUSH1 0xE0 ADD PUSH1 0x40 MSTORE DUP1 PUSH1 0x0 PUSH1 0x1 PUSH1 0x1 PUSH1 0xA0 SHL SUB AND DUP2 MSTORE PUSH1 0x20 ADD PUSH1 0x0 DUP2 MSTORE PUSH1 0x20 ADD PUSH1 0x0 DUP2 MSTORE PUSH1 0x20 ADD PUSH1 0x0 DUP2 MSTORE PUSH1 0x20 ADD PUSH1 0x0 DUP2 MSTORE PUSH1 0x20 ADD PUSH1 0x0 DUP2 MSTORE PUSH1 0x20 ADD PUSH1 0x0 DUP2 MSTORE POP SWAP1 JUMP JUMPDEST DUP1 CALLDATALOAD PUSH2 0x1E44 DUP2 PUSH2 0x33E3 JUMP JUMPDEST DUP1 MLOAD PUSH2 0x1E44 DUP2 PUSH2 0x33E3 JUMP JUMPDEST PUSH1 0x0 DUP3 PUSH1 0x1F DUP4 ADD SLT PUSH2 0x28A2 JUMPI PUSH1 0x0 DUP1 REVERT JUMPDEST DUP2 MLOAD PUSH2 0x28B5 PUSH2 0x28B0 DUP3 PUSH2 0x3339 JUMP JUMPDEST PUSH2 0x3312 JUMP JUMPDEST SWAP2 POP DUP2 DUP2 DUP4 MSTORE PUSH1 0x20 DUP5 ADD SWAP4 POP PUSH1 0x20 DUP2 ADD SWAP1 POP DUP4 DUP6 PUSH1 0x20 DUP5 MUL DUP3 ADD GT ISZERO PUSH2 0x28DA JUMPI PUSH1 0x0 DUP1 REVERT JUMPDEST PUSH1 0x0 JUMPDEST DUP4 DUP2 LT ISZERO PUSH2 0x2906 JUMPI DUP2 PUSH2 0x28F0 DUP9 DUP3 PUSH2 0x2886 JUMP JUMPDEST DUP5 MSTORE POP PUSH1 0x20 SWAP3 DUP4 ADD SWAP3 SWAP2 SWAP1 SWAP2 ADD SWAP1 PUSH1 0x1 ADD PUSH2 0x28DD JUMP JUMPDEST POP POP POP POP SWAP3 SWAP2 POP POP JUMP JUMPDEST PUSH1 0x0 DUP3 PUSH1 0x1F DUP4 ADD SLT PUSH2 0x2921 JUMPI PUSH1 0x0 DUP1 REVERT JUMPDEST DUP2 CALLDATALOAD PUSH2 0x292F PUSH2 0x28B0 DUP3 PUSH2 0x3339 JUMP JUMPDEST DUP2 DUP2 MSTORE PUSH1 0x20 SWAP4 DUP5 ADD SWAP4 SWAP1 SWAP3 POP DUP3 ADD DUP4 PUSH1 0x0 JUMPDEST DUP4 DUP2 LT ISZERO PUSH2 0x2906 JUMPI DUP2 CALLDATALOAD DUP7 ADD PUSH2 0x2957 DUP9 DUP3 PUSH2 0x296D JUMP JUMPDEST DUP5 MSTORE POP PUSH1 0x20 SWAP3 DUP4 ADD SWAP3 SWAP2 SWAP1 SWAP2 ADD SWAP1 PUSH1 0x1 ADD PUSH2 0x2941 JUMP JUMPDEST PUSH1 0x0 DUP3 PUSH1 0x1F DUP4 ADD SLT PUSH2 0x297E JUMPI PUSH1 0x0 DUP1 REVERT JUMPDEST DUP2 CALLDATALOAD PUSH2 0x298C PUSH2 0x28B0 DUP3 PUSH2 0x3339 JUMP JUMPDEST SWAP2 POP DUP2 DUP2 DUP4 MSTORE PUSH1 0x20 DUP5 ADD SWAP4 POP PUSH1 0x20 DUP2 ADD SWAP1 POP DUP4 DUP6 PUSH1 0xC0 DUP5 MUL DUP3 ADD GT ISZERO PUSH2 0x29B1 JUMPI PUSH1 0x0 DUP1 REVERT JUMPDEST PUSH1 0x0 JUMPDEST DUP4 DUP2 LT ISZERO PUSH2 0x2906 JUMPI DUP2 PUSH2 0x29C7 DUP9 DUP3 PUSH2 0x2A67 JUMP JUMPDEST DUP5 MSTORE POP PUSH1 0x20 SWAP1 SWAP3 ADD SWAP2 PUSH1 0xC0 SWAP2 SWAP1 SWAP2 ADD SWAP1 PUSH1 0x1 ADD PUSH2 0x29B4 JUMP JUMPDEST PUSH1 0x0 DUP3 PUSH1 0x1F DUP4 ADD SLT PUSH2 0x29F0 JUMPI PUSH1 0x0 DUP1 REVERT JUMPDEST DUP2 CALLDATALOAD PUSH2 0x29FE PUSH2 0x28B0 DUP3 PUSH2 0x3339 JUMP JUMPDEST SWAP2 POP DUP2 DUP2 DUP4 MSTORE PUSH1 0x20 DUP5 ADD SWAP4 POP PUSH1 0x20 DUP2 ADD SWAP1 POP DUP4 DUP6 PUSH1 0xC0 DUP5 MUL DUP3 ADD GT ISZERO PUSH2 0x2A23 JUMPI PUSH1 0x0 DUP1 REVERT JUMPDEST PUSH1 0x0 JUMPDEST DUP4 DUP2 LT ISZERO PUSH2 0x2906 JUMPI DUP2 PUSH2 0x2A39 DUP9 DUP3 PUSH2 0x2A67 JUMP JUMPDEST DUP5 MSTORE POP PUSH1 0x20 SWAP1 SWAP3 ADD SWAP2 PUSH1 0xC0 SWAP2 SWAP1 SWAP2 ADD SWAP1 PUSH1 0x1 ADD PUSH2 0x2A26 JUMP JUMPDEST DUP1 MLOAD PUSH2 0x1E44 DUP2 PUSH2 0x33F7 JUMP JUMPDEST DUP1 CALLDATALOAD PUSH2 0x1E44 DUP2 PUSH2 0x3400 JUMP JUMPDEST PUSH1 0x0 PUSH1 0xC0 DUP3 DUP5 SUB SLT ISZERO PUSH2 0x2A79 JUMPI PUSH1 0x0 DUP1 REVERT JUMPDEST PUSH2 0x2A83 PUSH1 0xC0 PUSH2 0x3312 JUMP JUMPDEST SWAP1 POP PUSH1 0x0 PUSH2 0x2A91 DUP5 DUP5 PUSH2 0x287B JUMP JUMPDEST DUP3 MSTORE POP PUSH1 0x20 PUSH2 0x2AA2 DUP5 DUP5 DUP4 ADD PUSH2 0x287B JUMP JUMPDEST PUSH1 0x20 DUP4 ADD MSTORE POP PUSH1 0x40 PUSH2 0x2AB6 DUP5 DUP3 DUP6 ADD PUSH2 0x287B JUMP JUMPDEST PUSH1 0x40 DUP4 ADD MSTORE POP PUSH1 0x60 PUSH2 0x2ACA DUP5 DUP3 DUP6 ADD PUSH2 0x2AFE JUMP JUMPDEST PUSH1 0x60 DUP4 ADD MSTORE POP PUSH1 0x80 PUSH2 0x2ADE DUP5 DUP3 DUP6 ADD PUSH2 0x2AFE JUMP JUMPDEST PUSH1 0x80 DUP4 ADD MSTORE POP PUSH1 0xA0 PUSH2 0x2AF2 DUP5 DUP3 DUP6 ADD PUSH2 0x2AFE JUMP JUMPDEST PUSH1 0xA0 DUP4 ADD MSTORE POP SWAP3 SWAP2 POP POP JUMP JUMPDEST DUP1 CALLDATALOAD PUSH2 0x1E44 DUP2 PUSH2 0x3409 JUMP JUMPDEST DUP1 MLOAD PUSH2 0x1E44 DUP2 PUSH2 0x3409 JUMP JUMPDEST PUSH1 0x0 PUSH1 0x20 DUP3 DUP5 SUB SLT ISZERO PUSH2 0x2B26 JUMPI PUSH1 0x0 DUP1 REVERT JUMPDEST PUSH1 0x0 PUSH2 0x2779 DUP5 DUP5 PUSH2 0x287B JUMP JUMPDEST PUSH1 0x0 DUP1 PUSH1 0x0 DUP1 PUSH1 0x80 DUP6 DUP8 SUB SLT ISZERO PUSH2 0x2B48 JUMPI PUSH1 0x0 DUP1 REVERT JUMPDEST PUSH1 0x0 PUSH2 0x2B54 DUP8 DUP8 PUSH2 0x287B JUMP JUMPDEST SWAP5 POP POP PUSH1 0x20 PUSH2 0x2B65 DUP8 DUP3 DUP9 ADD PUSH2 0x287B JUMP JUMPDEST SWAP4 POP POP PUSH1 0x40 PUSH2 0x2B76 DUP8 DUP3 DUP9 ADD PUSH2 0x2AFE JUMP JUMPDEST SWAP3 POP POP PUSH1 0x60 PUSH2 0x2B87 DUP8 DUP3 DUP9 ADD PUSH2 0x2AFE JUMP JUMPDEST SWAP2 POP POP SWAP3 SWAP6 SWAP2 SWAP5 POP SWAP3 POP JUMP JUMPDEST PUSH1 0x0 PUSH1 0x20 DUP3 DUP5 SUB SLT ISZERO PUSH2 0x2BA5 JUMPI PUSH1 0x0 DUP1 REVERT JUMPDEST DUP2 MLOAD PUSH8 0xFFFFFFFFFFFFFFFF DUP2 GT ISZERO PUSH2 0x2BBC JUMPI PUSH1 0x0 DUP1 REVERT JUMPDEST PUSH2 0x2779 DUP5 DUP3 DUP6 ADD PUSH2 0x2891 JUMP JUMPDEST PUSH1 0x0 DUP1 PUSH1 0x0 DUP1 PUSH1 0x80 DUP6 DUP8 SUB SLT ISZERO PUSH2 0x2BDE JUMPI PUSH1 0x0 DUP1 REVERT JUMPDEST DUP5 CALLDATALOAD PUSH8 0xFFFFFFFFFFFFFFFF DUP2 GT ISZERO PUSH2 0x2BF5 JUMPI PUSH1 0x0 DUP1 REVERT JUMPDEST PUSH2 0x2C01 DUP8 DUP3 DUP9 ADD PUSH2 0x2910 JUMP JUMPDEST SWAP5 POP POP PUSH1 0x20 PUSH2 0x2C12 DUP8 DUP3 DUP9 ADD PUSH2 0x2A5C JUMP JUMPDEST SWAP4 POP POP PUSH1 0x40 PUSH2 0x2B76 DUP8 DUP3 DUP9 ADD PUSH2 0x2A5C JUMP JUMPDEST PUSH1 0x0 DUP1 PUSH1 0x0 DUP1 PUSH1 0x0 PUSH1 0xA0 DUP7 DUP9 SUB SLT ISZERO PUSH2 0x2C3B JUMPI PUSH1 0x0 DUP1 REVERT JUMPDEST DUP6 CALLDATALOAD PUSH8 0xFFFFFFFFFFFFFFFF DUP2 GT ISZERO PUSH2 0x2C52 JUMPI PUSH1 0x0 DUP1 REVERT JUMPDEST PUSH2 0x2C5E DUP9 DUP3 DUP10 ADD PUSH2 0x2910 JUMP JUMPDEST SWAP6 POP POP PUSH1 0x20 PUSH2 0x2C6F DUP9 DUP3 DUP10 ADD PUSH2 0x2A5C JUMP JUMPDEST SWAP5 POP POP PUSH1 0x40 PUSH2 0x2C80 DUP9 DUP3 DUP10 ADD PUSH2 0x2A5C JUMP JUMPDEST SWAP4 POP POP PUSH1 0x60 PUSH2 0x2C91 DUP9 DUP3 DUP10 ADD PUSH2 0x2AFE JUMP JUMPDEST SWAP3 POP POP PUSH1 0x80 PUSH2 0x2CA2 DUP9 DUP3 DUP10 ADD PUSH2 0x2AFE JUMP JUMPDEST SWAP2 POP POP SWAP3 SWAP6 POP SWAP3 SWAP6 SWAP1 SWAP4 POP JUMP JUMPDEST PUSH1 0x0 DUP1 PUSH1 0x0 DUP1 PUSH1 0x80 DUP6 DUP8 SUB SLT ISZERO PUSH2 0x2CC5 JUMPI PUSH1 0x0 DUP1 REVERT JUMPDEST DUP5 CALLDATALOAD PUSH8 0xFFFFFFFFFFFFFFFF DUP2 GT ISZERO PUSH2 0x2CDC JUMPI PUSH1 0x0 DUP1 REVERT JUMPDEST PUSH2 0x2C01 DUP8 DUP3 DUP9 ADD PUSH2 0x29DF JUMP JUMPDEST PUSH1 0x0 DUP1 PUSH1 0x0 DUP1 PUSH1 0x0 PUSH1 0xA0 DUP7 DUP9 SUB SLT ISZERO PUSH2 0x2D00 JUMPI PUSH1 0x0 DUP1 REVERT JUMPDEST DUP6 CALLDATALOAD PUSH8 0xFFFFFFFFFFFFFFFF DUP2 GT ISZERO PUSH2 0x2D17 JUMPI PUSH1 0x0 DUP1 REVERT JUMPDEST PUSH2 0x2C5E DUP9 DUP3 DUP10 ADD PUSH2 0x29DF JUMP JUMPDEST PUSH1 0x0 PUSH1 0x20 DUP3 DUP5 SUB SLT ISZERO PUSH2 0x2D35 JUMPI PUSH1 0x0 DUP1 REVERT JUMPDEST PUSH1 0x0 PUSH2 0x2779 DUP5 DUP5 PUSH2 0x2A51 JUMP JUMPDEST PUSH1 0x0 DUP1 PUSH1 0x0 DUP1 PUSH1 0x0 PUSH1 0xA0 DUP7 DUP9 SUB SLT ISZERO PUSH2 0x2D59 JUMPI PUSH1 0x0 DUP1 REVERT JUMPDEST PUSH1 0x0 PUSH2 0x2D65 DUP9 DUP9 PUSH2 0x2A5C JUMP JUMPDEST SWAP6 POP POP PUSH1 0x20 PUSH2 0x2D76 DUP9 DUP3 DUP10 ADD PUSH2 0x2A5C JUMP JUMPDEST SWAP5 POP POP PUSH1 0x40 PUSH2 0x2C80 DUP9 DUP3 DUP10 ADD PUSH2 0x2AFE JUMP JUMPDEST PUSH1 0x0 PUSH1 0x20 DUP3 DUP5 SUB SLT ISZERO PUSH2 0x2D99 JUMPI PUSH1 0x0 DUP1 REVERT JUMPDEST PUSH1 0x0 PUSH2 0x2779 DUP5 DUP5 PUSH2 0x2B09 JUMP JUMPDEST PUSH1 0x0 DUP1 PUSH1 0x40 DUP4 DUP6 SUB SLT ISZERO PUSH2 0x2DB8 JUMPI PUSH1 0x0 DUP1 REVERT JUMPDEST PUSH1 0x0 PUSH2 0x2DC4 DUP6 DUP6 PUSH2 0x2B09 JUMP JUMPDEST SWAP3 POP POP PUSH1 0x20 PUSH2 0x2DD5 DUP6 DUP3 DUP7 ADD PUSH2 0x2B09 JUMP JUMPDEST SWAP2 POP POP SWAP3 POP SWAP3 SWAP1 POP JUMP JUMPDEST PUSH1 0x0 PUSH2 0x2DEB DUP4 DUP4 PUSH2 0x3062 JUMP JUMPDEST POP POP PUSH1 0xC0 ADD SWAP1 JUMP JUMPDEST PUSH2 0x2DFC DUP2 PUSH2 0x3397 JUMP JUMPDEST DUP3 MSTORE POP POP JUMP JUMPDEST PUSH2 0x2DFC DUP2 PUSH2 0x336D JUMP JUMPDEST PUSH1 0x0 PUSH2 0x2E16 DUP3 PUSH2 0x3360 JUMP JUMPDEST PUSH2 0x2E20 DUP2 DUP6 PUSH2 0x3364 JUMP JUMPDEST SWAP4 POP PUSH2 0x2E2B DUP4 PUSH2 0x335A JUMP JUMPDEST DUP1 PUSH1 0x0 JUMPDEST DUP4 DUP2 LT ISZERO PUSH2 0x2E59 JUMPI DUP2 MLOAD PUSH2 0x2E43 DUP9 DUP3 PUSH2 0x2DDF JUMP JUMPDEST SWAP8 POP PUSH2 0x2E4E DUP4 PUSH2 0x335A JUMP JUMPDEST SWAP3 POP POP PUSH1 0x1 ADD PUSH2 0x2E2F JUMP JUMPDEST POP SWAP5 SWAP6 SWAP5 POP POP POP POP POP JUMP JUMPDEST PUSH2 0x2DFC DUP2 PUSH2 0x3378 JUMP JUMPDEST PUSH2 0x2DFC DUP2 PUSH2 0x33A2 JUMP JUMPDEST PUSH1 0x0 PUSH2 0x2E81 DUP3 PUSH2 0x3360 JUMP JUMPDEST PUSH2 0x2E8B DUP2 DUP6 PUSH2 0x3364 JUMP JUMPDEST SWAP4 POP PUSH2 0x2E9B DUP2 DUP6 PUSH1 0x20 DUP7 ADD PUSH2 0x33AD JUMP JUMPDEST PUSH2 0x2EA4 DUP2 PUSH2 0x33D9 JUMP JUMPDEST SWAP1 SWAP4 ADD SWAP4 SWAP3 POP POP POP JUMP JUMPDEST PUSH1 0x0 PUSH2 0x2EBB PUSH1 0x26 DUP4 PUSH2 0x3364 JUMP JUMPDEST PUSH32 0x4F776E61626C653A206E6577206F776E657220697320746865207A65726F2061 DUP2 MSTORE PUSH6 0x646472657373 PUSH1 0xD0 SHL PUSH1 0x20 DUP3 ADD MSTORE PUSH1 0x40 ADD SWAP3 SWAP2 POP POP JUMP JUMPDEST PUSH1 0x0 PUSH2 0x2F03 PUSH1 0x1B DUP4 PUSH2 0x3364 JUMP JUMPDEST PUSH32 0x536166654D6174683A206164646974696F6E206F766572666C6F770000000000 DUP2 MSTORE PUSH1 0x20 ADD SWAP3 SWAP2 POP POP JUMP JUMPDEST PUSH1 0x0 PUSH2 0x2F3C PUSH1 0xD DUP4 PUSH2 0x3364 JUMP JUMPDEST PUSH13 0x11549497D31253525517D3D555 PUSH1 0x9A SHL DUP2 MSTORE PUSH1 0x20 ADD SWAP3 SWAP2 POP POP JUMP JUMPDEST PUSH1 0x0 PUSH2 0x2F65 PUSH1 0xC DUP4 PUSH2 0x3364 JUMP JUMPDEST PUSH12 0x22A9292FA624A6A4AA2FA4A7 PUSH1 0xA1 SHL DUP2 MSTORE PUSH1 0x20 ADD SWAP3 SWAP2 POP POP JUMP JUMPDEST PUSH1 0x0 PUSH2 0x2F8D PUSH1 0x21 DUP4 PUSH2 0x3364 JUMP JUMPDEST PUSH32 0x536166654D6174683A206D756C7469706C69636174696F6E206F766572666C6F DUP2 MSTORE PUSH1 0x77 PUSH1 0xF8 SHL PUSH1 0x20 DUP3 ADD MSTORE PUSH1 0x40 ADD SWAP3 SWAP2 POP POP JUMP JUMPDEST PUSH1 0x0 PUSH2 0x2FD0 PUSH1 0x20 DUP4 PUSH2 0x3364 JUMP JUMPDEST PUSH32 0x4F776E61626C653A2063616C6C6572206973206E6F7420746865206F776E6572 DUP2 MSTORE PUSH1 0x20 ADD SWAP3 SWAP2 POP POP JUMP JUMPDEST PUSH1 0x0 PUSH2 0x3009 PUSH1 0xE DUP4 PUSH2 0x3364 JUMP JUMPDEST PUSH14 0x11549497D1551217D19052531151 PUSH1 0x92 SHL DUP2 MSTORE PUSH1 0x20 ADD SWAP3 SWAP2 POP POP JUMP JUMPDEST PUSH1 0x0 PUSH2 0x1E44 PUSH1 0x0 DUP4 PUSH2 0x1D23 JUMP JUMPDEST PUSH1 0x0 PUSH2 0x3040 PUSH1 0x13 DUP4 PUSH2 0x3364 JUMP JUMPDEST PUSH19 0x11549497D514905394D1915497D19052531151 PUSH1 0x6A SHL DUP2 MSTORE PUSH1 0x20 ADD SWAP3 SWAP2 POP POP JUMP JUMPDEST DUP1 MLOAD PUSH1 0xC0 DUP4 ADD SWAP1 PUSH2 0x3073 DUP5 DUP3 PUSH2 0x2E02 JUMP JUMPDEST POP PUSH1 0x20 DUP3 ADD MLOAD PUSH2 0x3086 PUSH1 0x20 DUP6 ADD DUP3 PUSH2 0x2E02 JUMP JUMPDEST POP PUSH1 0x40 DUP3 ADD MLOAD PUSH2 0x3099 PUSH1 0x40 DUP6 ADD DUP3 PUSH2 0x2E02 JUMP JUMPDEST POP PUSH1 0x60 DUP3 ADD MLOAD PUSH2 0x30AC PUSH1 0x60 DUP6 ADD DUP3 PUSH2 0x30D8 JUMP JUMPDEST POP PUSH1 0x80 DUP3 ADD MLOAD PUSH2 0x30BF PUSH1 0x80 DUP6 ADD DUP3 PUSH2 0x30D8 JUMP JUMPDEST POP PUSH1 0xA0 DUP3 ADD MLOAD PUSH2 0x30D2 PUSH1 0xA0 DUP6 ADD DUP3 PUSH2 0x30D8 JUMP JUMPDEST POP POP POP POP JUMP JUMPDEST PUSH2 0x2DFC DUP2 PUSH2 0x3394 JUMP JUMPDEST PUSH1 0x0 PUSH2 0x1E44 DUP3 PUSH2 0x3026 JUMP JUMPDEST PUSH1 0x20 DUP2 ADD PUSH2 0x1E44 DUP3 DUP5 PUSH2 0x2E02 JUMP JUMPDEST PUSH1 0x20 DUP2 ADD PUSH2 0x1E44 DUP3 DUP5 PUSH2 0x2DF3 JUMP JUMPDEST PUSH1 0x40 DUP2 ADD PUSH2 0x3116 DUP3 DUP6 PUSH2 0x2DF3 JUMP JUMPDEST PUSH2 0x1E6F PUSH1 0x20 DUP4 ADD DUP5 PUSH2 0x2E02 JUMP JUMPDEST PUSH1 0x60 DUP2 ADD PUSH2 0x3131 DUP3 DUP7 PUSH2 0x2DF3 JUMP JUMPDEST PUSH2 0x313E PUSH1 0x20 DUP4 ADD DUP6 PUSH2 0x2DF3 JUMP JUMPDEST PUSH2 0x2779 PUSH1 0x40 DUP4 ADD DUP5 PUSH2 0x30D8 JUMP JUMPDEST PUSH1 0x40 DUP2 ADD PUSH2 0x3159 DUP3 DUP6 PUSH2 0x2DF3 JUMP JUMPDEST PUSH2 0x1E6F PUSH1 0x20 DUP4 ADD DUP5 PUSH2 0x30D8 JUMP JUMPDEST PUSH1 0x60 DUP2 ADD PUSH2 0x3174 DUP3 DUP7 PUSH2 0x2E02 JUMP JUMPDEST PUSH2 0x313E PUSH1 0x20 DUP4 ADD DUP6 PUSH2 0x2E02 JUMP JUMPDEST PUSH1 0x40 DUP2 ADD PUSH2 0x318F DUP3 DUP6 PUSH2 0x2E02 JUMP JUMPDEST PUSH2 0x1E6F PUSH1 0x20 DUP4 ADD DUP5 PUSH2 0x2E6D JUMP JUMPDEST PUSH1 0x40 DUP2 ADD PUSH2 0x3159 DUP3 DUP6 PUSH2 0x2E02 JUMP JUMPDEST PUSH1 0xA0 DUP2 ADD PUSH2 0x31B8 DUP3 DUP9 PUSH2 0x2E02 JUMP JUMPDEST PUSH2 0x31C5 PUSH1 0x20 DUP4 ADD DUP8 PUSH2 0x30D8 JUMP JUMPDEST PUSH2 0x31D2 PUSH1 0x40 DUP4 ADD DUP7 PUSH2 0x2E02 JUMP JUMPDEST PUSH2 0x31DF PUSH1 0x60 DUP4 ADD DUP6 PUSH2 0x30D8 JUMP JUMPDEST PUSH2 0x31EC PUSH1 0x80 DUP4 ADD DUP5 PUSH2 0x30D8 JUMP JUMPDEST SWAP7 SWAP6 POP POP POP POP POP POP JUMP JUMPDEST PUSH1 0x40 DUP1 DUP3 MSTORE DUP2 ADD PUSH2 0x3207 DUP2 DUP6 PUSH2 0x2E0B JUMP JUMPDEST SWAP1 POP PUSH2 0x1E6F PUSH1 0x20 DUP4 ADD DUP5 PUSH2 0x30D8 JUMP JUMPDEST PUSH1 0x20 DUP2 ADD PUSH2 0x1E44 DUP3 DUP5 PUSH2 0x2E64 JUMP JUMPDEST PUSH1 0x20 DUP1 DUP3 MSTORE DUP2 ADD PUSH2 0x1E6F DUP2 DUP5 PUSH2 0x2E76 JUMP JUMPDEST PUSH1 0x20 DUP1 DUP3 MSTORE DUP2 ADD PUSH2 0x1E44 DUP2 PUSH2 0x2EAE JUMP JUMPDEST PUSH1 0x20 DUP1 DUP3 MSTORE DUP2 ADD PUSH2 0x1E44 DUP2 PUSH2 0x2EF6 JUMP JUMPDEST PUSH1 0x20 DUP1 DUP3 MSTORE DUP2 ADD PUSH2 0x1E44 DUP2 PUSH2 0x2F2F JUMP JUMPDEST PUSH1 0x20 DUP1 DUP3 MSTORE DUP2 ADD PUSH2 0x1E44 DUP2 PUSH2 0x2F58 JUMP JUMPDEST PUSH1 0x20 DUP1 DUP3 MSTORE DUP2 ADD PUSH2 0x1E44 DUP2 PUSH2 0x2F80 JUMP JUMPDEST PUSH1 0x20 DUP1 DUP3 MSTORE DUP2 ADD PUSH2 0x1E44 DUP2 PUSH2 0x2FC3 JUMP JUMPDEST PUSH1 0x20 DUP1 DUP3 MSTORE DUP2 ADD PUSH2 0x1E44 DUP2 PUSH2 0x2FFC JUMP JUMPDEST PUSH1 0x20 DUP1 DUP3 MSTORE DUP2 ADD PUSH2 0x1E44 DUP2 PUSH2 0x3033 JUMP JUMPDEST PUSH1 0x20 DUP2 ADD PUSH2 0x1E44 DUP3 DUP5 PUSH2 0x30D8 JUMP JUMPDEST PUSH1 0xC0 DUP2 ADD PUSH2 0x32D1 DUP3 DUP10 PUSH2 0x30D8 JUMP JUMPDEST PUSH2 0x32DE PUSH1 0x20 DUP4 ADD DUP9 PUSH2 0x30D8 JUMP JUMPDEST PUSH2 0x32EB PUSH1 0x40 DUP4 ADD DUP8 PUSH2 0x30D8 JUMP JUMPDEST PUSH2 0x32F8 PUSH1 0x60 DUP4 ADD DUP7 PUSH2 0x30D8 JUMP JUMPDEST PUSH2 0x3305 PUSH1 0x80 DUP4 ADD DUP6 PUSH2 0x30D8 JUMP JUMPDEST PUSH2 0x2A9 PUSH1 0xA0 DUP4 ADD DUP5 PUSH2 0x30D8 JUMP JUMPDEST PUSH1 0x40 MLOAD DUP2 DUP2 ADD PUSH8 0xFFFFFFFFFFFFFFFF DUP2 GT DUP3 DUP3 LT OR ISZERO PUSH2 0x3331 JUMPI PUSH1 0x0 DUP1 REVERT JUMPDEST PUSH1 0x40 MSTORE SWAP2 SWAP1 POP JUMP JUMPDEST PUSH1 0x0 PUSH8 0xFFFFFFFFFFFFFFFF DUP3 GT ISZERO PUSH2 0x3350 JUMPI PUSH1 0x0 DUP1 REVERT JUMPDEST POP PUSH1 0x20 SWAP1 DUP2 MUL ADD SWAP1 JUMP JUMPDEST PUSH1 0x20 ADD SWAP1 JUMP JUMPDEST MLOAD SWAP1 JUMP JUMPDEST SWAP1 DUP2 MSTORE PUSH1 0x20 ADD SWAP1 JUMP JUMPDEST PUSH1 0x0 PUSH2 0x1E44 DUP3 PUSH2 0x3388 JUMP JUMPDEST ISZERO ISZERO SWAP1 JUMP JUMPDEST PUSH1 0x0 PUSH2 0x1E44 DUP3 PUSH2 0x336D JUMP JUMPDEST PUSH1 0x1 PUSH1 0x1 PUSH1 0xA0 SHL SUB AND SWAP1 JUMP JUMPDEST SWAP1 JUMP JUMPDEST PUSH1 0x0 PUSH2 0x1E44 DUP3 PUSH2 0x337D JUMP JUMPDEST PUSH1 0x0 PUSH2 0x1E44 DUP3 PUSH2 0x3394 JUMP JUMPDEST PUSH1 0x0 JUMPDEST DUP4 DUP2 LT ISZERO PUSH2 0x33C8 JUMPI DUP2 DUP2 ADD MLOAD DUP4 DUP3 ADD MSTORE PUSH1 0x20 ADD PUSH2 0x33B0 JUMP JUMPDEST DUP4 DUP2 GT ISZERO PUSH2 0x30D2 JUMPI POP POP PUSH1 0x0 SWAP2 ADD MSTORE JUMP JUMPDEST PUSH1 0x1F ADD PUSH1 0x1F NOT AND SWAP1 JUMP JUMPDEST PUSH2 0x33EC DUP2 PUSH2 0x336D JUMP JUMPDEST DUP2 EQ PUSH2 0x1CFF JUMPI PUSH1 0x0 DUP1 REVERT JUMPDEST PUSH2 0x33EC DUP2 PUSH2 0x3378 JUMP JUMPDEST PUSH2 0x33EC DUP2 PUSH2 0x337D JUMP JUMPDEST PUSH2 0x33EC DUP2 PUSH2 0x3394 JUMP INVALID LOG3 PUSH6 0x627A7A723158 KECCAK256 0xed 0xd6 CALLDATACOPY PUSH14 0xE8178B682F1AF7D89339D612C0C0 INVALID 0x5d SWAP3 0xf PUSH25 0xC1DA770B7692F435FA6C6578706572696D656E74616CF56473 PUSH16 0x6C634300050C00400000000000000000 "
        },
        "methodIdentifiers": {
          "batchSwapExactIn((address,address,address,uint256,uint256,uint256)[],address,address,uint256,uint256)": "8743ad58",
          "batchSwapExactOut((address,address,address,uint256,uint256,uint256)[],address,address,uint256)": "2db58134",
          "isOwner()": "8f32d59b",
          "multihopBatchSwapExactIn((address,address,address,uint256,uint256,uint256)[][],address,address,uint256,uint256)": "e2b39746",
          "multihopBatchSwapExactOut((address,address,address,uint256,uint256,uint256)[][],address,address,uint256)": "86b2ecc4",
          "owner()": "8da5cb5b",
          "renounceOwnership()": "715018a6",
          "setRegistry(address)": "a91ee0dc",
          "smartSwapExactIn(address,address,uint256,uint256,uint256)": "21b0eb85",
          "smartSwapExactOut(address,address,uint256,uint256,uint256)": "b40f39ee",
          "transferOwnership(address)": "f2fde38b",
          "viewSplitExactIn(address,address,uint256,uint256)": "4b0f93fb",
          "viewSplitExactOut(address,address,uint256,uint256)": "368bb1fc"
        }
      }
    }
  }
}